{
  "_format": "hh-sol-artifact-1",
  "contractName": "MiniChefV2Zapper",
  "sourceName": "contracts/mini-chef-zapper/MiniChefV2Zapper.sol",
  "abi": [
    {
      "inputs": [
        {
          "internalType": "address",
          "name": "_router",
          "type": "address"
        },
        {
          "internalType": "address",
          "name": "_miniChefV2",
          "type": "address"
        },
        {
          "internalType": "address",
          "name": "_WAVAX",
          "type": "address"
        }
      ],
      "stateMutability": "nonpayable",
      "type": "constructor"
    },
    {
      "inputs": [],
      "name": "WAVAX",
      "outputs": [
        {
          "internalType": "address",
          "name": "",
          "type": "address"
        }
      ],
      "stateMutability": "view",
      "type": "function"
    },
    {
      "inputs": [
        {
          "internalType": "address",
          "name": "pairAddress",
          "type": "address"
        },
        {
          "internalType": "address",
          "name": "tokenIn",
          "type": "address"
        },
        {
          "internalType": "uint256",
          "name": "fullInvestmentIn",
          "type": "uint256"
        }
      ],
      "name": "estimateSwap",
      "outputs": [
        {
          "internalType": "uint256",
          "name": "swapAmountIn",
          "type": "uint256"
        },
        {
          "internalType": "uint256",
          "name": "swapAmountOut",
          "type": "uint256"
        },
        {
          "internalType": "address",
          "name": "swapTokenOut",
          "type": "address"
        }
      ],
      "stateMutability": "view",
      "type": "function"
    },
    {
      "inputs": [],
      "name": "miniChefV2",
      "outputs": [
        {
          "internalType": "contract IMiniChefV2",
          "name": "",
          "type": "address"
        }
      ],
      "stateMutability": "view",
      "type": "function"
    },
    {
      "inputs": [],
      "name": "minimumAmount",
      "outputs": [
        {
          "internalType": "uint256",
          "name": "",
          "type": "uint256"
        }
      ],
      "stateMutability": "view",
      "type": "function"
    },
    {
      "inputs": [],
      "name": "router",
      "outputs": [
        {
          "internalType": "contract IPangolinRouter",
          "name": "",
          "type": "address"
        }
      ],
      "stateMutability": "view",
      "type": "function"
    },
    {
      "inputs": [
        {
          "internalType": "address",
          "name": "pairAddress",
          "type": "address"
        },
        {
          "internalType": "address",
          "name": "tokenIn",
          "type": "address"
        },
        {
          "internalType": "uint256",
          "name": "tokenInAmount",
          "type": "uint256"
        },
        {
          "internalType": "uint256",
          "name": "tokenAmountOutMin",
          "type": "uint256"
        }
      ],
      "name": "zapIn",
      "outputs": [],
      "stateMutability": "nonpayable",
      "type": "function"
    },
    {
      "inputs": [
        {
          "internalType": "address",
          "name": "pairAddress",
          "type": "address"
        },
        {
          "internalType": "uint256",
          "name": "tokenAmountOutMin",
          "type": "uint256"
        }
      ],
      "name": "zapInAVAX",
      "outputs": [],
      "stateMutability": "payable",
      "type": "function"
    },
    {
      "inputs": [
        {
          "internalType": "address",
          "name": "pairAddress",
          "type": "address"
        },
        {
          "internalType": "address",
          "name": "tokenIn",
          "type": "address"
        },
        {
          "internalType": "uint256",
          "name": "tokenInAmount",
          "type": "uint256"
        },
        {
          "internalType": "uint256",
          "name": "tokenAmountOutMin",
          "type": "uint256"
        },
        {
          "internalType": "uint256",
          "name": "pid",
          "type": "uint256"
        }
      ],
      "name": "zapInAndFarm",
      "outputs": [],
      "stateMutability": "nonpayable",
      "type": "function"
    },
    {
      "inputs": [
        {
          "internalType": "address",
          "name": "pairAddress",
          "type": "address"
        },
        {
          "internalType": "uint256",
          "name": "tokenAmountOutMin",
          "type": "uint256"
        },
        {
          "internalType": "uint256",
          "name": "pid",
          "type": "uint256"
        }
      ],
      "name": "zapInAndFarmAVAX",
      "outputs": [],
      "stateMutability": "payable",
      "type": "function"
    },
    {
      "inputs": [
        {
          "internalType": "address",
          "name": "pairAddress",
          "type": "address"
        },
        {
          "internalType": "address",
          "name": "tokenIn",
          "type": "address"
        },
        {
          "internalType": "uint256",
          "name": "tokenInAmount",
          "type": "uint256"
        },
        {
          "internalType": "uint256",
          "name": "tokenAmountOutMin",
          "type": "uint256"
        },
        {
          "internalType": "uint256",
          "name": "pid",
          "type": "uint256"
        },
        {
          "internalType": "uint256",
          "name": "deadline",
          "type": "uint256"
        },
        {
          "internalType": "uint8",
          "name": "v",
          "type": "uint8"
        },
        {
          "internalType": "bytes32",
          "name": "r",
          "type": "bytes32"
        },
        {
          "internalType": "bytes32",
          "name": "s",
          "type": "bytes32"
        }
      ],
      "name": "zapInAndFarmViaPermit",
      "outputs": [],
      "stateMutability": "nonpayable",
      "type": "function"
    },
    {
      "inputs": [
        {
          "internalType": "address",
          "name": "pairAddress",
          "type": "address"
        },
        {
          "internalType": "address",
          "name": "tokenIn",
          "type": "address"
        },
        {
          "internalType": "uint256",
          "name": "tokenInAmount",
          "type": "uint256"
        },
        {
          "internalType": "uint256",
          "name": "tokenAmountOutMin",
          "type": "uint256"
        },
        {
          "internalType": "uint256",
          "name": "deadline",
          "type": "uint256"
        },
        {
          "internalType": "uint8",
          "name": "v",
          "type": "uint8"
        },
        {
          "internalType": "bytes32",
          "name": "r",
          "type": "bytes32"
        },
        {
          "internalType": "bytes32",
          "name": "s",
          "type": "bytes32"
        }
      ],
      "name": "zapInViaPermit",
      "outputs": [],
      "stateMutability": "nonpayable",
      "type": "function"
    },
    {
      "inputs": [
        {
          "internalType": "address",
          "name": "pairAddress",
          "type": "address"
        },
        {
          "internalType": "uint256",
          "name": "withdrawAmount",
          "type": "uint256"
        },
        {
          "internalType": "address",
          "name": "to",
          "type": "address"
        }
      ],
      "name": "zapOut",
      "outputs": [],
      "stateMutability": "nonpayable",
      "type": "function"
    },
    {
      "inputs": [
        {
          "internalType": "address",
          "name": "pairAddress",
          "type": "address"
        },
        {
          "internalType": "uint256",
          "name": "withdrawAmount",
          "type": "uint256"
        },
        {
          "internalType": "address",
          "name": "desiredToken",
          "type": "address"
        },
        {
          "internalType": "uint256",
          "name": "desiredTokenOutMin",
          "type": "uint256"
        },
        {
          "internalType": "address",
          "name": "to",
          "type": "address"
        }
      ],
      "name": "zapOutAndSwap",
      "outputs": [],
      "stateMutability": "nonpayable",
      "type": "function"
    },
    {
      "inputs": [
        {
          "internalType": "address",
          "name": "pairAddress",
          "type": "address"
        },
        {
          "internalType": "uint256",
          "name": "withdrawAmount",
          "type": "uint256"
        },
        {
          "internalType": "uint256",
          "name": "desiredAVAXOutMin",
          "type": "uint256"
        },
        {
          "internalType": "address",
          "name": "to",
          "type": "address"
        }
      ],
      "name": "zapOutAndSwapAVAX",
      "outputs": [],
      "stateMutability": "nonpayable",
      "type": "function"
    },
    {
      "inputs": [
        {
          "internalType": "address",
          "name": "pairAddress",
          "type": "address"
        },
        {
          "internalType": "uint256",
          "name": "withdrawAmount",
          "type": "uint256"
        },
        {
          "internalType": "uint256",
          "name": "desiredAVAXOutMin",
          "type": "uint256"
        },
        {
          "internalType": "address",
          "name": "to",
          "type": "address"
        },
        {
          "internalType": "uint256",
          "name": "deadline",
          "type": "uint256"
        },
        {
          "internalType": "uint8",
          "name": "v",
          "type": "uint8"
        },
        {
          "internalType": "bytes32",
          "name": "r",
          "type": "bytes32"
        },
        {
          "internalType": "bytes32",
          "name": "s",
          "type": "bytes32"
        }
      ],
      "name": "zapOutAndSwapAVAXViaPermit",
      "outputs": [],
      "stateMutability": "nonpayable",
      "type": "function"
    },
    {
      "inputs": [
        {
          "internalType": "address",
          "name": "pairAddress",
          "type": "address"
        },
        {
          "internalType": "uint256",
          "name": "withdrawAmount",
          "type": "uint256"
        },
        {
          "internalType": "address",
          "name": "desiredToken",
          "type": "address"
        },
        {
          "internalType": "uint256",
          "name": "desiredTokenOutMin",
          "type": "uint256"
        },
        {
          "internalType": "address",
          "name": "to",
          "type": "address"
        },
        {
          "internalType": "uint256",
          "name": "deadline",
          "type": "uint256"
        },
        {
          "internalType": "uint8",
          "name": "v",
          "type": "uint8"
        },
        {
          "internalType": "bytes32",
          "name": "r",
          "type": "bytes32"
        },
        {
          "internalType": "bytes32",
          "name": "s",
          "type": "bytes32"
        }
      ],
      "name": "zapOutAndSwapViaPermit",
      "outputs": [],
      "stateMutability": "nonpayable",
      "type": "function"
    },
    {
      "inputs": [
        {
          "internalType": "address",
          "name": "pairAddress",
          "type": "address"
        },
        {
          "internalType": "uint256",
          "name": "withdrawAmount",
          "type": "uint256"
        },
        {
          "internalType": "address",
          "name": "to",
          "type": "address"
        },
        {
          "internalType": "uint256",
          "name": "deadline",
          "type": "uint256"
        },
        {
          "internalType": "uint8",
          "name": "v",
          "type": "uint8"
        },
        {
          "internalType": "bytes32",
          "name": "r",
          "type": "bytes32"
        },
        {
          "internalType": "bytes32",
          "name": "s",
          "type": "bytes32"
        }
      ],
      "name": "zapOutViaPermit",
      "outputs": [],
      "stateMutability": "nonpayable",
      "type": "function"
    },
    {
      "stateMutability": "payable",
      "type": "receive"
    }
  ],
  "bytecode": "0x60e06040523480156200001157600080fd5b50604051620046a0380380620046a083398181016040528101906200003791906200021a565b8073ffffffffffffffffffffffffffffffffffffffff1663d0e30db060006040518263ffffffff1660e01b81526004016000604051808303818588803b1580156200008157600080fd5b505af115801562000096573d6000803e3d6000fd5b50505050508073ffffffffffffffffffffffffffffffffffffffff16632e1a7d4d60006040518263ffffffff1660e01b8152600401620000d79190620002cd565b600060405180830381600087803b158015620000f257600080fd5b505af115801562000107573d6000803e3d6000fd5b505050508273ffffffffffffffffffffffffffffffffffffffff1660808173ffffffffffffffffffffffffffffffffffffffff16815250508173ffffffffffffffffffffffffffffffffffffffff1660a08173ffffffffffffffffffffffffffffffffffffffff16815250508073ffffffffffffffffffffffffffffffffffffffff1660c08173ffffffffffffffffffffffffffffffffffffffff1681525050505050620002ea565b600080fd5b600073ffffffffffffffffffffffffffffffffffffffff82169050919050565b6000620001e282620001b5565b9050919050565b620001f481620001d5565b81146200020057600080fd5b50565b6000815190506200021481620001e9565b92915050565b600080600060608486031215620002365762000235620001b0565b5b6000620002468682870162000203565b9350506020620002598682870162000203565b92505060406200026c8682870162000203565b9150509250925092565b6000819050919050565b6000819050919050565b6000819050919050565b6000620002b5620002af620002a98462000276565b6200028a565b62000280565b9050919050565b620002c78162000294565b82525050565b6000602082019050620002e46000830184620002bc565b92915050565b60805160a05160c0516142f3620003ad6000396000818161010901528181610674015281816106f9015281816113da015281816114b3015281816115380152818161156b01528181611595015261163101526000818161058201528181610ccf0152818161132701528181611f110152611f37015260008181610aa401528181610aca0152818161118f015281816116ee01528181611ca801528181611cd001528181611db201528181611dda01528181612462015261250401526142f36000f3fe6080604052600436106101025760003560e01c80634b7f636311610095578063aaa2ed8011610064578063aaa2ed8014610356578063bb0c82981461037f578063bdc49cd4146103aa578063f887ea40146103d3578063ff2d28b5146103fe57610165565b80634b7f6363146102bb5780634e3c9b35146102e657806373b295c21461030f578063a90ea90a1461033a57610165565b80632e042c6c116100d15780632e042c6c14610201578063375b9c891461022a5780633c3b1ef6146102535780633f2f869a1461027c57610165565b806306a4fa4a1461016a5780630aa62b391461019357806312709e1e146101af5780632bce72b6146101d857610165565b36610165577f000000000000000000000000000000000000000000000000000000000000000073ffffffffffffffffffffffffffffffffffffffff163373ffffffffffffffffffffffffffffffffffffffff1614610163576101626129df565b5b005b600080fd5b34801561017657600080fd5b50610191600480360381019061018c9190612b25565b610427565b005b6101ad60048036038101906101a89190612bdb565b6104b4565b005b3480156101bb57600080fd5b506101d660048036038101906101d19190612c2e565b610726565b005b3480156101e457600080fd5b506101ff60048036038101906101fa9190612ce4565b6107b3565b005b34801561020d57600080fd5b5061022860048036038101906102239190612d5f565b610c01565b005b34801561023657600080fd5b50610251600480360381019061024c9190612dda565b610de0565b005b34801561025f57600080fd5b5061027a60048036038101906102759190612ea4565b610e6f565b005b34801561028857600080fd5b506102a3600480360381019061029e9190612f0b565b610f44565b6040516102b293929190612f7c565b60405180910390f35b3480156102c757600080fd5b506102d0611325565b6040516102dd9190613012565b60405180910390f35b3480156102f257600080fd5b5061030d6004803603810190610308919061302d565b611349565b005b34801561031b57600080fd5b506103246113d8565b60405161033191906130f7565b60405180910390f35b610354600480360381019061034f9190613112565b6113fc565b005b34801561036257600080fd5b5061037d60048036038101906103789190613152565b611564565b005b34801561038b57600080fd5b506103946116cb565b6040516103a191906131b9565b60405180910390f35b3480156103b657600080fd5b506103d160048036038101906103cc91906131d4565b6116d1565b005b3480156103df57600080fd5b506103e86116ec565b6040516103f59190613248565b60405180910390f35b34801561040a57600080fd5b5061042560048036038101906104209190613263565b611710565b005b8673ffffffffffffffffffffffffffffffffffffffff1663d505accf333089888888886040518863ffffffff1660e01b815260040161046c9796959493929190613323565b600060405180830381600087803b15801561048657600080fd5b505af115801561049a573d6000803e3d6000fd5b505050506104aa88888888610e6f565b5050505050505050565b6103e83410156104f9576040517f08c379a00000000000000000000000000000000000000000000000000000000081526004016104f0906133ef565b60405180910390fd5b600073ffffffffffffffffffffffffffffffffffffffff168373ffffffffffffffffffffffffffffffffffffffff161415610569576040517f08c379a00000000000000000000000000000000000000000000000000000000081526004016105609061345b565b60405180910390fd5b8273ffffffffffffffffffffffffffffffffffffffff167f000000000000000000000000000000000000000000000000000000000000000073ffffffffffffffffffffffffffffffffffffffff166378ed5d1f836040518263ffffffff1660e01b81526004016105d991906131b9565b6020604051808303816000875af11580156105f8573d6000803e3d6000fd5b505050506040513d601f19601f8201168201806040525081019061061c9190613490565b73ffffffffffffffffffffffffffffffffffffffff1614610672576040517f08c379a00000000000000000000000000000000000000000000000000000000081526004016106699061352f565b60405180910390fd5b7f000000000000000000000000000000000000000000000000000000000000000073ffffffffffffffffffffffffffffffffffffffff1663d0e30db0346040518263ffffffff1660e01b81526004016000604051808303818588803b1580156106da57600080fd5b505af11580156106ee573d6000803e3d6000fd5b5050505050610721837f00000000000000000000000000000000000000000000000000000000000000008484600161179b565b505050565b8773ffffffffffffffffffffffffffffffffffffffff1663d505accf33308a888888886040518863ffffffff1660e01b815260040161076b9796959493929190613323565b600060405180830381600087803b15801561078557600080fd5b505af1158015610799573d6000803e3d6000fd5b505050506107a988888888611564565b5050505050505050565b600085905060008173ffffffffffffffffffffffffffffffffffffffff16630dfe16816040518163ffffffff1660e01b8152600401602060405180830381865afa158015610805573d6000803e3d6000fd5b505050506040513d601f19601f820116820180604052508101906108299190613490565b905060008273ffffffffffffffffffffffffffffffffffffffff1663d21220a76040518163ffffffff1660e01b8152600401602060405180830381865afa158015610878573d6000803e3d6000fd5b505050506040513d601f19601f8201168201806040525081019061089c9190613490565b90508573ffffffffffffffffffffffffffffffffffffffff168273ffffffffffffffffffffffffffffffffffffffff16148061090357508573ffffffffffffffffffffffffffffffffffffffff168173ffffffffffffffffffffffffffffffffffffffff16145b610942576040517f08c379a0000000000000000000000000000000000000000000000000000000008152600401610939906135c1565b60405180910390fd5b61094e8833308a611fe0565b6109588830612119565b60008673ffffffffffffffffffffffffffffffffffffffff168273ffffffffffffffffffffffffffffffffffffffff16146109935781610995565b825b90506000600267ffffffffffffffff8111156109b4576109b36135e1565b5b6040519080825280602002602001820160405280156109e25781602001602082028036833780820191505090505b50905081816000815181106109fa576109f9613610565b5b602002602001019073ffffffffffffffffffffffffffffffffffffffff16908173ffffffffffffffffffffffffffffffffffffffff16815250508781600181518110610a4957610a48613610565b5b602002602001019073ffffffffffffffffffffffffffffffffffffffff16908173ffffffffffffffffffffffffffffffffffffffff1681525050610ac881600081518110610a9a57610a99613610565b5b60200260200101517f00000000000000000000000000000000000000000000000000000000000000006122af565b7f000000000000000000000000000000000000000000000000000000000000000073ffffffffffffffffffffffffffffffffffffffff166338ed17398373ffffffffffffffffffffffffffffffffffffffff166370a08231306040518263ffffffff1660e01b8152600401610b3d91906130f7565b602060405180830381865afa158015610b5a573d6000803e3d6000fd5b505050506040513d601f19601f82011682018060405250810190610b7e9190613654565b898430426040518663ffffffff1660e01b8152600401610ba295949392919061373f565b6000604051808303816000875af1158015610bc1573d6000803e3d6000fd5b505050506040513d6000823e3d601f19601f82011682018060405250810190610bea91906138c3565b50610bf58187612363565b50505050505050505050565b6103e8831015610c46576040517f08c379a0000000000000000000000000000000000000000000000000000000008152600401610c3d906133ef565b60405180910390fd5b600073ffffffffffffffffffffffffffffffffffffffff168573ffffffffffffffffffffffffffffffffffffffff161415610cb6576040517f08c379a0000000000000000000000000000000000000000000000000000000008152600401610cad9061345b565b60405180910390fd5b8473ffffffffffffffffffffffffffffffffffffffff167f000000000000000000000000000000000000000000000000000000000000000073ffffffffffffffffffffffffffffffffffffffff166378ed5d1f836040518263ffffffff1660e01b8152600401610d2691906131b9565b6020604051808303816000875af1158015610d45573d6000803e3d6000fd5b505050506040513d601f19601f82011682018060405250810190610d699190613490565b73ffffffffffffffffffffffffffffffffffffffff1614610dbf576040517f08c379a0000000000000000000000000000000000000000000000000000000008152600401610db69061352f565b60405180910390fd5b610dcb84333086611fe0565b610dd985858484600161179b565b5050505050565b8873ffffffffffffffffffffffffffffffffffffffff1663d505accf33308b888888886040518863ffffffff1660e01b8152600401610e259796959493929190613323565b600060405180830381600087803b158015610e3f57600080fd5b505af1158015610e53573d6000803e3d6000fd5b50505050610e6489898989896107b3565b505050505050505050565b6103e8821015610eb4576040517f08c379a0000000000000000000000000000000000000000000000000000000008152600401610eab906133ef565b60405180910390fd5b600073ffffffffffffffffffffffffffffffffffffffff168473ffffffffffffffffffffffffffffffffffffffff161415610f24576040517f08c379a0000000000000000000000000000000000000000000000000000000008152600401610f1b9061345b565b60405180910390fd5b610f3083333085611fe0565b610f3e84848360008061179b565b50505050565b60008060008086905060008673ffffffffffffffffffffffffffffffffffffffff168273ffffffffffffffffffffffffffffffffffffffff16630dfe16816040518163ffffffff1660e01b8152600401602060405180830381865afa158015610fb1573d6000803e3d6000fd5b505050506040513d601f19601f82011682018060405250810190610fd59190613490565b73ffffffffffffffffffffffffffffffffffffffff16149050808061109357508673ffffffffffffffffffffffffffffffffffffffff168273ffffffffffffffffffffffffffffffffffffffff1663d21220a76040518163ffffffff1660e01b8152600401602060405180830381865afa158015611057573d6000803e3d6000fd5b505050506040513d601f19601f8201168201806040525081019061107b9190613490565b73ffffffffffffffffffffffffffffffffffffffff16145b6110d2576040517f08c379a00000000000000000000000000000000000000000000000000000000081526004016110c99061397e565b60405180910390fd5b6000808373ffffffffffffffffffffffffffffffffffffffff16630902f1ac6040518163ffffffff1660e01b8152600401606060405180830381865afa158015611120573d6000803e3d6000fd5b505050506040513d601f19601f820116820180604052508101906111449190613a20565b506dffffffffffffffffffffffffffff1691506dffffffffffffffffffffffffffff16915082611175578082611178565b81815b809250819350505061118b88838361244c565b96507f000000000000000000000000000000000000000000000000000000000000000073ffffffffffffffffffffffffffffffffffffffff1663054d50d48884846040518463ffffffff1660e01b81526004016111ea93929190613a73565b602060405180830381865afa158015611207573d6000803e3d6000fd5b505050506040513d601f19601f8201168201806040525081019061122b9190613654565b9550826112a6578373ffffffffffffffffffffffffffffffffffffffff16630dfe16816040518163ffffffff1660e01b8152600401602060405180830381865afa15801561127d573d6000803e3d6000fd5b505050506040513d601f19601f820116820180604052508101906112a19190613490565b611316565b8373ffffffffffffffffffffffffffffffffffffffff1663d21220a76040518163ffffffff1660e01b8152600401602060405180830381865afa1580156112f1573d6000803e3d6000fd5b505050506040513d601f19601f820116820180604052508101906113159190613490565b5b94505050505093509350939050565b7f000000000000000000000000000000000000000000000000000000000000000081565b8773ffffffffffffffffffffffffffffffffffffffff1663d505accf33308a888888886040518863ffffffff1660e01b815260040161138e9796959493929190613323565b600060405180830381600087803b1580156113a857600080fd5b505af11580156113bc573d6000803e3d6000fd5b505050506113cd8989898989610c01565b505050505050505050565b7f000000000000000000000000000000000000000000000000000000000000000081565b6103e8341015611441576040517f08c379a0000000000000000000000000000000000000000000000000000000008152600401611438906133ef565b60405180910390fd5b600073ffffffffffffffffffffffffffffffffffffffff168273ffffffffffffffffffffffffffffffffffffffff1614156114b1576040517f08c379a00000000000000000000000000000000000000000000000000000000081526004016114a89061345b565b60405180910390fd5b7f000000000000000000000000000000000000000000000000000000000000000073ffffffffffffffffffffffffffffffffffffffff1663d0e30db0346040518263ffffffff1660e01b81526004016000604051808303818588803b15801561151957600080fd5b505af115801561152d573d6000803e3d6000fd5b5050505050611560827f00000000000000000000000000000000000000000000000000000000000000008360008061179b565b5050565b61159184847f000000000000000000000000000000000000000000000000000000000000000085306107b3565b60007f000000000000000000000000000000000000000000000000000000000000000073ffffffffffffffffffffffffffffffffffffffff166370a08231306040518263ffffffff1660e01b81526004016115ec91906130f7565b602060405180830381865afa158015611609573d6000803e3d6000fd5b505050506040513d601f19601f8201168201806040525081019061162d9190613654565b90507f000000000000000000000000000000000000000000000000000000000000000073ffffffffffffffffffffffffffffffffffffffff16632e1a7d4d826040518263ffffffff1660e01b815260040161168891906131b9565b600060405180830381600087803b1580156116a257600080fd5b505af11580156116b6573d6000803e3d6000fd5b505050506116c482826125f9565b5050505050565b6103e881565b6116dd83333085611fe0565b6116e78382612119565b505050565b7f000000000000000000000000000000000000000000000000000000000000000081565b8673ffffffffffffffffffffffffffffffffffffffff1663d505accf333089888888886040518863ffffffff1660e01b81526004016117559796959493929190613323565b600060405180830381600087803b15801561176f57600080fd5b505af1158015611783573d6000803e3d6000fd5b505050506117928787876116d1565b50505050505050565b60008590506000808273ffffffffffffffffffffffffffffffffffffffff16630902f1ac6040518163ffffffff1660e01b8152600401606060405180830381865afa1580156117ee573d6000803e3d6000fd5b505050506040513d601f19601f820116820180604052508101906118129190613a20565b506dffffffffffffffffffffffffffff1691506dffffffffffffffffffffffffffff1691506103e88211801561184957506103e881115b611888576040517f08c379a000000000000000000000000000000000000000000000000000000000815260040161187f90613af6565b60405180910390fd5b60008773ffffffffffffffffffffffffffffffffffffffff168473ffffffffffffffffffffffffffffffffffffffff16630dfe16816040518163ffffffff1660e01b8152600401602060405180830381865afa1580156118ec573d6000803e3d6000fd5b505050506040513d601f19601f820116820180604052508101906119109190613490565b73ffffffffffffffffffffffffffffffffffffffff1614905080806119ce57508773ffffffffffffffffffffffffffffffffffffffff168473ffffffffffffffffffffffffffffffffffffffff1663d21220a76040518163ffffffff1660e01b8152600401602060405180830381865afa158015611992573d6000803e3d6000fd5b505050506040513d601f19601f820116820180604052508101906119b69190613490565b73ffffffffffffffffffffffffffffffffffffffff16145b611a0d576040517f08c379a0000000000000000000000000000000000000000000000000000000008152600401611a049061397e565b60405180910390fd5b6000600267ffffffffffffffff811115611a2a57611a296135e1565b5b604051908082528060200260200182016040528015611a585781602001602082028036833780820191505090505b5090508881600081518110611a7057611a6f613610565b5b602002602001019073ffffffffffffffffffffffffffffffffffffffff16908173ffffffffffffffffffffffffffffffffffffffff168152505081611b23578473ffffffffffffffffffffffffffffffffffffffff16630dfe16816040518163ffffffff1660e01b8152600401602060405180830381865afa158015611afa573d6000803e3d6000fd5b505050506040513d601f19601f82011682018060405250810190611b1e9190613490565b611b93565b8473ffffffffffffffffffffffffffffffffffffffff1663d21220a76040518163ffffffff1660e01b8152600401602060405180830381865afa158015611b6e573d6000803e3d6000fd5b505050506040513d601f19601f82011682018060405250810190611b929190613490565b5b81600181518110611ba757611ba6613610565b5b602002602001019073ffffffffffffffffffffffffffffffffffffffff16908173ffffffffffffffffffffffffffffffffffffffff168152505060008973ffffffffffffffffffffffffffffffffffffffff166370a08231306040518263ffffffff1660e01b8152600401611c1c91906130f7565b602060405180830381865afa158015611c39573d6000803e3d6000fd5b505050506040513d601f19601f82011682018060405250810190611c5d9190613654565b905060008315611c7957611c7282878761244c565b9050611c87565b611c8482868861244c565b90505b611ccc83600081518110611c9e57611c9d613610565b5b60200260200101517f00000000000000000000000000000000000000000000000000000000000000006122af565b60007f000000000000000000000000000000000000000000000000000000000000000073ffffffffffffffffffffffffffffffffffffffff166338ed1739838d8730426040518663ffffffff1660e01b8152600401611d2f95949392919061373f565b6000604051808303816000875af1158015611d4e573d6000803e3d6000fd5b505050506040513d6000823e3d601f19601f82011682018060405250810190611d7791906138c3565b90506000600115158a151514611d8d5733611d8f565b305b9050611dd685600181518110611da857611da7613610565b5b60200260200101517f00000000000000000000000000000000000000000000000000000000000000006122af565b60007f000000000000000000000000000000000000000000000000000000000000000073ffffffffffffffffffffffffffffffffffffffff1663e8e3370087600081518110611e2857611e27613610565b5b602002602001015188600181518110611e4457611e43613610565b5b602002602001015186600081518110611e6057611e5f613610565b5b602002602001015189611e739190613b45565b87600181518110611e8757611e86613610565b5b602002602001015160018089426040518963ffffffff1660e01b8152600401611eb7989796959493929190613bb4565b6060604051808303816000875af1158015611ed6573d6000803e3d6000fd5b505050506040513d601f19601f82011682018060405250810190611efa9190613c32565b92505050600115158b15151415611fc557611f358f7f00000000000000000000000000000000000000000000000000000000000000006122af565b7f000000000000000000000000000000000000000000000000000000000000000073ffffffffffffffffffffffffffffffffffffffff16638dbdbe6d8d83336040518463ffffffff1660e01b8152600401611f9293929190612f7c565b600060405180830381600087803b158015611fac57600080fd5b505af1158015611fc0573d6000803e3d6000fd5b505050505b611fcf8633612363565b505050505050505050505050505050565b6000808573ffffffffffffffffffffffffffffffffffffffff166323b872dd86868660405160240161201493929190613c85565b6040516020818303038152906040529060e01b6020820180517bffffffffffffffffffffffffffffffffffffffffffffffffffffffff83818316178352505050506040516120629190613d36565b6000604051808303816000865af19150503d806000811461209f576040519150601f19603f3d011682016040523d82523d6000602084013e6120a4565b606091505b50915091508180156120d257506000815114806120d15750808060200190518101906120d09190613d85565b5b5b612111576040517f08c379a000000000000000000000000000000000000000000000000000000000815260040161210890613e24565b60405180910390fd5b505050505050565b61219d82838473ffffffffffffffffffffffffffffffffffffffff166370a08231306040518263ffffffff1660e01b815260040161215791906130f7565b602060405180830381865afa158015612174573d6000803e3d6000fd5b505050506040513d601f19601f820116820180604052508101906121989190613654565b6126f9565b6000808373ffffffffffffffffffffffffffffffffffffffff166389afcb44846040518263ffffffff1660e01b81526004016121d991906130f7565b60408051808303816000875af11580156121f7573d6000803e3d6000fd5b505050506040513d601f19601f8201168201806040525081019061221b9190613e44565b915091506103e8821015612264576040517f08c379a000000000000000000000000000000000000000000000000000000000815260040161225b90613ef6565b60405180910390fd5b6103e88110156122a9576040517f08c379a00000000000000000000000000000000000000000000000000000000081526004016122a090613f88565b60405180910390fd5b50505050565b60008273ffffffffffffffffffffffffffffffffffffffff1663dd62ed3e30846040518363ffffffff1660e01b81526004016122ec929190613fa8565b602060405180830381865afa158015612309573d6000803e3d6000fd5b505050506040513d601f19601f8201168201806040525081019061232d9190613654565b141561235f5761235e82827fffffffffffffffffffffffffffffffffffffffffffffffffffffffffffffffff61282f565b5b5050565b6000805b83518110156124465783818151811061238357612382613610565b5b602002602001015173ffffffffffffffffffffffffffffffffffffffff166370a08231306040518263ffffffff1660e01b81526004016123c391906130f7565b602060405180830381865afa1580156123e0573d6000803e3d6000fd5b505050506040513d601f19601f820116820180604052508101906124049190613654565b915060008211156124355761243484828151811061242557612424613610565b5b602002602001015184846126f9565b5b8061243f90613fd1565b9050612367565b50505050565b60008060028561245c9190614049565b905060007f000000000000000000000000000000000000000000000000000000000000000073ffffffffffffffffffffffffffffffffffffffff1663054d50d48387876040518463ffffffff1660e01b81526004016124bd93929190613a73565b602060405180830381865afa1580156124da573d6000803e3d6000fd5b505050506040513d601f19601f820116820180604052508101906124fe9190613654565b905060007f000000000000000000000000000000000000000000000000000000000000000073ffffffffffffffffffffffffffffffffffffffff1663ad615dec84858961254b919061407a565b85896125579190613b45565b6040518463ffffffff1660e01b815260040161257593929190613a73565b602060405180830381865afa158015612592573d6000803e3d6000fd5b505050506040513d601f19601f820116820180604052508101906125b69190613654565b90506125e2818385866125c991906140d0565b6125d391906140d0565b6125dd9190614049565b612965565b876125ed9190613b45565b93505050509392505050565b60008273ffffffffffffffffffffffffffffffffffffffff1682600067ffffffffffffffff81111561262e5761262d6135e1565b5b6040519080825280601f01601f1916602001820160405280156126605781602001600182028036833780820191505090505b5060405161266e9190613d36565b60006040518083038185875af1925050503d80600081146126ab576040519150601f19603f3d011682016040523d82523d6000602084013e6126b0565b606091505b50509050806126f4576040517f08c379a00000000000000000000000000000000000000000000000000000000081526004016126eb9061419c565b60405180910390fd5b505050565b6000808473ffffffffffffffffffffffffffffffffffffffff1663a9059cbb858560405160240161272b9291906141bc565b6040516020818303038152906040529060e01b6020820180517bffffffffffffffffffffffffffffffffffffffffffffffffffffffff83818316178352505050506040516127799190613d36565b6000604051808303816000865af19150503d80600081146127b6576040519150601f19603f3d011682016040523d82523d6000602084013e6127bb565b606091505b50915091508180156127e957506000815114806127e85750808060200190518101906127e79190613d85565b5b5b612828576040517f08c379a000000000000000000000000000000000000000000000000000000000815260040161281f90614231565b60405180910390fd5b5050505050565b6000808473ffffffffffffffffffffffffffffffffffffffff1663095ea7b385856040516024016128619291906141bc565b6040516020818303038152906040529060e01b6020820180517bffffffffffffffffffffffffffffffffffffffffffffffffffffffff83818316178352505050506040516128af9190613d36565b6000604051808303816000865af19150503d80600081146128ec576040519150601f19603f3d011682016040523d82523d6000602084013e6128f1565b606091505b509150915081801561291f575060008151148061291e57508080602001905181019061291d9190613d85565b5b5b61295e576040517f08c379a00000000000000000000000000000000000000000000000000000000081526004016129559061429d565b60405180910390fd5b5050505050565b600060038211156129cc57819050600060016002846129849190614049565b61298e919061407a565b90505b818110156129c65780915060028182856129ab9190614049565b6129b5919061407a565b6129bf9190614049565b9050612991565b506129da565b600082146129d957600190505b5b919050565b7f4e487b7100000000000000000000000000000000000000000000000000000000600052600160045260246000fd5b6000604051905090565b600080fd5b600080fd5b600073ffffffffffffffffffffffffffffffffffffffff82169050919050565b6000612a4d82612a22565b9050919050565b612a5d81612a42565b8114612a6857600080fd5b50565b600081359050612a7a81612a54565b92915050565b6000819050919050565b612a9381612a80565b8114612a9e57600080fd5b50565b600081359050612ab081612a8a565b92915050565b600060ff82169050919050565b612acc81612ab6565b8114612ad757600080fd5b50565b600081359050612ae981612ac3565b92915050565b6000819050919050565b612b0281612aef565b8114612b0d57600080fd5b50565b600081359050612b1f81612af9565b92915050565b600080600080600080600080610100898b031215612b4657612b45612a18565b5b6000612b548b828c01612a6b565b9850506020612b658b828c01612a6b565b9750506040612b768b828c01612aa1565b9650506060612b878b828c01612aa1565b9550506080612b988b828c01612aa1565b94505060a0612ba98b828c01612ada565b93505060c0612bba8b828c01612b10565b92505060e0612bcb8b828c01612b10565b9150509295985092959890939650565b600080600060608486031215612bf457612bf3612a18565b5b6000612c0286828701612a6b565b9350506020612c1386828701612aa1565b9250506040612c2486828701612aa1565b9150509250925092565b600080600080600080600080610100898b031215612c4f57612c4e612a18565b5b6000612c5d8b828c01612a6b565b9850506020612c6e8b828c01612aa1565b9750506040612c7f8b828c01612aa1565b9650506060612c908b828c01612a6b565b9550506080612ca18b828c01612aa1565b94505060a0612cb28b828c01612ada565b93505060c0612cc38b828c01612b10565b92505060e0612cd48b828c01612b10565b9150509295985092959890939650565b600080600080600060a08688031215612d0057612cff612a18565b5b6000612d0e88828901612a6b565b9550506020612d1f88828901612aa1565b9450506040612d3088828901612a6b565b9350506060612d4188828901612aa1565b9250506080612d5288828901612a6b565b9150509295509295909350565b600080600080600060a08688031215612d7b57612d7a612a18565b5b6000612d8988828901612a6b565b9550506020612d9a88828901612a6b565b9450506040612dab88828901612aa1565b9350506060612dbc88828901612aa1565b9250506080612dcd88828901612aa1565b9150509295509295909350565b60008060008060008060008060006101208a8c031215612dfd57612dfc612a18565b5b6000612e0b8c828d01612a6b565b9950506020612e1c8c828d01612aa1565b9850506040612e2d8c828d01612a6b565b9750506060612e3e8c828d01612aa1565b9650506080612e4f8c828d01612a6b565b95505060a0612e608c828d01612aa1565b94505060c0612e718c828d01612ada565b93505060e0612e828c828d01612b10565b925050610100612e948c828d01612b10565b9150509295985092959850929598565b60008060008060808587031215612ebe57612ebd612a18565b5b6000612ecc87828801612a6b565b9450506020612edd87828801612a6b565b9350506040612eee87828801612aa1565b9250506060612eff87828801612aa1565b91505092959194509250565b600080600060608486031215612f2457612f23612a18565b5b6000612f3286828701612a6b565b9350506020612f4386828701612a6b565b9250506040612f5486828701612aa1565b9150509250925092565b612f6781612a80565b82525050565b612f7681612a42565b82525050565b6000606082019050612f916000830186612f5e565b612f9e6020830185612f5e565b612fab6040830184612f6d565b949350505050565b6000819050919050565b6000612fd8612fd3612fce84612a22565b612fb3565b612a22565b9050919050565b6000612fea82612fbd565b9050919050565b6000612ffc82612fdf565b9050919050565b61300c81612ff1565b82525050565b60006020820190506130276000830184613003565b92915050565b60008060008060008060008060006101208a8c0312156130505761304f612a18565b5b600061305e8c828d01612a6b565b995050602061306f8c828d01612a6b565b98505060406130808c828d01612aa1565b97505060606130918c828d01612aa1565b96505060806130a28c828d01612aa1565b95505060a06130b38c828d01612aa1565b94505060c06130c48c828d01612ada565b93505060e06130d58c828d01612b10565b9250506101006130e78c828d01612b10565b9150509295985092959850929598565b600060208201905061310c6000830184612f6d565b92915050565b6000806040838503121561312957613128612a18565b5b600061313785828601612a6b565b925050602061314885828601612aa1565b9150509250929050565b6000806000806080858703121561316c5761316b612a18565b5b600061317a87828801612a6b565b945050602061318b87828801612aa1565b935050604061319c87828801612aa1565b92505060606131ad87828801612a6b565b91505092959194509250565b60006020820190506131ce6000830184612f5e565b92915050565b6000806000606084860312156131ed576131ec612a18565b5b60006131fb86828701612a6b565b935050602061320c86828701612aa1565b925050604061321d86828701612a6b565b9150509250925092565b600061323282612fdf565b9050919050565b61324281613227565b82525050565b600060208201905061325d6000830184613239565b92915050565b600080600080600080600060e0888a03121561328257613281612a18565b5b60006132908a828b01612a6b565b97505060206132a18a828b01612aa1565b96505060406132b28a828b01612a6b565b95505060606132c38a828b01612aa1565b94505060806132d48a828b01612ada565b93505060a06132e58a828b01612b10565b92505060c06132f68a828b01612b10565b91505092959891949750929550565b61330e81612ab6565b82525050565b61331d81612aef565b82525050565b600060e082019050613338600083018a612f6d565b6133456020830189612f6d565b6133526040830188612f5e565b61335f6060830187612f5e565b61336c6080830186613305565b61337960a0830185613314565b61338660c0830184613314565b98975050505050505050565b600082825260208201905092915050565b7f496e7369676e69666963616e7420696e70757420616d6f756e74000000000000600082015250565b60006133d9601a83613392565b91506133e4826133a3565b602082019050919050565b60006020820190508181036000830152613408816133cc565b9050919050565b7f496e76616c696420706169722061646472657373000000000000000000000000600082015250565b6000613445601483613392565b91506134508261340f565b602082019050919050565b6000602082019050818103600083015261347481613438565b9050919050565b60008151905061348a81612a54565b92915050565b6000602082840312156134a6576134a5612a18565b5b60006134b48482850161347b565b91505092915050565b7f50616972206164647265737320646f6573206e6f7420636f72726573706f6e6460008201527f2077697468207069640000000000000000000000000000000000000000000000602082015250565b6000613519602983613392565b9150613524826134bd565b604082019050919050565b600060208201905081810360008301526135488161350c565b9050919050565b7f6465736972656420746f6b656e206e6f742070726573656e7420696e206c697160008201527f7569646974792070616972000000000000000000000000000000000000000000602082015250565b60006135ab602b83613392565b91506135b68261354f565b604082019050919050565b600060208201905081810360008301526135da8161359e565b9050919050565b7f4e487b7100000000000000000000000000000000000000000000000000000000600052604160045260246000fd5b7f4e487b7100000000000000000000000000000000000000000000000000000000600052603260045260246000fd5b60008151905061364e81612a8a565b92915050565b60006020828403121561366a57613669612a18565b5b60006136788482850161363f565b91505092915050565b600081519050919050565b600082825260208201905092915050565b6000819050602082019050919050565b6136b681612a42565b82525050565b60006136c883836136ad565b60208301905092915050565b6000602082019050919050565b60006136ec82613681565b6136f6818561368c565b93506137018361369d565b8060005b8381101561373257815161371988826136bc565b9750613724836136d4565b925050600181019050613705565b5085935050505092915050565b600060a0820190506137546000830188612f5e565b6137616020830187612f5e565b818103604083015261377381866136e1565b90506137826060830185612f6d565b61378f6080830184612f5e565b9695505050505050565b600080fd5b6000601f19601f8301169050919050565b6137b88261379e565b810181811067ffffffffffffffff821117156137d7576137d66135e1565b5b80604052505050565b60006137ea612a0e565b90506137f682826137af565b919050565b600067ffffffffffffffff821115613816576138156135e1565b5b602082029050602081019050919050565b600080fd5b600061383f61383a846137fb565b6137e0565b9050808382526020820190506020840283018581111561386257613861613827565b5b835b8181101561388b5780613877888261363f565b845260208401935050602081019050613864565b5050509392505050565b600082601f8301126138aa576138a9613799565b5b81516138ba84826020860161382c565b91505092915050565b6000602082840312156138d9576138d8612a18565b5b600082015167ffffffffffffffff8111156138f7576138f6612a1d565b5b61390384828501613895565b91505092915050565b7f496e70757420746f6b656e206e6f742070726573656e7420696e206c6971756960008201527f6469747920706169720000000000000000000000000000000000000000000000602082015250565b6000613968602983613392565b91506139738261390c565b604082019050919050565b600060208201905081810360008301526139978161395b565b9050919050565b60006dffffffffffffffffffffffffffff82169050919050565b6139c18161399e565b81146139cc57600080fd5b50565b6000815190506139de816139b8565b92915050565b600063ffffffff82169050919050565b6139fd816139e4565b8114613a0857600080fd5b50565b600081519050613a1a816139f4565b92915050565b600080600060608486031215613a3957613a38612a18565b5b6000613a47868287016139cf565b9350506020613a58868287016139cf565b9250506040613a6986828701613a0b565b9150509250925092565b6000606082019050613a886000830186612f5e565b613a956020830185612f5e565b613aa26040830184612f5e565b949350505050565b7f4c6971756964697479207061697220726573657276657320746f6f206c6f7700600082015250565b6000613ae0601f83613392565b9150613aeb82613aaa565b602082019050919050565b60006020820190508181036000830152613b0f81613ad3565b9050919050565b7f4e487b7100000000000000000000000000000000000000000000000000000000600052601160045260246000fd5b6000613b5082612a80565b9150613b5b83612a80565b925082821015613b6e57613b6d613b16565b5b828203905092915050565b6000819050919050565b6000613b9e613b99613b9484613b79565b612fb3565b612a80565b9050919050565b613bae81613b83565b82525050565b600061010082019050613bca600083018b612f6d565b613bd7602083018a612f6d565b613be46040830189612f5e565b613bf16060830188612f5e565b613bfe6080830187613ba5565b613c0b60a0830186613ba5565b613c1860c0830185612f6d565b613c2560e0830184612f5e565b9998505050505050505050565b600080600060608486031215613c4b57613c4a612a18565b5b6000613c598682870161363f565b9350506020613c6a8682870161363f565b9250506040613c7b8682870161363f565b9150509250925092565b6000606082019050613c9a6000830186612f6d565b613ca76020830185612f6d565b613cb46040830184612f5e565b949350505050565b600081519050919050565b600081905092915050565b60005b83811015613cf0578082015181840152602081019050613cd5565b83811115613cff576000848401525b50505050565b6000613d1082613cbc565b613d1a8185613cc7565b9350613d2a818560208601613cd2565b80840191505092915050565b6000613d428284613d05565b915081905092915050565b60008115159050919050565b613d6281613d4d565b8114613d6d57600080fd5b50565b600081519050613d7f81613d59565b92915050565b600060208284031215613d9b57613d9a612a18565b5b6000613da984828501613d70565b91505092915050565b7f5472616e7366657248656c7065723a205452414e534645525f46524f4d5f464160008201527f494c454400000000000000000000000000000000000000000000000000000000602082015250565b6000613e0e602483613392565b9150613e1982613db2565b604082019050919050565b60006020820190508181036000830152613e3d81613e01565b9050919050565b60008060408385031215613e5b57613e5a612a18565b5b6000613e698582860161363f565b9250506020613e7a8582860161363f565b9150509250929050565b7f50616e676f6c696e526f757465723a20494e53554646494349454e545f415f4160008201527f4d4f554e54000000000000000000000000000000000000000000000000000000602082015250565b6000613ee0602583613392565b9150613eeb82613e84565b604082019050919050565b60006020820190508181036000830152613f0f81613ed3565b9050919050565b7f50616e676f6c696e526f757465723a20494e53554646494349454e545f425f4160008201527f4d4f554e54000000000000000000000000000000000000000000000000000000602082015250565b6000613f72602583613392565b9150613f7d82613f16565b604082019050919050565b60006020820190508181036000830152613fa181613f65565b9050919050565b6000604082019050613fbd6000830185612f6d565b613fca6020830184612f6d565b9392505050565b6000613fdc82612a80565b91507fffffffffffffffffffffffffffffffffffffffffffffffffffffffffffffffff82141561400f5761400e613b16565b5b600182019050919050565b7f4e487b7100000000000000000000000000000000000000000000000000000000600052601260045260246000fd5b600061405482612a80565b915061405f83612a80565b92508261406f5761406e61401a565b5b828204905092915050565b600061408582612a80565b915061409083612a80565b9250827fffffffffffffffffffffffffffffffffffffffffffffffffffffffffffffffff038211156140c5576140c4613b16565b5b828201905092915050565b60006140db82612a80565b91506140e683612a80565b9250817fffffffffffffffffffffffffffffffffffffffffffffffffffffffffffffffff048311821515161561411f5761411e613b16565b5b828202905092915050565b7f5472616e7366657248656c7065723a20415641585f5452414e534645525f464160008201527f494c454400000000000000000000000000000000000000000000000000000000602082015250565b6000614186602483613392565b91506141918261412a565b604082019050919050565b600060208201905081810360008301526141b581614179565b9050919050565b60006040820190506141d16000830185612f6d565b6141de6020830184612f5e565b9392505050565b7f5472616e7366657248656c7065723a205452414e534645525f4641494c454400600082015250565b600061421b601f83613392565b9150614226826141e5565b602082019050919050565b6000602082019050818103600083015261424a8161420e565b9050919050565b7f5472616e7366657248656c7065723a20415050524f56455f4641494c45440000600082015250565b6000614287601e83613392565b915061429282614251565b602082019050919050565b600060208201905081810360008301526142b68161427a565b905091905056fea2646970667358221220e0626fae5d9fb887a96f0b7bd6535b7421a288d534e292761b9020112609442064736f6c634300080b0033",
  "linkReferences": {},
  "deployedLinkReferences": {}
}