{
  "_format": "hh-sol-artifact-1",
  "contractName": "Png",
  "sourceName": "contracts/pangolin-token/PNG.sol",
  "abi": [
    {
      "inputs": [
        {
          "internalType": "uint256",
          "name": "_maxSupply",
          "type": "uint256"
        },
        {
          "internalType": "uint256",
          "name": "initialSupply",
          "type": "uint256"
        },
        {
          "internalType": "string",
          "name": "_symbol",
          "type": "string"
        },
        {
          "internalType": "string",
          "name": "_name",
          "type": "string"
        }
      ],
      "payable": false,
      "stateMutability": "nonpayable",
      "type": "constructor"
    },
    {
      "anonymous": false,
      "inputs": [
        {
          "indexed": true,
          "internalType": "address",
          "name": "oldAdmin",
          "type": "address"
        },
        {
          "indexed": true,
          "internalType": "address",
          "name": "newAdmin",
          "type": "address"
        }
      ],
      "name": "AdminChanged",
      "type": "event"
    },
    {
      "anonymous": false,
      "inputs": [
        {
          "indexed": true,
          "internalType": "address",
          "name": "owner",
          "type": "address"
        },
        {
          "indexed": true,
          "internalType": "address",
          "name": "spender",
          "type": "address"
        },
        {
          "indexed": false,
          "internalType": "uint256",
          "name": "amount",
          "type": "uint256"
        }
      ],
      "name": "Approval",
      "type": "event"
    },
    {
      "anonymous": false,
      "inputs": [
        {
          "indexed": true,
          "internalType": "address",
          "name": "delegator",
          "type": "address"
        },
        {
          "indexed": true,
          "internalType": "address",
          "name": "fromDelegate",
          "type": "address"
        },
        {
          "indexed": true,
          "internalType": "address",
          "name": "toDelegate",
          "type": "address"
        }
      ],
      "name": "DelegateChanged",
      "type": "event"
    },
    {
      "anonymous": false,
      "inputs": [
        {
          "indexed": true,
          "internalType": "address",
          "name": "delegate",
          "type": "address"
        },
        {
          "indexed": false,
          "internalType": "uint256",
          "name": "previousBalance",
          "type": "uint256"
        },
        {
          "indexed": false,
          "internalType": "uint256",
          "name": "newBalance",
          "type": "uint256"
        }
      ],
      "name": "DelegateVotesChanged",
      "type": "event"
    },
    {
      "anonymous": false,
      "inputs": [],
      "name": "HardcapEnabled",
      "type": "event"
    },
    {
      "anonymous": false,
      "inputs": [
        {
          "indexed": false,
          "internalType": "uint256",
          "name": "oldMaxSupply",
          "type": "uint256"
        },
        {
          "indexed": false,
          "internalType": "uint256",
          "name": "newMaxSupply",
          "type": "uint256"
        }
      ],
      "name": "MaxSupplyChanged",
      "type": "event"
    },
    {
      "anonymous": false,
      "inputs": [
        {
          "indexed": true,
          "internalType": "address",
          "name": "oldMinter",
          "type": "address"
        },
        {
          "indexed": true,
          "internalType": "address",
          "name": "newMinter",
          "type": "address"
        }
      ],
      "name": "MinterChanged",
      "type": "event"
    },
    {
      "anonymous": false,
      "inputs": [
        {
          "indexed": true,
          "internalType": "address",
          "name": "from",
          "type": "address"
        },
        {
          "indexed": true,
          "internalType": "address",
          "name": "to",
          "type": "address"
        },
        {
          "indexed": false,
          "internalType": "uint256",
          "name": "amount",
          "type": "uint256"
        }
      ],
      "name": "Transfer",
      "type": "event"
    },
    {
      "constant": true,
      "inputs": [],
      "name": "DELEGATION_TYPEHASH",
      "outputs": [
        {
          "internalType": "bytes32",
          "name": "",
          "type": "bytes32"
        }
      ],
      "payable": false,
      "stateMutability": "view",
      "type": "function"
    },
    {
      "constant": true,
      "inputs": [],
      "name": "DOMAIN_TYPEHASH",
      "outputs": [
        {
          "internalType": "bytes32",
          "name": "",
          "type": "bytes32"
        }
      ],
      "payable": false,
      "stateMutability": "view",
      "type": "function"
    },
    {
      "constant": true,
      "inputs": [],
      "name": "PERMIT_TYPEHASH",
      "outputs": [
        {
          "internalType": "bytes32",
          "name": "",
          "type": "bytes32"
        }
      ],
      "payable": false,
      "stateMutability": "view",
      "type": "function"
    },
    {
      "constant": true,
      "inputs": [],
      "name": "admin",
      "outputs": [
        {
          "internalType": "address",
          "name": "",
          "type": "address"
        }
      ],
      "payable": false,
      "stateMutability": "view",
      "type": "function"
    },
    {
      "constant": true,
      "inputs": [
        {
          "internalType": "address",
          "name": "account",
          "type": "address"
        },
        {
          "internalType": "address",
          "name": "spender",
          "type": "address"
        }
      ],
      "name": "allowance",
      "outputs": [
        {
          "internalType": "uint256",
          "name": "",
          "type": "uint256"
        }
      ],
      "payable": false,
      "stateMutability": "view",
      "type": "function"
    },
    {
      "constant": false,
      "inputs": [
        {
          "internalType": "address",
          "name": "spender",
          "type": "address"
        },
        {
          "internalType": "uint256",
          "name": "rawAmount",
          "type": "uint256"
        }
      ],
      "name": "approve",
      "outputs": [
        {
          "internalType": "bool",
          "name": "",
          "type": "bool"
        }
      ],
      "payable": false,
      "stateMutability": "nonpayable",
      "type": "function"
    },
    {
      "constant": true,
      "inputs": [
        {
          "internalType": "address",
          "name": "account",
          "type": "address"
        }
      ],
      "name": "balanceOf",
      "outputs": [
        {
          "internalType": "uint256",
          "name": "",
          "type": "uint256"
        }
      ],
      "payable": false,
      "stateMutability": "view",
      "type": "function"
    },
    {
      "constant": false,
      "inputs": [
        {
          "internalType": "uint256",
          "name": "rawAmount",
          "type": "uint256"
        }
      ],
      "name": "burn",
      "outputs": [
        {
          "internalType": "bool",
          "name": "",
          "type": "bool"
        }
      ],
      "payable": false,
      "stateMutability": "nonpayable",
      "type": "function"
    },
    {
      "constant": false,
      "inputs": [
        {
          "internalType": "address",
          "name": "src",
          "type": "address"
        },
        {
          "internalType": "uint256",
          "name": "rawAmount",
          "type": "uint256"
        }
      ],
      "name": "burnFrom",
      "outputs": [
        {
          "internalType": "bool",
          "name": "",
          "type": "bool"
        }
      ],
      "payable": false,
      "stateMutability": "nonpayable",
      "type": "function"
    },
    {
      "constant": true,
      "inputs": [],
      "name": "burnedSupply",
      "outputs": [
        {
          "internalType": "uint256",
          "name": "",
          "type": "uint256"
        }
      ],
      "payable": false,
      "stateMutability": "view",
      "type": "function"
    },
    {
      "constant": true,
      "inputs": [
        {
          "internalType": "address",
          "name": "",
          "type": "address"
        },
        {
          "internalType": "uint32",
          "name": "",
          "type": "uint32"
        }
      ],
      "name": "checkpoints",
      "outputs": [
        {
          "internalType": "uint32",
          "name": "fromBlock",
          "type": "uint32"
        },
        {
          "internalType": "uint96",
          "name": "votes",
          "type": "uint96"
        }
      ],
      "payable": false,
      "stateMutability": "view",
      "type": "function"
    },
    {
      "constant": true,
      "inputs": [],
      "name": "decimals",
      "outputs": [
        {
          "internalType": "uint8",
          "name": "",
          "type": "uint8"
        }
      ],
      "payable": false,
      "stateMutability": "view",
      "type": "function"
    },
    {
      "constant": false,
      "inputs": [
        {
          "internalType": "address",
          "name": "delegatee",
          "type": "address"
        }
      ],
      "name": "delegate",
      "outputs": [],
      "payable": false,
      "stateMutability": "nonpayable",
      "type": "function"
    },
    {
      "constant": false,
      "inputs": [
        {
          "internalType": "address",
          "name": "delegatee",
          "type": "address"
        },
        {
          "internalType": "uint256",
          "name": "nonce",
          "type": "uint256"
        },
        {
          "internalType": "uint256",
          "name": "expiry",
          "type": "uint256"
        },
        {
          "internalType": "uint8",
          "name": "v",
          "type": "uint8"
        },
        {
          "internalType": "bytes32",
          "name": "r",
          "type": "bytes32"
        },
        {
          "internalType": "bytes32",
          "name": "s",
          "type": "bytes32"
        }
      ],
      "name": "delegateBySig",
      "outputs": [],
      "payable": false,
      "stateMutability": "nonpayable",
      "type": "function"
    },
    {
      "constant": true,
      "inputs": [
        {
          "internalType": "address",
          "name": "",
          "type": "address"
        }
      ],
      "name": "delegates",
      "outputs": [
        {
          "internalType": "address",
          "name": "",
          "type": "address"
        }
      ],
      "payable": false,
      "stateMutability": "view",
      "type": "function"
    },
    {
      "constant": false,
      "inputs": [],
      "name": "disableSetMaxSupply",
      "outputs": [
        {
          "internalType": "bool",
          "name": "",
          "type": "bool"
        }
      ],
      "payable": false,
      "stateMutability": "nonpayable",
      "type": "function"
    },
    {
      "constant": true,
      "inputs": [
        {
          "internalType": "address",
          "name": "account",
          "type": "address"
        }
      ],
      "name": "getCurrentVotes",
      "outputs": [
        {
          "internalType": "uint96",
          "name": "",
          "type": "uint96"
        }
      ],
      "payable": false,
      "stateMutability": "view",
      "type": "function"
    },
    {
      "constant": true,
      "inputs": [
        {
          "internalType": "address",
          "name": "account",
          "type": "address"
        },
        {
          "internalType": "uint256",
          "name": "blockNumber",
          "type": "uint256"
        }
      ],
      "name": "getPriorVotes",
      "outputs": [
        {
          "internalType": "uint96",
          "name": "",
          "type": "uint96"
        }
      ],
      "payable": false,
      "stateMutability": "view",
      "type": "function"
    },
    {
      "constant": true,
      "inputs": [],
      "name": "hardcapped",
      "outputs": [
        {
          "internalType": "bool",
          "name": "",
          "type": "bool"
        }
      ],
      "payable": false,
      "stateMutability": "view",
      "type": "function"
    },
    {
      "constant": true,
      "inputs": [],
      "name": "maxSupply",
      "outputs": [
        {
          "internalType": "uint256",
          "name": "",
          "type": "uint256"
        }
      ],
      "payable": false,
      "stateMutability": "view",
      "type": "function"
    },
    {
      "constant": false,
      "inputs": [
        {
          "internalType": "address",
          "name": "dst",
          "type": "address"
        },
        {
          "internalType": "uint256",
          "name": "rawAmount",
          "type": "uint256"
        }
      ],
      "name": "mint",
      "outputs": [
        {
          "internalType": "bool",
          "name": "",
          "type": "bool"
        }
      ],
      "payable": false,
      "stateMutability": "nonpayable",
      "type": "function"
    },
    {
      "constant": true,
      "inputs": [],
      "name": "minter",
      "outputs": [
        {
          "internalType": "address",
          "name": "",
          "type": "address"
        }
      ],
      "payable": false,
      "stateMutability": "view",
      "type": "function"
    },
    {
      "constant": true,
      "inputs": [],
      "name": "name",
      "outputs": [
        {
          "internalType": "string",
          "name": "",
          "type": "string"
        }
      ],
      "payable": false,
      "stateMutability": "view",
      "type": "function"
    },
    {
      "constant": true,
      "inputs": [
        {
          "internalType": "address",
          "name": "",
          "type": "address"
        }
      ],
      "name": "nonces",
      "outputs": [
        {
          "internalType": "uint256",
          "name": "",
          "type": "uint256"
        }
      ],
      "payable": false,
      "stateMutability": "view",
      "type": "function"
    },
    {
      "constant": true,
      "inputs": [
        {
          "internalType": "address",
          "name": "",
          "type": "address"
        }
      ],
      "name": "numCheckpoints",
      "outputs": [
        {
          "internalType": "uint32",
          "name": "",
          "type": "uint32"
        }
      ],
      "payable": false,
      "stateMutability": "view",
      "type": "function"
    },
    {
      "constant": false,
      "inputs": [
        {
          "internalType": "address",
          "name": "owner",
          "type": "address"
        },
        {
          "internalType": "address",
          "name": "spender",
          "type": "address"
        },
        {
          "internalType": "uint256",
          "name": "rawAmount",
          "type": "uint256"
        },
        {
          "internalType": "uint256",
          "name": "deadline",
          "type": "uint256"
        },
        {
          "internalType": "uint8",
          "name": "v",
          "type": "uint8"
        },
        {
          "internalType": "bytes32",
          "name": "r",
          "type": "bytes32"
        },
        {
          "internalType": "bytes32",
          "name": "s",
          "type": "bytes32"
        }
      ],
      "name": "permit",
      "outputs": [],
      "payable": false,
      "stateMutability": "nonpayable",
      "type": "function"
    },
    {
      "constant": false,
      "inputs": [
        {
          "internalType": "address",
          "name": "newAdmin",
          "type": "address"
        }
      ],
      "name": "setAdmin",
      "outputs": [
        {
          "internalType": "bool",
          "name": "",
          "type": "bool"
        }
      ],
      "payable": false,
      "stateMutability": "nonpayable",
      "type": "function"
    },
    {
      "constant": false,
      "inputs": [
        {
          "internalType": "uint256",
          "name": "newMaxSupply",
          "type": "uint256"
        }
      ],
      "name": "setMaxSupply",
      "outputs": [
        {
          "internalType": "bool",
          "name": "",
          "type": "bool"
        }
      ],
      "payable": false,
      "stateMutability": "nonpayable",
      "type": "function"
    },
    {
      "constant": false,
      "inputs": [
        {
          "internalType": "address",
          "name": "newMinter",
          "type": "address"
        }
      ],
      "name": "setMinter",
      "outputs": [
        {
          "internalType": "bool",
          "name": "",
          "type": "bool"
        }
      ],
      "payable": false,
      "stateMutability": "nonpayable",
      "type": "function"
    },
    {
      "constant": true,
      "inputs": [],
      "name": "symbol",
      "outputs": [
        {
          "internalType": "string",
          "name": "",
          "type": "string"
        }
      ],
      "payable": false,
      "stateMutability": "view",
      "type": "function"
    },
    {
      "constant": true,
      "inputs": [],
      "name": "totalSupply",
      "outputs": [
        {
          "internalType": "uint256",
          "name": "",
          "type": "uint256"
        }
      ],
      "payable": false,
      "stateMutability": "view",
      "type": "function"
    },
    {
      "constant": false,
      "inputs": [
        {
          "internalType": "address",
          "name": "dst",
          "type": "address"
        },
        {
          "internalType": "uint256",
          "name": "rawAmount",
          "type": "uint256"
        }
      ],
      "name": "transfer",
      "outputs": [
        {
          "internalType": "bool",
          "name": "",
          "type": "bool"
        }
      ],
      "payable": false,
      "stateMutability": "nonpayable",
      "type": "function"
    },
    {
      "constant": false,
      "inputs": [
        {
          "internalType": "address",
          "name": "src",
          "type": "address"
        },
        {
          "internalType": "address",
          "name": "dst",
          "type": "address"
        },
        {
          "internalType": "uint256",
          "name": "rawAmount",
          "type": "uint256"
        }
      ],
      "name": "transferFrom",
      "outputs": [
        {
          "internalType": "bool",
          "name": "",
          "type": "bool"
        }
      ],
      "payable": false,
      "stateMutability": "nonpayable",
      "type": "function"
    }
  ],
  "bytecode": "0x60806040523480156200001157600080fd5b50604051620061fc380380620061fc833981810160405262000037919081019062000d0c565b8360048190555033600260006101000a81548173ffffffffffffffffffffffffffffffffffffffff021916908373ffffffffffffffffffffffffffffffffffffffff160217905550620000b3600260009054906101000a900473ffffffffffffffffffffffffffffffffffffffff1684620000ef60201b60201c565b8160019080519060200190620000cb92919062000bea565b508060009080519060200190620000e492919062000bea565b5050505050620010f0565b600073ffffffffffffffffffffffffffffffffffffffff168273ffffffffffffffffffffffffffffffffffffffff16141562000162576040517f08c379a0000000000000000000000000000000000000000000000000000000008152600401620001599062000f54565b60405180910390fd5b62000189600554826bffffffffffffffffffffffff166200042660201b620033f51760201c565b60058190555062000212600960008473ffffffffffffffffffffffffffffffffffffffff1673ffffffffffffffffffffffffffffffffffffffff16815260200190815260200160002060009054906101000a90046bffffffffffffffffffffffff1682604051806060016040528060278152602001620061ae602791396200047e60201b60201c565b600960008473ffffffffffffffffffffffffffffffffffffffff1673ffffffffffffffffffffffffffffffffffffffff16815260200190815260200160002060006101000a8154816bffffffffffffffffffffffff02191690836bffffffffffffffffffffffff1602179055508173ffffffffffffffffffffffffffffffffffffffff16600073ffffffffffffffffffffffffffffffffffffffff167fddf252ad1be2c89b69c2b068fc378daa952ba7f163c4a11628f55a4df523b3ef83604051620002df919062000f98565b60405180910390a3600454600554111562000331576040517f08c379a0000000000000000000000000000000000000000000000000000000008152600401620003289062000f76565b60405180910390fd5b81600a60008473ffffffffffffffffffffffffffffffffffffffff1673ffffffffffffffffffffffffffffffffffffffff16815260200190815260200160002060006101000a81548173ffffffffffffffffffffffffffffffffffffffff021916908373ffffffffffffffffffffffffffffffffffffffff160217905550620004226000600a60008573ffffffffffffffffffffffffffffffffffffffff1673ffffffffffffffffffffffffffffffffffffffff16815260200190815260200160002060009054906101000a900473ffffffffffffffffffffffffffffffffffffffff1683620004f760201b60201c565b5050565b60008082840190508381101562000474576040517f08c379a00000000000000000000000000000000000000000000000000000000081526004016200046b9062000f32565b60405180910390fd5b8091505092915050565b6000808385019050846bffffffffffffffffffffffff16816bffffffffffffffffffffffff1610158390620004eb576040517f08c379a0000000000000000000000000000000000000000000000000000000008152600401620004e2919062000f0e565b60405180910390fd5b50809150509392505050565b8173ffffffffffffffffffffffffffffffffffffffff168373ffffffffffffffffffffffffffffffffffffffff16141580156200054257506000816bffffffffffffffffffffffff16115b156200081757600073ffffffffffffffffffffffffffffffffffffffff168373ffffffffffffffffffffffffffffffffffffffff1614620006af576000600c60008573ffffffffffffffffffffffffffffffffffffffff1673ffffffffffffffffffffffffffffffffffffffff16815260200190815260200160002060009054906101000a900463ffffffff1690506000808263ffffffff1611620005e957600062000665565b600b60008673ffffffffffffffffffffffffffffffffffffffff1673ffffffffffffffffffffffffffffffffffffffff16815260200190815260200160002060006001840363ffffffff1663ffffffff16815260200190815260200160002060000160049054906101000a90046bffffffffffffffffffffffff165b90506000620006958285604051806060016040528060278152602001620061d5602791396200081c60201b60201c565b9050620006ab868484846200089060201b60201c565b5050505b600073ffffffffffffffffffffffffffffffffffffffff168273ffffffffffffffffffffffffffffffffffffffff161462000816576000600c60008473ffffffffffffffffffffffffffffffffffffffff1673ffffffffffffffffffffffffffffffffffffffff16815260200190815260200160002060009054906101000a900463ffffffff1690506000808263ffffffff161162000750576000620007cc565b600b60008573ffffffffffffffffffffffffffffffffffffffff1673ffffffffffffffffffffffffffffffffffffffff16815260200190815260200160002060006001840363ffffffff1663ffffffff16815260200190815260200160002060000160049054906101000a90046bffffffffffffffffffffffff165b90506000620007fc828560405180606001604052806026815260200162006188602691396200047e60201b60201c565b905062000812858484846200089060201b60201c565b5050505b5b505050565b6000836bffffffffffffffffffffffff16836bffffffffffffffffffffffff161115829062000883576040517f08c379a00000000000000000000000000000000000000000000000000000000081526004016200087a919062000f0e565b60405180910390fd5b5082840390509392505050565b6000620008bd43604051806060016040528060338152602001620061556033913962000b9160201b60201c565b905060008463ffffffff161180156200095357508063ffffffff16600b60008773ffffffffffffffffffffffffffffffffffffffff1673ffffffffffffffffffffffffffffffffffffffff16815260200190815260200160002060006001870363ffffffff1663ffffffff16815260200190815260200160002060000160009054906101000a900463ffffffff1663ffffffff16145b15620009f05781600b60008773ffffffffffffffffffffffffffffffffffffffff1673ffffffffffffffffffffffffffffffffffffffff16815260200190815260200160002060006001870363ffffffff1663ffffffff16815260200190815260200160002060000160046101000a8154816bffffffffffffffffffffffff02191690836bffffffffffffffffffffffff16021790555062000b38565b60405180604001604052808263ffffffff168152602001836bffffffffffffffffffffffff16815250600b60008773ffffffffffffffffffffffffffffffffffffffff1673ffffffffffffffffffffffffffffffffffffffff16815260200190815260200160002060008663ffffffff1663ffffffff16815260200190815260200160002060008201518160000160006101000a81548163ffffffff021916908363ffffffff16021790555060208201518160000160046101000a8154816bffffffffffffffffffffffff02191690836bffffffffffffffffffffffff16021790555090505060018401600c60008773ffffffffffffffffffffffffffffffffffffffff1673ffffffffffffffffffffffffffffffffffffffff16815260200190815260200160002060006101000a81548163ffffffff021916908363ffffffff1602179055505b8473ffffffffffffffffffffffffffffffffffffffff167fdec2bacdd2f05b59de34da9b523dff8be42e5e38e818c82fdb0bae774387a724848460405162000b8292919062000fb5565b60405180910390a25050505050565b60006401000000008310829062000be0576040517f08c379a000000000000000000000000000000000000000000000000000000000815260040162000bd7919062000f0e565b60405180910390fd5b5082905092915050565b828054600181600116156101000203166002900490600052602060002090601f016020900481019282601f1062000c2d57805160ff191683800117855562000c5e565b8280016001018555821562000c5e579182015b8281111562000c5d57825182559160200191906001019062000c40565b5b50905062000c6d919062000c71565b5090565b62000c9691905b8082111562000c9257600081600090555060010162000c78565b5090565b90565b600082601f83011262000cab57600080fd5b815162000cc262000cbc8262001010565b62000fe2565b9150808252602083016020830185838301111562000cdf57600080fd5b62000cec8382846200108f565b50505092915050565b60008151905062000d0681620010d6565b92915050565b6000806000806080858703121562000d2357600080fd5b600062000d338782880162000cf5565b945050602062000d468782880162000cf5565b935050604085015167ffffffffffffffff81111562000d6457600080fd5b62000d728782880162000c99565b925050606085015167ffffffffffffffff81111562000d9057600080fd5b62000d9e8782880162000c99565b91505092959194509250565b600062000db7826200103d565b62000dc3818562001048565b935062000dd58185602086016200108f565b62000de081620010c5565b840191505092915050565b600062000dfa601b8362001048565b91507f536166654d6174683a206164646974696f6e206f766572666c6f7700000000006000830152602082019050919050565b600062000e3c60318362001048565b91507f506e673a3a5f6d696e74546f6b656e733a2063616e6e6f74206d696e7420746f60008301527f20746865207a65726f20616464726573730000000000000000000000000000006020830152604082019050919050565b600062000ea460308362001048565b91507f506e673a3a5f6d696e74546f6b656e733a206d696e7420726573756c7420657860008301527f6365656473206d617820737570706c79000000000000000000000000000000006020830152604082019050919050565b62000f08816200107b565b82525050565b6000602082019050818103600083015262000f2a818462000daa565b905092915050565b6000602082019050818103600083015262000f4d8162000deb565b9050919050565b6000602082019050818103600083015262000f6f8162000e2d565b9050919050565b6000602082019050818103600083015262000f918162000e95565b9050919050565b600060208201905062000faf600083018462000efd565b92915050565b600060408201905062000fcc600083018562000efd565b62000fdb602083018462000efd565b9392505050565b6000604051905081810181811067ffffffffffffffff821117156200100657600080fd5b8060405250919050565b600067ffffffffffffffff8211156200102857600080fd5b601f19601f8301169050602081019050919050565b600081519050919050565b600082825260208201905092915050565b6000819050919050565b60006bffffffffffffffffffffffff82169050919050565b6000620010888262001063565b9050919050565b60005b83811015620010af57808201518184015260208101905062001092565b83811115620010bf576000848401525b50505050565b6000601f19601f8301169050919050565b620010e18162001059565b8114620010ed57600080fd5b50565b61505580620011006000396000f3fe608060405234801561001057600080fd5b50600436106101fb5760003560e01c806370a082311161011a578063c3cda520116100ad578063dd62ed3e1161007c578063dd62ed3e1461063e578063e7a324dc1461066e578063f1127ed81461068c578063f851a440146106bd578063fca3b5aa146106db576101fb565b8063c3cda520146105ca578063d505accf146105e6578063d5abeb0114610602578063d659caa214610620576101fb565b80637ecebe00116100e95780637ecebe001461051c57806395d89b411461054c578063a9059cbb1461056a578063b4b5ea571461059a576101fb565b806370a082311461046e578063782d6fe11461049e57806379cc6790146104ce5780637ae15e64146104fe576101fb565b806340c10f19116101925780635c19a95c116101615780635c19a95c146103c25780636f8b44b0146103de5780636fcfff451461040e578063704b6c021461043e576101fb565b806340c10f191461031457806342966c681461034457806355d0a1d014610374578063587cde1e14610392576101fb565b806320606b70116101ce57806320606b701461028a57806323b872dd146102a857806330adf81f146102d8578063313ce567146102f6576101fb565b806306fdde0314610200578063075461721461021e578063095ea7b31461023c57806318160ddd1461026c575b600080fd5b61020861070b565b60405161021591906147d4565b60405180910390f35b6102266107a9565b6040516102339190614653565b60405180910390f35b61025660048036036102519190810190613a21565b6107cf565b604051610263919061466e565b60405180910390f35b610274610962565b6040516102819190614ab8565b60405180910390f35b610292610968565b60405161029f9190614689565b60405180910390f35b6102c260048036036102bd9190810190613934565b61097f565b6040516102cf919061466e565b60405180910390f35b6102e0610c13565b6040516102ed9190614689565b60405180910390f35b6102fe610c2a565b60405161030b9190614b40565b60405180910390f35b61032e60048036036103299190810190613a21565b610c2f565b60405161033b919061466e565b60405180910390f35b61035e60048036036103599190810190613b22565b610d57565b60405161036b919061466e565b60405180910390f35b61037c610d92565b6040516103899190614ab8565b60405180910390f35b6103ac60048036036103a791908101906138cf565b610d98565b6040516103b99190614653565b60405180910390f35b6103dc60048036036103d791908101906138cf565b610dcb565b005b6103f860048036036103f39190810190613b22565b610dd8565b604051610405919061466e565b60405180910390f35b610428600480360361042391908101906138cf565b610f6d565b6040516104359190614afc565b60405180910390f35b610458600480360361045391908101906138cf565b610f90565b604051610465919061466e565b60405180910390f35b610488600480360361048391908101906138cf565b611158565b6040516104959190614ab8565b60405180910390f35b6104b860048036036104b39190810190613a21565b6111c7565b6040516104c59190614b76565b60405180910390f35b6104e860048036036104e39190810190613a21565b6115da565b6040516104f5919061466e565b60405180910390f35b61050661186c565b604051610513919061466e565b60405180910390f35b610536600480360361053191908101906138cf565b61194c565b6040516105439190614ab8565b60405180910390f35b610554611964565b60405161056191906147d4565b60405180910390f35b610584600480360361057f9190810190613a21565b611a02565b604051610591919061466e565b60405180910390f35b6105b460048036036105af91908101906138cf565b611a3f565b6040516105c19190614b76565b60405180910390f35b6105e460048036036105df9190810190613a5d565b611b2d565b005b61060060048036036105fb9190810190613983565b611daa565b005b61060a6121d6565b6040516106179190614ab8565b60405180910390f35b6106286121dc565b604051610635919061466e565b60405180910390f35b610658600480360361065391908101906138f8565b6121ef565b6040516106659190614ab8565b60405180910390f35b61067661229c565b6040516106839190614689565b60405180910390f35b6106a660048036036106a19190810190613ae6565b6122b3565b6040516106b4929190614b17565b60405180910390f35b6106c561230c565b6040516106d29190614653565b60405180910390f35b6106f560048036036106f091908101906138cf565b612332565b604051610702919061466e565b60405180910390f35b60008054600181600116156101000203166002900480601f0160208091040260200160405190810160405280929190818152602001828054600181600116156101000203166002900480156107a15780601f10610776576101008083540402835291602001916107a1565b820191906000526020600020905b81548152906001019060200180831161078457829003601f168201915b505050505081565b600360009054906101000a900473ffffffffffffffffffffffffffffffffffffffff1681565b6000807fffffffffffffffffffffffffffffffffffffffffffffffffffffffffffffffff831415610822577fffffffffffffffffffffffffffffffffffffffffffffffffffffffffffffffff9050610847565b61084483604051806060016040528060248152602001614ef66024913961248a565b90505b80600860003373ffffffffffffffffffffffffffffffffffffffff1673ffffffffffffffffffffffffffffffffffffffff16815260200190815260200160002060008673ffffffffffffffffffffffffffffffffffffffff1673ffffffffffffffffffffffffffffffffffffffff16815260200190815260200160002060006101000a8154816bffffffffffffffffffffffff02191690836bffffffffffffffffffffffff1602179055508373ffffffffffffffffffffffffffffffffffffffff163373ffffffffffffffffffffffffffffffffffffffff167f8c5be1e5ebec7d5bd14f71427d1e84f3dd0314c0f7b2291e5b200ac8c7c3b9258360405161094f9190614b5b565b60405180910390a3600191505092915050565b60055481565b60405161097490614629565b604051809103902081565b6000803390506000600860008773ffffffffffffffffffffffffffffffffffffffff1673ffffffffffffffffffffffffffffffffffffffff16815260200190815260200160002060008373ffffffffffffffffffffffffffffffffffffffff1673ffffffffffffffffffffffffffffffffffffffff16815260200190815260200160002060009054906101000a90046bffffffffffffffffffffffff1690506000610a4285604051806060016040528060248152602001614ef66024913961248a565b90508673ffffffffffffffffffffffffffffffffffffffff168373ffffffffffffffffffffffffffffffffffffffff1614158015610abc57507fffffffffffffffffffffffffffffffffffffffffffffffffffffffffffffffff6bffffffffffffffffffffffff16826bffffffffffffffffffffffff1614155b15610bfa576000610ae683836040518060600160405280603c8152602001614d94603c91396124e8565b905080600860008a73ffffffffffffffffffffffffffffffffffffffff1673ffffffffffffffffffffffffffffffffffffffff16815260200190815260200160002060008673ffffffffffffffffffffffffffffffffffffffff1673ffffffffffffffffffffffffffffffffffffffff16815260200190815260200160002060006101000a8154816bffffffffffffffffffffffff02191690836bffffffffffffffffffffffff1602179055508373ffffffffffffffffffffffffffffffffffffffff168873ffffffffffffffffffffffffffffffffffffffff167f8c5be1e5ebec7d5bd14f71427d1e84f3dd0314c0f7b2291e5b200ac8c7c3b92583604051610bf09190614b5b565b60405180910390a3505b610c05878783612559565b600193505050509392505050565b604051610c1f90614614565b604051809103902081565b601281565b6000600360009054906101000a900473ffffffffffffffffffffffffffffffffffffffff1673ffffffffffffffffffffffffffffffffffffffff163373ffffffffffffffffffffffffffffffffffffffff16148015610cdd5750600073ffffffffffffffffffffffffffffffffffffffff16600360009054906101000a900473ffffffffffffffffffffffffffffffffffffffff1673ffffffffffffffffffffffffffffffffffffffff1614155b610d1c576040517f08c379a0000000000000000000000000000000000000000000000000000000008152600401610d1390614918565b60405180910390fd5b6000610d4083604051806060016040528060218152602001614e8c6021913961248a565b9050610d4c848261293a565b600191505092915050565b600080610d7c83604051806060016040528060218152602001614ff26021913961248a565b9050610d883382612c4b565b6001915050919050565b60065481565b600a6020528060005260406000206000915054906101000a900473ffffffffffffffffffffffffffffffffffffffff1681565b610dd53382612eb7565b50565b6000600760009054906101000a900460ff1615610e2a576040517f08c379a0000000000000000000000000000000000000000000000000000000008152600401610e2190614a18565b60405180910390fd5b600260009054906101000a900473ffffffffffffffffffffffffffffffffffffffff1673ffffffffffffffffffffffffffffffffffffffff163373ffffffffffffffffffffffffffffffffffffffff1614610eba576040517f08c379a0000000000000000000000000000000000000000000000000000000008152600401610eb1906148b8565b60405180910390fd5b600554821015610eff576040517f08c379a0000000000000000000000000000000000000000000000000000000008152600401610ef690614a78565b60405180910390fd5b610f2182604051806060016040528060318152602001614f1a6031913961248a565b507fa626f93317e2474b716846a09cf0e28aacb96052643b252fe97704208fecf9b560045483604051610f55929190614ad3565b60405180910390a18160048190555060019050919050565b600c6020528060005260406000206000915054906101000a900463ffffffff1681565b6000600260009054906101000a900473ffffffffffffffffffffffffffffffffffffffff1673ffffffffffffffffffffffffffffffffffffffff163373ffffffffffffffffffffffffffffffffffffffff1614611022576040517f08c379a000000000000000000000000000000000000000000000000000000000815260040161101990614a38565b60405180910390fd5b600073ffffffffffffffffffffffffffffffffffffffff168273ffffffffffffffffffffffffffffffffffffffff161415611092576040517f08c379a000000000000000000000000000000000000000000000000000000000815260040161108990614858565b60405180910390fd5b8173ffffffffffffffffffffffffffffffffffffffff16600260009054906101000a900473ffffffffffffffffffffffffffffffffffffffff1673ffffffffffffffffffffffffffffffffffffffff167f7e644d79422f17c01e4894b5f4f588d331ebfa28653d42ae832dc59e38c9798f60405160405180910390a381600260006101000a81548173ffffffffffffffffffffffffffffffffffffffff021916908373ffffffffffffffffffffffffffffffffffffffff16021790555060019050919050565b6000600960008373ffffffffffffffffffffffffffffffffffffffff1673ffffffffffffffffffffffffffffffffffffffff16815260200190815260200160002060009054906101000a90046bffffffffffffffffffffffff166bffffffffffffffffffffffff169050919050565b600043821061120b576040517f08c379a000000000000000000000000000000000000000000000000000000000815260040161120290614978565b60405180910390fd5b6000600c60008573ffffffffffffffffffffffffffffffffffffffff1673ffffffffffffffffffffffffffffffffffffffff16815260200190815260200160002060009054906101000a900463ffffffff16905060008163ffffffff1614156112785760009150506115d4565b82600b60008673ffffffffffffffffffffffffffffffffffffffff1673ffffffffffffffffffffffffffffffffffffffff16815260200190815260200160002060006001840363ffffffff1663ffffffff16815260200190815260200160002060000160009054906101000a900463ffffffff1663ffffffff161161137a57600b60008573ffffffffffffffffffffffffffffffffffffffff1673ffffffffffffffffffffffffffffffffffffffff16815260200190815260200160002060006001830363ffffffff1663ffffffff16815260200190815260200160002060000160049054906101000a90046bffffffffffffffffffffffff169150506115d4565b82600b60008673ffffffffffffffffffffffffffffffffffffffff1673ffffffffffffffffffffffffffffffffffffffff16815260200190815260200160002060008063ffffffff16815260200190815260200160002060000160009054906101000a900463ffffffff1663ffffffff1611156113fb5760009150506115d4565b600080905060006001830390505b8163ffffffff168163ffffffff161115611556576000600283830363ffffffff168161143157fe5b048203905061143e613838565b600b60008973ffffffffffffffffffffffffffffffffffffffff1673ffffffffffffffffffffffffffffffffffffffff16815260200190815260200160002060008363ffffffff1663ffffffff1681526020019081526020016000206040518060400160405290816000820160009054906101000a900463ffffffff1663ffffffff1663ffffffff1681526020016000820160049054906101000a90046bffffffffffffffffffffffff166bffffffffffffffffffffffff166bffffffffffffffffffffffff1681525050905086816000015163ffffffff16141561152e578060200151955050505050506115d4565b86816000015163ffffffff1610156115485781935061154f565b6001820392505b5050611409565b600b60008773ffffffffffffffffffffffffffffffffffffffff1673ffffffffffffffffffffffffffffffffffffffff16815260200190815260200160002060008363ffffffff1663ffffffff16815260200190815260200160002060000160049054906101000a90046bffffffffffffffffffffffff1693505050505b92915050565b6000803390506000600860008673ffffffffffffffffffffffffffffffffffffffff1673ffffffffffffffffffffffffffffffffffffffff16815260200190815260200160002060008373ffffffffffffffffffffffffffffffffffffffff1673ffffffffffffffffffffffffffffffffffffffff16815260200190815260200160002060009054906101000a90046bffffffffffffffffffffffff169050600061169d85604051806060016040528060258152602001614f996025913961248a565b90508573ffffffffffffffffffffffffffffffffffffffff168373ffffffffffffffffffffffffffffffffffffffff161415801561171757507fffffffffffffffffffffffffffffffffffffffffffffffffffffffffffffffff6bffffffffffffffffffffffff16826bffffffffffffffffffffffff1614155b156118555760006117418383604051806060016040528060348152602001614fbe603491396124e8565b905080600860008973ffffffffffffffffffffffffffffffffffffffff1673ffffffffffffffffffffffffffffffffffffffff16815260200190815260200160002060008673ffffffffffffffffffffffffffffffffffffffff1673ffffffffffffffffffffffffffffffffffffffff16815260200190815260200160002060006101000a8154816bffffffffffffffffffffffff02191690836bffffffffffffffffffffffff1602179055508373ffffffffffffffffffffffffffffffffffffffff168773ffffffffffffffffffffffffffffffffffffffff167f8c5be1e5ebec7d5bd14f71427d1e84f3dd0314c0f7b2291e5b200ac8c7c3b9258360405161184b9190614b5b565b60405180910390a3505b61185f8682612c4b565b6001935050505092915050565b6000600260009054906101000a900473ffffffffffffffffffffffffffffffffffffffff1673ffffffffffffffffffffffffffffffffffffffff163373ffffffffffffffffffffffffffffffffffffffff16146118fe576040517f08c379a00000000000000000000000000000000000000000000000000000000081526004016118f5906149d8565b60405180910390fd5b6001600760006101000a81548160ff0219169083151502179055507fbb322f71c1250fff4e464fcce8431d703933643e2e50911b08f7e1690827560260405160405180910390a16001905090565b600d6020528060005260406000206000915090505481565b60018054600181600116156101000203166002900480601f0160208091040260200160405190810160405280929190818152602001828054600181600116156101000203166002900480156119fa5780601f106119cf576101008083540402835291602001916119fa565b820191906000526020600020905b8154815290600101906020018083116119dd57829003601f168201915b505050505081565b600080611a2783604051806060016040528060258152602001614e326025913961248a565b9050611a34338583612559565b600191505092915050565b600080600c60008473ffffffffffffffffffffffffffffffffffffffff1673ffffffffffffffffffffffffffffffffffffffff16815260200190815260200160002060009054906101000a900463ffffffff16905060008163ffffffff1611611aa9576000611b25565b600b60008473ffffffffffffffffffffffffffffffffffffffff1673ffffffffffffffffffffffffffffffffffffffff16815260200190815260200160002060006001830363ffffffff1663ffffffff16815260200190815260200160002060000160049054906101000a90046bffffffffffffffffffffffff165b915050919050565b6000604051611b3b90614629565b60405180910390206000604051611b5291906145c6565b6040518091039020611b62613077565b30604051602001611b76949392919061474a565b6040516020818303038152906040528051906020012090506000604051611b9c9061463e565b6040518091039020888888604051602001611bba9493929190614705565b60405160208183030381529060405280519060200120905060008282604051602001611be79291906145dd565b604051602081830303815290604052805190602001209050600060018288888860405160008152602001604052604051611c24949392919061478f565b6020604051602081039080840390855afa158015611c46573d6000803e3d6000fd5b505050602060405103519050600073ffffffffffffffffffffffffffffffffffffffff168173ffffffffffffffffffffffffffffffffffffffff161415611cc2576040517f08c379a0000000000000000000000000000000000000000000000000000000008152600401611cb990614838565b60405180910390fd5b600d60008273ffffffffffffffffffffffffffffffffffffffff1673ffffffffffffffffffffffffffffffffffffffff1681526020019081526020016000206000815480929190600101919050558914611d51576040517f08c379a0000000000000000000000000000000000000000000000000000000008152600401611d4890614a98565b60405180910390fd5b87421115611d94576040517f08c379a0000000000000000000000000000000000000000000000000000000008152600401611d8b906149f8565b60405180910390fd5b611d9e818b612eb7565b50505050505050505050565b60007fffffffffffffffffffffffffffffffffffffffffffffffffffffffffffffffff861415611dfc577fffffffffffffffffffffffffffffffffffffffffffffffffffffffffffffffff9050611e21565b611e1e86604051806060016040528060238152602001614ed36023913961248a565b90505b6000604051611e2f90614629565b60405180910390206000604051611e4691906145c6565b6040518091039020611e56613077565b30604051602001611e6a949392919061474a565b6040516020818303038152906040528051906020012090506000604051611e9090614614565b60405180910390208a8a8a600d60008f73ffffffffffffffffffffffffffffffffffffffff1673ffffffffffffffffffffffffffffffffffffffff1681526020019081526020016000206000815480929190600101919050558b604051602001611eff969594939291906146a4565b60405160208183030381529060405280519060200120905060008282604051602001611f2c9291906145dd565b604051602081830303815290604052805190602001209050600060018289898960405160008152602001604052604051611f69949392919061478f565b6020604051602081039080840390855afa158015611f8b573d6000803e3d6000fd5b505050602060405103519050600073ffffffffffffffffffffffffffffffffffffffff168173ffffffffffffffffffffffffffffffffffffffff161415612007576040517f08c379a0000000000000000000000000000000000000000000000000000000008152600401611ffe90614818565b60405180910390fd5b8b73ffffffffffffffffffffffffffffffffffffffff168173ffffffffffffffffffffffffffffffffffffffff1614612075576040517f08c379a000000000000000000000000000000000000000000000000000000000815260040161206c90614998565b60405180910390fd5b884211156120b8576040517f08c379a00000000000000000000000000000000000000000000000000000000081526004016120af906149b8565b60405180910390fd5b84600860008e73ffffffffffffffffffffffffffffffffffffffff1673ffffffffffffffffffffffffffffffffffffffff16815260200190815260200160002060008d73ffffffffffffffffffffffffffffffffffffffff1673ffffffffffffffffffffffffffffffffffffffff16815260200190815260200160002060006101000a8154816bffffffffffffffffffffffff02191690836bffffffffffffffffffffffff1602179055508a73ffffffffffffffffffffffffffffffffffffffff168c73ffffffffffffffffffffffffffffffffffffffff167f8c5be1e5ebec7d5bd14f71427d1e84f3dd0314c0f7b2291e5b200ac8c7c3b925876040516121c09190614b5b565b60405180910390a3505050505050505050505050565b60045481565b600760009054906101000a900460ff1681565b6000600860008473ffffffffffffffffffffffffffffffffffffffff1673ffffffffffffffffffffffffffffffffffffffff16815260200190815260200160002060008373ffffffffffffffffffffffffffffffffffffffff1673ffffffffffffffffffffffffffffffffffffffff16815260200190815260200160002060009054906101000a90046bffffffffffffffffffffffff166bffffffffffffffffffffffff16905092915050565b6040516122a89061463e565b604051809103902081565b600b602052816000526040600020602052806000526040600020600091509150508060000160009054906101000a900463ffffffff16908060000160049054906101000a90046bffffffffffffffffffffffff16905082565b600260009054906101000a900473ffffffffffffffffffffffffffffffffffffffff1681565b6000600260009054906101000a900473ffffffffffffffffffffffffffffffffffffffff1673ffffffffffffffffffffffffffffffffffffffff163373ffffffffffffffffffffffffffffffffffffffff16146123c4576040517f08c379a00000000000000000000000000000000000000000000000000000000081526004016123bb90614958565b60405180910390fd5b8173ffffffffffffffffffffffffffffffffffffffff16600360009054906101000a900473ffffffffffffffffffffffffffffffffffffffff1673ffffffffffffffffffffffffffffffffffffffff167f3b0007eb941cf645526cbb3a4fdaecda9d28ce4843167d9263b536a1f1edc0f660405160405180910390a381600360006101000a81548173ffffffffffffffffffffffffffffffffffffffff021916908373ffffffffffffffffffffffffffffffffffffffff16021790555060019050919050565b60006c01000000000000000000000000831082906124de576040517f08c379a00000000000000000000000000000000000000000000000000000000081526004016124d591906147f6565b60405180910390fd5b5082905092915050565b6000836bffffffffffffffffffffffff16836bffffffffffffffffffffffff161115829061254c576040517f08c379a000000000000000000000000000000000000000000000000000000000815260040161254391906147f6565b60405180910390fd5b5082840390509392505050565b600073ffffffffffffffffffffffffffffffffffffffff168373ffffffffffffffffffffffffffffffffffffffff1614156125c9576040517f08c379a00000000000000000000000000000000000000000000000000000000081526004016125c090614878565b60405180910390fd5b600073ffffffffffffffffffffffffffffffffffffffff168273ffffffffffffffffffffffffffffffffffffffff161415612639576040517f08c379a0000000000000000000000000000000000000000000000000000000008152600401612630906148f8565b60405180910390fd5b6126b3600960008573ffffffffffffffffffffffffffffffffffffffff1673ffffffffffffffffffffffffffffffffffffffff16815260200190815260200160002060009054906101000a90046bffffffffffffffffffffffff1682604051806060016040528060358152602001614e57603591396124e8565b600960008573ffffffffffffffffffffffffffffffffffffffff1673ffffffffffffffffffffffffffffffffffffffff16815260200190815260200160002060006101000a8154816bffffffffffffffffffffffff02191690836bffffffffffffffffffffffff16021790555061279a600960008473ffffffffffffffffffffffffffffffffffffffff1673ffffffffffffffffffffffffffffffffffffffff16815260200190815260200160002060009054906101000a90046bffffffffffffffffffffffff16826040518060600160405280602f8152602001614dd0602f9139613084565b600960008473ffffffffffffffffffffffffffffffffffffffff1673ffffffffffffffffffffffffffffffffffffffff16815260200190815260200160002060006101000a8154816bffffffffffffffffffffffff02191690836bffffffffffffffffffffffff1602179055508173ffffffffffffffffffffffffffffffffffffffff168373ffffffffffffffffffffffffffffffffffffffff167fddf252ad1be2c89b69c2b068fc378daa952ba7f163c4a11628f55a4df523b3ef836040516128649190614b5b565b60405180910390a3612935600a60008573ffffffffffffffffffffffffffffffffffffffff1673ffffffffffffffffffffffffffffffffffffffff16815260200190815260200160002060009054906101000a900473ffffffffffffffffffffffffffffffffffffffff16600a60008573ffffffffffffffffffffffffffffffffffffffff1673ffffffffffffffffffffffffffffffffffffffff16815260200190815260200160002060009054906101000a900473ffffffffffffffffffffffffffffffffffffffff16836130fa565b505050565b600073ffffffffffffffffffffffffffffffffffffffff168273ffffffffffffffffffffffffffffffffffffffff1614156129aa576040517f08c379a00000000000000000000000000000000000000000000000000000000081526004016129a1906148d8565b60405180910390fd5b6129c4600554826bffffffffffffffffffffffff166133f5565b600581905550612a44600960008473ffffffffffffffffffffffffffffffffffffffff1673ffffffffffffffffffffffffffffffffffffffff16815260200190815260200160002060009054906101000a90046bffffffffffffffffffffffff1682604051806060016040528060278152602001614f4b60279139613084565b600960008473ffffffffffffffffffffffffffffffffffffffff1673ffffffffffffffffffffffffffffffffffffffff16815260200190815260200160002060006101000a8154816bffffffffffffffffffffffff02191690836bffffffffffffffffffffffff1602179055508173ffffffffffffffffffffffffffffffffffffffff16600073ffffffffffffffffffffffffffffffffffffffff167fddf252ad1be2c89b69c2b068fc378daa952ba7f163c4a11628f55a4df523b3ef83604051612b0f9190614b5b565b60405180910390a36004546005541115612b5e576040517f08c379a0000000000000000000000000000000000000000000000000000000008152600401612b5590614a58565b60405180910390fd5b81600a60008473ffffffffffffffffffffffffffffffffffffffff1673ffffffffffffffffffffffffffffffffffffffff16815260200190815260200160002060006101000a81548173ffffffffffffffffffffffffffffffffffffffff021916908373ffffffffffffffffffffffffffffffffffffffff160217905550612c476000600a60008573ffffffffffffffffffffffffffffffffffffffff1673ffffffffffffffffffffffffffffffffffffffff16815260200190815260200160002060009054906101000a900473ffffffffffffffffffffffffffffffffffffffff16836130fa565b5050565b600073ffffffffffffffffffffffffffffffffffffffff168273ffffffffffffffffffffffffffffffffffffffff161415612cbb576040517f08c379a0000000000000000000000000000000000000000000000000000000008152600401612cb290614938565b60405180910390fd5b612d35600960008473ffffffffffffffffffffffffffffffffffffffff1673ffffffffffffffffffffffffffffffffffffffff16815260200190815260200160002060009054906101000a90046bffffffffffffffffffffffff16826040518060600160405280602d8152602001614d67602d91396124e8565b600960008473ffffffffffffffffffffffffffffffffffffffff1673ffffffffffffffffffffffffffffffffffffffff16815260200190815260200160002060006101000a8154816bffffffffffffffffffffffff02191690836bffffffffffffffffffffffff160217905550612dbc600554826bffffffffffffffffffffffff1661344a565b600581905550612ddc600654826bffffffffffffffffffffffff166133f5565b600681905550600073ffffffffffffffffffffffffffffffffffffffff168273ffffffffffffffffffffffffffffffffffffffff167fddf252ad1be2c89b69c2b068fc378daa952ba7f163c4a11628f55a4df523b3ef83604051612e409190614b5b565b60405180910390a3612eb3600a60008473ffffffffffffffffffffffffffffffffffffffff1673ffffffffffffffffffffffffffffffffffffffff16815260200190815260200160002060009054906101000a900473ffffffffffffffffffffffffffffffffffffffff166000836130fa565b5050565b6000600a60008473ffffffffffffffffffffffffffffffffffffffff1673ffffffffffffffffffffffffffffffffffffffff16815260200190815260200160002060009054906101000a900473ffffffffffffffffffffffffffffffffffffffff1690506000600960008573ffffffffffffffffffffffffffffffffffffffff1673ffffffffffffffffffffffffffffffffffffffff16815260200190815260200160002060009054906101000a90046bffffffffffffffffffffffff16905082600a60008673ffffffffffffffffffffffffffffffffffffffff1673ffffffffffffffffffffffffffffffffffffffff16815260200190815260200160002060006101000a81548173ffffffffffffffffffffffffffffffffffffffff021916908373ffffffffffffffffffffffffffffffffffffffff1602179055508273ffffffffffffffffffffffffffffffffffffffff168273ffffffffffffffffffffffffffffffffffffffff168573ffffffffffffffffffffffffffffffffffffffff167f3134e8a2e6d97e929a7e54011ea5485d7d196dd5f0ba4d4ef95803e8e3fc257f60405160405180910390a46130718284836130fa565b50505050565b6000804690508091505090565b6000808385019050846bffffffffffffffffffffffff16816bffffffffffffffffffffffff16101583906130ee576040517f08c379a00000000000000000000000000000000000000000000000000000000081526004016130e591906147f6565b60405180910390fd5b50809150509392505050565b8173ffffffffffffffffffffffffffffffffffffffff168373ffffffffffffffffffffffffffffffffffffffff161415801561314457506000816bffffffffffffffffffffffff16115b156133f057600073ffffffffffffffffffffffffffffffffffffffff168373ffffffffffffffffffffffffffffffffffffffff161461329c576000600c60008573ffffffffffffffffffffffffffffffffffffffff1673ffffffffffffffffffffffffffffffffffffffff16815260200190815260200160002060009054906101000a900463ffffffff1690506000808263ffffffff16116131e7576000613263565b600b60008673ffffffffffffffffffffffffffffffffffffffff1673ffffffffffffffffffffffffffffffffffffffff16815260200190815260200160002060006001840363ffffffff1663ffffffff16815260200190815260200160002060000160049054906101000a90046bffffffffffffffffffffffff165b9050600061328a8285604051806060016040528060278152602001614f72602791396124e8565b905061329886848484613494565b5050505b600073ffffffffffffffffffffffffffffffffffffffff168273ffffffffffffffffffffffffffffffffffffffff16146133ef576000600c60008473ffffffffffffffffffffffffffffffffffffffff1673ffffffffffffffffffffffffffffffffffffffff16815260200190815260200160002060009054906101000a900463ffffffff1690506000808263ffffffff161161333a5760006133b6565b600b60008573ffffffffffffffffffffffffffffffffffffffff1673ffffffffffffffffffffffffffffffffffffffff16815260200190815260200160002060006001840363ffffffff1663ffffffff16815260200190815260200160002060000160049054906101000a90046bffffffffffffffffffffffff165b905060006133dd8285604051806060016040528060268152602001614ead60269139613084565b90506133eb85848484613494565b5050505b5b505050565b600080828401905083811015613440576040517f08c379a000000000000000000000000000000000000000000000000000000000815260040161343790614898565b60405180910390fd5b8091505092915050565b600061348c83836040518060400160405280601f81526020017f536166654d6174683a207375627472616374696f6e20756e646572666c6f7700815250613787565b905092915050565b60006134b843604051806060016040528060338152602001614dff603391396137e2565b905060008463ffffffff1611801561354d57508063ffffffff16600b60008773ffffffffffffffffffffffffffffffffffffffff1673ffffffffffffffffffffffffffffffffffffffff16815260200190815260200160002060006001870363ffffffff1663ffffffff16815260200190815260200160002060000160009054906101000a900463ffffffff1663ffffffff16145b156135e85781600b60008773ffffffffffffffffffffffffffffffffffffffff1673ffffffffffffffffffffffffffffffffffffffff16815260200190815260200160002060006001870363ffffffff1663ffffffff16815260200190815260200160002060000160046101000a8154816bffffffffffffffffffffffff02191690836bffffffffffffffffffffffff160217905550613730565b60405180604001604052808263ffffffff168152602001836bffffffffffffffffffffffff16815250600b60008773ffffffffffffffffffffffffffffffffffffffff1673ffffffffffffffffffffffffffffffffffffffff16815260200190815260200160002060008663ffffffff1663ffffffff16815260200190815260200160002060008201518160000160006101000a81548163ffffffff021916908363ffffffff16021790555060208201518160000160046101000a8154816bffffffffffffffffffffffff02191690836bffffffffffffffffffffffff16021790555090505060018401600c60008773ffffffffffffffffffffffffffffffffffffffff1673ffffffffffffffffffffffffffffffffffffffff16815260200190815260200160002060006101000a81548163ffffffff021916908363ffffffff1602179055505b8473ffffffffffffffffffffffffffffffffffffffff167fdec2bacdd2f05b59de34da9b523dff8be42e5e38e818c82fdb0bae774387a7248484604051613778929190614b91565b60405180910390a25050505050565b60008383111582906137cf576040517f08c379a00000000000000000000000000000000000000000000000000000000081526004016137c691906147f6565b60405180910390fd5b5060008385039050809150509392505050565b60006401000000008310829061382e576040517f08c379a000000000000000000000000000000000000000000000000000000000815260040161382591906147f6565b60405180910390fd5b5082905092915050565b6040518060400160405280600063ffffffff16815260200160006bffffffffffffffffffffffff1681525090565b60008135905061387581614cf3565b92915050565b60008135905061388a81614d0a565b92915050565b60008135905061389f81614d21565b92915050565b6000813590506138b481614d38565b92915050565b6000813590506138c981614d4f565b92915050565b6000602082840312156138e157600080fd5b60006138ef84828501613866565b91505092915050565b6000806040838503121561390b57600080fd5b600061391985828601613866565b925050602061392a85828601613866565b9150509250929050565b60008060006060848603121561394957600080fd5b600061395786828701613866565b935050602061396886828701613866565b925050604061397986828701613890565b9150509250925092565b600080600080600080600060e0888a03121561399e57600080fd5b60006139ac8a828b01613866565b97505060206139bd8a828b01613866565b96505060406139ce8a828b01613890565b95505060606139df8a828b01613890565b94505060806139f08a828b016138ba565b93505060a0613a018a828b0161387b565b92505060c0613a128a828b0161387b565b91505092959891949750929550565b60008060408385031215613a3457600080fd5b6000613a4285828601613866565b9250506020613a5385828601613890565b9150509250929050565b60008060008060008060c08789031215613a7657600080fd5b6000613a8489828a01613866565b9650506020613a9589828a01613890565b9550506040613aa689828a01613890565b9450506060613ab789828a016138ba565b9350506080613ac889828a0161387b565b92505060a0613ad989828a0161387b565b9150509295509295509295565b60008060408385031215613af957600080fd5b6000613b0785828601613866565b9250506020613b18858286016138a5565b9150509250929050565b600060208284031215613b3457600080fd5b6000613b4284828501613890565b91505092915050565b613b5481614c0c565b82525050565b613b6381614c1e565b82525050565b613b7281614c2a565b82525050565b613b89613b8482614c2a565b614cd8565b82525050565b600081546001811660008114613bac5760018114613bd157613c15565b607f6002830416613bbd8187614be5565b955060ff1983168652808601935050613c15565b60028204613bdf8187614be5565b9550613bea85614bba565b60005b82811015613c0c57815481890152600182019150602081019050613bed565b82880195505050505b505092915050565b6000613c2882614bda565b613c328185614bf0565b9350613c42818560208601614ca5565b613c4b81614ce2565b840191505092915050565b6000613c6182614bcf565b613c6b8185614bf0565b9350613c7b818560208601614ca5565b613c8481614ce2565b840191505092915050565b6000613c9c601e83614bf0565b91507f506e673a3a7065726d69743a20696e76616c6964207369676e617475726500006000830152602082019050919050565b6000613cdc602583614bf0565b91507f506e673a3a64656c656761746542795369673a20696e76616c6964207369676e60008301527f61747572650000000000000000000000000000000000000000000000000000006020830152604082019050919050565b6000613d42603183614bf0565b91507f506e673a3a73657441646d696e3a2063616e6e6f74206d616b65207a65726f2060008301527f61646472657373207468652061646d696e0000000000000000000000000000006020830152604082019050919050565b6000613da8603b83614bf0565b91507f506e673a3a5f7472616e73666572546f6b656e733a2063616e6e6f742074726160008301527f6e736665722066726f6d20746865207a65726f206164647265737300000000006020830152604082019050919050565b6000613e0e600283614c01565b91507f19010000000000000000000000000000000000000000000000000000000000006000830152600282019050919050565b6000613e4e601b83614bf0565b91507f536166654d6174683a206164646974696f6e206f766572666c6f7700000000006000830152602082019050919050565b6000613e8e601f83614bf0565b91507f506e673a3a7365744d6178537570706c793a20756e617574686f72697a6564006000830152602082019050919050565b6000613ece603183614bf0565b91507f506e673a3a5f6d696e74546f6b656e733a2063616e6e6f74206d696e7420746f60008301527f20746865207a65726f20616464726573730000000000000000000000000000006020830152604082019050919050565b6000613f34603983614bf0565b91507f506e673a3a5f7472616e73666572546f6b656e733a2063616e6e6f742074726160008301527f6e7366657220746f20746865207a65726f2061646472657373000000000000006020830152604082019050919050565b6000613f9a601783614bf0565b91507f506e673a3a6d696e743a20756e617574686f72697a65640000000000000000006000830152602082019050919050565b6000613fda603383614bf0565b91507f506e673a3a5f6275726e546f6b656e733a2063616e6e6f74206275726e20667260008301527f6f6d20746865207a65726f2061646472657373000000000000000000000000006020830152604082019050919050565b6000614040601c83614bf0565b91507f506e673a3a7365744d696e7465723a20756e617574686f72697a6564000000006000830152602082019050919050565b6000614080605283614c01565b91507f5065726d69742861646472657373206f776e65722c616464726573732073706560008301527f6e6465722c75696e743235362076616c75652c75696e74323536206e6f6e636560208301527f2c75696e7432353620646561646c696e652900000000000000000000000000006040830152605282019050919050565b600061410c604383614c01565b91507f454950373132446f6d61696e28737472696e67206e616d652c75696e7432353660008301527f20636861696e49642c6164647265737320766572696679696e67436f6e74726160208301527f63742900000000000000000000000000000000000000000000000000000000006040830152604382019050919050565b6000614198602683614bf0565b91507f506e673a3a6765745072696f72566f7465733a206e6f7420796574206465746560008301527f726d696e656400000000000000000000000000000000000000000000000000006020830152604082019050919050565b60006141fe601983614bf0565b91507f506e673a3a7065726d69743a20756e617574686f72697a6564000000000000006000830152602082019050919050565b600061423e601e83614bf0565b91507f506e673a3a7065726d69743a207369676e6174757265206578706972656400006000830152602082019050919050565b600061427e602683614bf0565b91507f506e673a3a64697361626c655365744d6178537570706c793a20756e6175746860008301527f6f72697a656400000000000000000000000000000000000000000000000000006020830152604082019050919050565b60006142e4602583614bf0565b91507f506e673a3a64656c656761746542795369673a207369676e617475726520657860008301527f70697265640000000000000000000000000000000000000000000000000000006020830152604082019050919050565b600061434a602883614bf0565b91507f506e673a3a7365744d6178537570706c793a2066756e6374696f6e207761732060008301527f64697361626c65640000000000000000000000000000000000000000000000006020830152604082019050919050565b60006143b0601b83614bf0565b91507f506e673a3a73657441646d696e3a20756e617574686f72697a656400000000006000830152602082019050919050565b60006143f0603a83614c01565b91507f44656c65676174696f6e28616464726573732064656c6567617465652c75696e60008301527f74323536206e6f6e63652c75696e7432353620657870697279290000000000006020830152603a82019050919050565b6000614456603083614bf0565b91507f506e673a3a5f6d696e74546f6b656e733a206d696e7420726573756c7420657860008301527f6365656473206d617820737570706c79000000000000000000000000000000006020830152604082019050919050565b60006144bc603c83614bf0565b91507f506e673a3a7365744d6178537570706c793a2063697263756c6174696e67207360008301527f7570706c792065786365656473206e6577206d617820737570706c79000000006020830152604082019050919050565b6000614522602183614bf0565b91507f506e673a3a64656c656761746542795369673a20696e76616c6964206e6f6e6360008301527f65000000000000000000000000000000000000000000000000000000000000006020830152604082019050919050565b61458481614c54565b82525050565b61459381614c5e565b82525050565b6145a281614c6e565b82525050565b6145b181614c93565b82525050565b6145c081614c7b565b82525050565b60006145d28284613b8f565b915081905092915050565b60006145e882613e01565b91506145f48285613b78565b6020820191506146048284613b78565b6020820191508190509392505050565b600061461f82614073565b9150819050919050565b6000614634826140ff565b9150819050919050565b6000614649826143e3565b9150819050919050565b60006020820190506146686000830184613b4b565b92915050565b60006020820190506146836000830184613b5a565b92915050565b600060208201905061469e6000830184613b69565b92915050565b600060c0820190506146b96000830189613b69565b6146c66020830188613b4b565b6146d36040830187613b4b565b6146e0606083018661457b565b6146ed608083018561457b565b6146fa60a083018461457b565b979650505050505050565b600060808201905061471a6000830187613b69565b6147276020830186613b4b565b614734604083018561457b565b614741606083018461457b565b95945050505050565b600060808201905061475f6000830187613b69565b61476c6020830186613b69565b614779604083018561457b565b6147866060830184613b4b565b95945050505050565b60006080820190506147a46000830187613b69565b6147b16020830186614599565b6147be6040830185613b69565b6147cb6060830184613b69565b95945050505050565b600060208201905081810360008301526147ee8184613c56565b905092915050565b600060208201905081810360008301526148108184613c1d565b905092915050565b6000602082019050818103600083015261483181613c8f565b9050919050565b6000602082019050818103600083015261485181613ccf565b9050919050565b6000602082019050818103600083015261487181613d35565b9050919050565b6000602082019050818103600083015261489181613d9b565b9050919050565b600060208201905081810360008301526148b181613e41565b9050919050565b600060208201905081810360008301526148d181613e81565b9050919050565b600060208201905081810360008301526148f181613ec1565b9050919050565b6000602082019050818103600083015261491181613f27565b9050919050565b6000602082019050818103600083015261493181613f8d565b9050919050565b6000602082019050818103600083015261495181613fcd565b9050919050565b6000602082019050818103600083015261497181614033565b9050919050565b600060208201905081810360008301526149918161418b565b9050919050565b600060208201905081810360008301526149b1816141f1565b9050919050565b600060208201905081810360008301526149d181614231565b9050919050565b600060208201905081810360008301526149f181614271565b9050919050565b60006020820190508181036000830152614a11816142d7565b9050919050565b60006020820190508181036000830152614a318161433d565b9050919050565b60006020820190508181036000830152614a51816143a3565b9050919050565b60006020820190508181036000830152614a7181614449565b9050919050565b60006020820190508181036000830152614a91816144af565b9050919050565b60006020820190508181036000830152614ab181614515565b9050919050565b6000602082019050614acd600083018461457b565b92915050565b6000604082019050614ae8600083018561457b565b614af5602083018461457b565b9392505050565b6000602082019050614b11600083018461458a565b92915050565b6000604082019050614b2c600083018561458a565b614b3960208301846145b7565b9392505050565b6000602082019050614b556000830184614599565b92915050565b6000602082019050614b7060008301846145a8565b92915050565b6000602082019050614b8b60008301846145b7565b92915050565b6000604082019050614ba660008301856145a8565b614bb360208301846145a8565b9392505050565b60008190508160005260206000209050919050565b600081519050919050565b600081519050919050565b600081905092915050565b600082825260208201905092915050565b600081905092915050565b6000614c1782614c34565b9050919050565b60008115159050919050565b6000819050919050565b600073ffffffffffffffffffffffffffffffffffffffff82169050919050565b6000819050919050565b600063ffffffff82169050919050565b600060ff82169050919050565b60006bffffffffffffffffffffffff82169050919050565b6000614c9e82614c7b565b9050919050565b60005b83811015614cc3578082015181840152602081019050614ca8565b83811115614cd2576000848401525b50505050565b6000819050919050565b6000601f19601f8301169050919050565b614cfc81614c0c565b8114614d0757600080fd5b50565b614d1381614c2a565b8114614d1e57600080fd5b50565b614d2a81614c54565b8114614d3557600080fd5b50565b614d4181614c5e565b8114614d4c57600080fd5b50565b614d5881614c6e565b8114614d6357600080fd5b5056fe506e673a3a5f6275726e546f6b656e733a206275726e20616d6f756e7420657863656564732062616c616e6365506e673a3a7472616e7366657246726f6d3a207472616e7366657220616d6f756e742065786365656473207370656e64657220616c6c6f77616e6365506e673a3a5f7472616e73666572546f6b656e733a207472616e7366657220616d6f756e74206f766572666c6f7773506e673a3a5f7772697465436865636b706f696e743a20626c6f636b206e756d62657220657863656564732033322062697473506e673a3a7472616e736665723a20616d6f756e7420657863656564732039362062697473506e673a3a5f7472616e73666572546f6b656e733a207472616e7366657220616d6f756e7420657863656564732062616c616e6365506e673a3a6d696e743a20616d6f756e7420657863656564732039362062697473506e673a3a5f6d6f7665566f7465733a20766f746520616d6f756e74206f766572666c6f7773506e673a3a7065726d69743a20616d6f756e7420657863656564732039362062697473506e673a3a617070726f76653a20616d6f756e7420657863656564732039362062697473506e673a3a7365744d6178537570706c793a206e6577206d617820737570706c7920657863656564732039362062697473506e673a3a5f6d696e74546f6b656e733a206d696e7420616d6f756e74206f766572666c6f7773506e673a3a5f6d6f7665566f7465733a20766f746520616d6f756e7420756e646572666c6f7773506e673a3a6275726e46726f6d3a20616d6f756e7420657863656564732039362062697473506e673a3a6275726e46726f6d3a206275726e20616d6f756e742065786365656473207370656e64657220616c6c6f77616e6365506e673a3a6275726e3a20616d6f756e7420657863656564732039362062697473a365627a7a72315820da649354506aaaa690532a8941f2966b6344d9c2a6a566bc4c597e9da7ecaec76c6578706572696d656e74616cf564736f6c63430005100040506e673a3a5f7772697465436865636b706f696e743a20626c6f636b206e756d62657220657863656564732033322062697473506e673a3a5f6d6f7665566f7465733a20766f746520616d6f756e74206f766572666c6f7773506e673a3a5f6d696e74546f6b656e733a206d696e7420616d6f756e74206f766572666c6f7773506e673a3a5f6d6f7665566f7465733a20766f746520616d6f756e7420756e646572666c6f7773",
  "linkReferences": {},
  "deployedLinkReferences": {}
}