{
  "_format": "hh-sol-artifact-1",
  "contractName": "RevenueDistributor",
  "sourceName": "contracts/revenue-distributor/RevenueDistributor.sol",
  "abi": [
    {
      "inputs": [
        {
          "components": [
            {
              "internalType": "address",
              "name": "account",
              "type": "address"
            },
            {
              "internalType": "uint256",
              "name": "allocation",
              "type": "uint256"
            }
          ],
          "internalType": "struct RevenueDistributor.Recipient[]",
          "name": "newRecipients",
          "type": "tuple[]"
        }
      ],
      "stateMutability": "nonpayable",
      "type": "constructor"
    },
    {
      "anonymous": false,
      "inputs": [
        {
          "indexed": true,
          "internalType": "address",
          "name": "previousOwner",
          "type": "address"
        },
        {
          "indexed": true,
          "internalType": "address",
          "name": "newOwner",
          "type": "address"
        }
      ],
      "name": "OwnershipTransferred",
      "type": "event"
    },
    {
      "anonymous": false,
      "inputs": [
        {
          "components": [
            {
              "internalType": "address",
              "name": "account",
              "type": "address"
            },
            {
              "internalType": "uint256",
              "name": "allocation",
              "type": "uint256"
            }
          ],
          "indexed": false,
          "internalType": "struct RevenueDistributor.Recipient[]",
          "name": "newRecipients",
          "type": "tuple[]"
        }
      ],
      "name": "RecipientsChanged",
      "type": "event"
    },
    {
      "anonymous": false,
      "inputs": [
        {
          "indexed": false,
          "internalType": "address",
          "name": "token",
          "type": "address"
        },
        {
          "indexed": false,
          "internalType": "uint256",
          "name": "amount",
          "type": "uint256"
        }
      ],
      "name": "TokenDistributed",
      "type": "event"
    },
    {
      "inputs": [
        {
          "internalType": "address",
          "name": "token",
          "type": "address"
        }
      ],
      "name": "distributeToken",
      "outputs": [],
      "stateMutability": "nonpayable",
      "type": "function"
    },
    {
      "inputs": [],
      "name": "getRecipients",
      "outputs": [
        {
          "components": [
            {
              "internalType": "address",
              "name": "account",
              "type": "address"
            },
            {
              "internalType": "uint256",
              "name": "allocation",
              "type": "uint256"
            }
          ],
          "internalType": "struct RevenueDistributor.Recipient[]",
          "name": "",
          "type": "tuple[]"
        }
      ],
      "stateMutability": "view",
      "type": "function"
    },
    {
      "inputs": [],
      "name": "owner",
      "outputs": [
        {
          "internalType": "address",
          "name": "",
          "type": "address"
        }
      ],
      "stateMutability": "view",
      "type": "function"
    },
    {
      "inputs": [],
      "name": "renounceOwnership",
      "outputs": [],
      "stateMutability": "nonpayable",
      "type": "function"
    },
    {
      "inputs": [
        {
          "components": [
            {
              "internalType": "address",
              "name": "account",
              "type": "address"
            },
            {
              "internalType": "uint256",
              "name": "allocation",
              "type": "uint256"
            }
          ],
          "internalType": "struct RevenueDistributor.Recipient[]",
          "name": "newRecipients",
          "type": "tuple[]"
        }
      ],
      "name": "setRecipients",
      "outputs": [],
      "stateMutability": "nonpayable",
      "type": "function"
    },
    {
      "inputs": [
        {
          "internalType": "address",
          "name": "newOwner",
          "type": "address"
        }
      ],
      "name": "transferOwnership",
      "outputs": [],
      "stateMutability": "nonpayable",
      "type": "function"
    }
  ],
  "bytecode": "0x60806040523480156200001157600080fd5b50604051620026d5380380620026d58339818101604052810190620000379190620006e3565b620000576200004b6200006f60201b60201c565b6200007760201b60201c565b62000068816200013b60201b60201c565b5062000be4565b600033905090565b60008060009054906101000a900473ffffffffffffffffffffffffffffffffffffffff169050816000806101000a81548173ffffffffffffffffffffffffffffffffffffffff021916908373ffffffffffffffffffffffffffffffffffffffff1602179055508173ffffffffffffffffffffffffffffffffffffffff168173ffffffffffffffffffffffffffffffffffffffff167f8be0079c531659141344cd1fd0a4f28419497f9722a3daafe3b4186f6b6457e060405160405180910390a35050565b6200014b6200006f60201b60201c565b73ffffffffffffffffffffffffffffffffffffffff16620001716200043360201b60201c565b73ffffffffffffffffffffffffffffffffffffffff1614620001ca576040517f08c379a0000000000000000000000000000000000000000000000000000000008152600401620001c19062000795565b60405180910390fd5b8051600281905550600060025414158015620001e857506015600254105b6200022a576040517f08c379a0000000000000000000000000000000000000000000000000000000008152600401620002219062000807565b60405180910390fd5b6000805b600254811015620003ae57600083828151811062000251576200025062000829565b5b60200260200101519050600073ffffffffffffffffffffffffffffffffffffffff16816000015173ffffffffffffffffffffffffffffffffffffffff161415620002d2576040517f08c379a0000000000000000000000000000000000000000000000000000000008152600401620002c990620008a8565b60405180910390fd5b6000816020015114156200031d576040517f08c379a000000000000000000000000000000000000000000000000000000000815260040162000314906200091a565b60405180910390fd5b806001600084815260200190815260200160002060008201518160000160006101000a81548173ffffffffffffffffffffffffffffffffffffffff021916908373ffffffffffffffffffffffffffffffffffffffff160217905550602082015181600101559050508060200151836200039791906200096b565b92505080620003a690620009c8565b90506200022e565b506127108114620003f6576040517f08c379a0000000000000000000000000000000000000000000000000000000008152600401620003ed9062000a8c565b60405180910390fd5b7fb69dcdd848feb1fbcb29c8cdb30450ceb37feba30b9d444d7d7bbad1673196ae8260405162000427919062000bc0565b60405180910390a15050565b60008060009054906101000a900473ffffffffffffffffffffffffffffffffffffffff16905090565b6000604051905090565b600080fd5b600080fd5b600080fd5b6000601f19601f8301169050919050565b7f4e487b7100000000000000000000000000000000000000000000000000000000600052604160045260246000fd5b620004c08262000475565b810181811067ffffffffffffffff82111715620004e257620004e162000486565b5b80604052505050565b6000620004f76200045c565b9050620005058282620004b5565b919050565b600067ffffffffffffffff82111562000528576200052762000486565b5b602082029050602081019050919050565b600080fd5b600080fd5b600073ffffffffffffffffffffffffffffffffffffffff82169050919050565b6000620005708262000543565b9050919050565b620005828162000563565b81146200058e57600080fd5b50565b600081519050620005a28162000577565b92915050565b6000819050919050565b620005bd81620005a8565b8114620005c957600080fd5b50565b600081519050620005dd81620005b2565b92915050565b600060408284031215620005fc57620005fb6200053e565b5b620006086040620004eb565b905060006200061a8482850162000591565b60008301525060206200063084828501620005cc565b60208301525092915050565b6000620006536200064d846200050a565b620004eb565b9050808382526020820190506040840283018581111562000679576200067862000539565b5b835b81811015620006a65780620006918882620005e3565b8452602084019350506040810190506200067b565b5050509392505050565b600082601f830112620006c857620006c762000470565b5b8151620006da8482602086016200063c565b91505092915050565b600060208284031215620006fc57620006fb62000466565b5b600082015167ffffffffffffffff8111156200071d576200071c6200046b565b5b6200072b84828501620006b0565b91505092915050565b600082825260208201905092915050565b7f4f776e61626c653a2063616c6c6572206973206e6f7420746865206f776e6572600082015250565b60006200077d60208362000734565b91506200078a8262000745565b602082019050919050565b60006020820190508181036000830152620007b0816200076e565b9050919050565b7f696e76616c696420726563697069656e74206e756d6265720000000000000000600082015250565b6000620007ef60188362000734565b9150620007fc82620007b7565b602082019050919050565b600060208201905081810360008301526200082281620007e0565b9050919050565b7f4e487b7100000000000000000000000000000000000000000000000000000000600052603260045260246000fd5b7f696e76616c696420726563697069656e74206164647265737300000000000000600082015250565b60006200089060198362000734565b91506200089d8262000858565b602082019050919050565b60006020820190508181036000830152620008c38162000881565b9050919050565b7f696e76616c696420726563697069656e7420616c6c6f636174696f6e00000000600082015250565b600062000902601c8362000734565b91506200090f82620008ca565b602082019050919050565b600060208201905081810360008301526200093581620008f3565b9050919050565b7f4e487b7100000000000000000000000000000000000000000000000000000000600052601160045260246000fd5b60006200097882620005a8565b91506200098583620005a8565b9250827fffffffffffffffffffffffffffffffffffffffffffffffffffffffffffffffff03821115620009bd57620009bc6200093c565b5b828201905092915050565b6000620009d582620005a8565b91507fffffffffffffffffffffffffffffffffffffffffffffffffffffffffffffffff82141562000a0b5762000a0a6200093c565b5b600182019050919050565b7f746f74616c20616c6c6f636174696f6e7320646f206e6f7420657175616c207460008201527f6f2064656e6f6d696e61746f7200000000000000000000000000000000000000602082015250565b600062000a74602d8362000734565b915062000a818262000a16565b604082019050919050565b6000602082019050818103600083015262000aa78162000a65565b9050919050565b600081519050919050565b600082825260208201905092915050565b6000819050602082019050919050565b62000ae58162000563565b82525050565b62000af681620005a8565b82525050565b60408201600082015162000b14600085018262000ada565b50602082015162000b29602085018262000aeb565b50505050565b600062000b3d838362000afc565b60408301905092915050565b6000602082019050919050565b600062000b638262000aae565b62000b6f818562000ab9565b935062000b7c8362000aca565b8060005b8381101562000bb357815162000b97888262000b2f565b975062000ba48362000b49565b92505060018101905062000b80565b5085935050505092915050565b6000602082019050818103600083015262000bdc818462000b56565b905092915050565b611ae18062000bf46000396000f3fe608060405234801561001057600080fd5b50600436106100625760003560e01c8063715018a61461006757806384890ba31461007157806386d740371461008d5780638da5cb5b146100a9578063d78d610b146100c7578063f2fde38b146100e5575b600080fd5b61006f610101565b005b61008b60048036038101906100869190610fdf565b610189565b005b6100a760048036038101906100a29190611028565b610456565b005b6100b1610715565b6040516100be9190611064565b60405180910390f35b6100cf61073e565b6040516100dc919061117b565b60405180910390f35b6100ff60048036038101906100fa9190611028565b6108a2565b005b61010961099a565b73ffffffffffffffffffffffffffffffffffffffff16610127610715565b73ffffffffffffffffffffffffffffffffffffffff161461017d576040517f08c379a0000000000000000000000000000000000000000000000000000000008152600401610174906111fa565b60405180910390fd5b61018760006109a2565b565b61019161099a565b73ffffffffffffffffffffffffffffffffffffffff166101af610715565b73ffffffffffffffffffffffffffffffffffffffff1614610205576040517f08c379a00000000000000000000000000000000000000000000000000000000081526004016101fc906111fa565b60405180910390fd5b805160028190555060006002541415801561022257506015600254105b610261576040517f08c379a000000000000000000000000000000000000000000000000000000000815260040161025890611266565b60405180910390fd5b6000805b6002548110156103d657600083828151811061028457610283611286565b5b60200260200101519050600073ffffffffffffffffffffffffffffffffffffffff16816000015173ffffffffffffffffffffffffffffffffffffffff161415610302576040517f08c379a00000000000000000000000000000000000000000000000000000000081526004016102f990611301565b60405180910390fd5b60008160200151141561034a576040517f08c379a00000000000000000000000000000000000000000000000000000000081526004016103419061136d565b60405180910390fd5b806001600084815260200190815260200160002060008201518160000160006101000a81548173ffffffffffffffffffffffffffffffffffffffff021916908373ffffffffffffffffffffffffffffffffffffffff160217905550602082015181600101559050508060200151836103c291906113bc565b925050806103cf90611412565b9050610265565b50612710811461041b576040517f08c379a0000000000000000000000000000000000000000000000000000000008152600401610412906114cd565b60405180910390fd5b7fb69dcdd848feb1fbcb29c8cdb30450ceb37feba30b9d444d7d7bbad1673196ae8260405161044a919061117b565b60405180910390a15050565b60008173ffffffffffffffffffffffffffffffffffffffff166370a08231306040518263ffffffff1660e01b81526004016104919190611064565b60206040518083038186803b1580156104a957600080fd5b505afa1580156104bd573d6000803e3d6000fd5b505050506040513d601f19601f820116820180604052508101906104e19190611502565b90506000811415610527576040517f08c379a000000000000000000000000000000000000000000000000000000000815260040161051e9061157b565b60405180910390fd5b60005b6001600254610539919061159b565b8110156105e0576105cf6001600083815260200190815260200160002060000160009054906101000a900473ffffffffffffffffffffffffffffffffffffffff1661271060016000858152602001908152602001600020600101548561059f91906115cf565b6105a99190611658565b8573ffffffffffffffffffffffffffffffffffffffff16610a669092919063ffffffff16565b806105d990611412565b905061052a565b506106d86001600060016002546105f7919061159b565b815260200190815260200160002060000160009054906101000a900473ffffffffffffffffffffffffffffffffffffffff168373ffffffffffffffffffffffffffffffffffffffff166370a08231306040518263ffffffff1660e01b81526004016106629190611064565b60206040518083038186803b15801561067a57600080fd5b505afa15801561068e573d6000803e3d6000fd5b505050506040513d601f19601f820116820180604052508101906106b29190611502565b8473ffffffffffffffffffffffffffffffffffffffff16610a669092919063ffffffff16565b7ff6f55ada4fbb9e2bc6813f97e749a30067f3c13a200ce783269b50e6419e8f648282604051610709929190611698565b60405180910390a15050565b60008060009054906101000a900473ffffffffffffffffffffffffffffffffffffffff16905090565b606060006002541415610786576040517f08c379a000000000000000000000000000000000000000000000000000000000815260040161077d9061170d565b60405180910390fd5b600060025467ffffffffffffffff8111156107a4576107a3610db3565b5b6040519080825280602002602001820160405280156107dd57816020015b6107ca610d59565b8152602001906001900390816107c25790505b50905060005b60025481101561089a57600160008281526020019081526020016000206040518060400160405290816000820160009054906101000a900473ffffffffffffffffffffffffffffffffffffffff1673ffffffffffffffffffffffffffffffffffffffff1673ffffffffffffffffffffffffffffffffffffffff16815260200160018201548152505082828151811061087e5761087d611286565b5b60200260200101819052508061089390611412565b90506107e3565b508091505090565b6108aa61099a565b73ffffffffffffffffffffffffffffffffffffffff166108c8610715565b73ffffffffffffffffffffffffffffffffffffffff161461091e576040517f08c379a0000000000000000000000000000000000000000000000000000000008152600401610915906111fa565b60405180910390fd5b600073ffffffffffffffffffffffffffffffffffffffff168173ffffffffffffffffffffffffffffffffffffffff16141561098e576040517f08c379a00000000000000000000000000000000000000000000000000000000081526004016109859061179f565b60405180910390fd5b610997816109a2565b50565b600033905090565b60008060009054906101000a900473ffffffffffffffffffffffffffffffffffffffff169050816000806101000a81548173ffffffffffffffffffffffffffffffffffffffff021916908373ffffffffffffffffffffffffffffffffffffffff1602179055508173ffffffffffffffffffffffffffffffffffffffff168173ffffffffffffffffffffffffffffffffffffffff167f8be0079c531659141344cd1fd0a4f28419497f9722a3daafe3b4186f6b6457e060405160405180910390a35050565b610ae78363a9059cbb60e01b8484604051602401610a85929190611698565b604051602081830303815290604052907bffffffffffffffffffffffffffffffffffffffffffffffffffffffff19166020820180517bffffffffffffffffffffffffffffffffffffffffffffffffffffffff8381831617835250505050610aec565b505050565b6000610b4e826040518060400160405280602081526020017f5361666545524332303a206c6f772d6c6576656c2063616c6c206661696c65648152508573ffffffffffffffffffffffffffffffffffffffff16610bb39092919063ffffffff16565b9050600081511115610bae5780806020019051810190610b6e91906117f7565b610bad576040517f08c379a0000000000000000000000000000000000000000000000000000000008152600401610ba490611896565b60405180910390fd5b5b505050565b6060610bc28484600085610bcb565b90509392505050565b606082471015610c10576040517f08c379a0000000000000000000000000000000000000000000000000000000008152600401610c0790611928565b60405180910390fd5b610c1985610cdf565b610c58576040517f08c379a0000000000000000000000000000000000000000000000000000000008152600401610c4f90611994565b60405180910390fd5b6000808673ffffffffffffffffffffffffffffffffffffffff168587604051610c819190611a2e565b60006040518083038185875af1925050503d8060008114610cbe576040519150601f19603f3d011682016040523d82523d6000602084013e610cc3565b606091505b5091509150610cd3828286610cf2565b92505050949350505050565b600080823b905060008111915050919050565b60608315610d0257829050610d52565b600083511115610d155782518084602001fd5b816040517f08c379a0000000000000000000000000000000000000000000000000000000008152600401610d499190611a89565b60405180910390fd5b9392505050565b6040518060400160405280600073ffffffffffffffffffffffffffffffffffffffff168152602001600081525090565b6000604051905090565b600080fd5b600080fd5b600080fd5b6000601f19601f8301169050919050565b7f4e487b7100000000000000000000000000000000000000000000000000000000600052604160045260246000fd5b610deb82610da2565b810181811067ffffffffffffffff82111715610e0a57610e09610db3565b5b80604052505050565b6000610e1d610d89565b9050610e298282610de2565b919050565b600067ffffffffffffffff821115610e4957610e48610db3565b5b602082029050602081019050919050565b600080fd5b600080fd5b600073ffffffffffffffffffffffffffffffffffffffff82169050919050565b6000610e8f82610e64565b9050919050565b610e9f81610e84565b8114610eaa57600080fd5b50565b600081359050610ebc81610e96565b92915050565b6000819050919050565b610ed581610ec2565b8114610ee057600080fd5b50565b600081359050610ef281610ecc565b92915050565b600060408284031215610f0e57610f0d610e5f565b5b610f186040610e13565b90506000610f2884828501610ead565b6000830152506020610f3c84828501610ee3565b60208301525092915050565b6000610f5b610f5684610e2e565b610e13565b90508083825260208201905060408402830185811115610f7e57610f7d610e5a565b5b835b81811015610fa75780610f938882610ef8565b845260208401935050604081019050610f80565b5050509392505050565b600082601f830112610fc657610fc5610d9d565b5b8135610fd6848260208601610f48565b91505092915050565b600060208284031215610ff557610ff4610d93565b5b600082013567ffffffffffffffff81111561101357611012610d98565b5b61101f84828501610fb1565b91505092915050565b60006020828403121561103e5761103d610d93565b5b600061104c84828501610ead565b91505092915050565b61105e81610e84565b82525050565b60006020820190506110796000830184611055565b92915050565b600081519050919050565b600082825260208201905092915050565b6000819050602082019050919050565b6110b481610e84565b82525050565b6110c381610ec2565b82525050565b6040820160008201516110df60008501826110ab565b5060208201516110f260208501826110ba565b50505050565b600061110483836110c9565b60408301905092915050565b6000602082019050919050565b60006111288261107f565b611132818561108a565b935061113d8361109b565b8060005b8381101561116e57815161115588826110f8565b975061116083611110565b925050600181019050611141565b5085935050505092915050565b60006020820190508181036000830152611195818461111d565b905092915050565b600082825260208201905092915050565b7f4f776e61626c653a2063616c6c6572206973206e6f7420746865206f776e6572600082015250565b60006111e460208361119d565b91506111ef826111ae565b602082019050919050565b60006020820190508181036000830152611213816111d7565b9050919050565b7f696e76616c696420726563697069656e74206e756d6265720000000000000000600082015250565b600061125060188361119d565b915061125b8261121a565b602082019050919050565b6000602082019050818103600083015261127f81611243565b9050919050565b7f4e487b7100000000000000000000000000000000000000000000000000000000600052603260045260246000fd5b7f696e76616c696420726563697069656e74206164647265737300000000000000600082015250565b60006112eb60198361119d565b91506112f6826112b5565b602082019050919050565b6000602082019050818103600083015261131a816112de565b9050919050565b7f696e76616c696420726563697069656e7420616c6c6f636174696f6e00000000600082015250565b6000611357601c8361119d565b915061136282611321565b602082019050919050565b600060208201905081810360008301526113868161134a565b9050919050565b7f4e487b7100000000000000000000000000000000000000000000000000000000600052601160045260246000fd5b60006113c782610ec2565b91506113d283610ec2565b9250827fffffffffffffffffffffffffffffffffffffffffffffffffffffffffffffffff038211156114075761140661138d565b5b828201905092915050565b600061141d82610ec2565b91507fffffffffffffffffffffffffffffffffffffffffffffffffffffffffffffffff8214156114505761144f61138d565b5b600182019050919050565b7f746f74616c20616c6c6f636174696f6e7320646f206e6f7420657175616c207460008201527f6f2064656e6f6d696e61746f7200000000000000000000000000000000000000602082015250565b60006114b7602d8361119d565b91506114c28261145b565b604082019050919050565b600060208201905081810360008301526114e6816114aa565b9050919050565b6000815190506114fc81610ecc565b92915050565b60006020828403121561151857611517610d93565b5b6000611526848285016114ed565b91505092915050565b7f63616e6e6f742064697374726962757465207a65726f00000000000000000000600082015250565b600061156560168361119d565b91506115708261152f565b602082019050919050565b6000602082019050818103600083015261159481611558565b9050919050565b60006115a682610ec2565b91506115b183610ec2565b9250828210156115c4576115c361138d565b5b828203905092915050565b60006115da82610ec2565b91506115e583610ec2565b9250817fffffffffffffffffffffffffffffffffffffffffffffffffffffffffffffffff048311821515161561161e5761161d61138d565b5b828202905092915050565b7f4e487b7100000000000000000000000000000000000000000000000000000000600052601260045260246000fd5b600061166382610ec2565b915061166e83610ec2565b92508261167e5761167d611629565b5b828204905092915050565b61169281610ec2565b82525050565b60006040820190506116ad6000830185611055565b6116ba6020830184611689565b9392505050565b7f6e6f20726563697069656e742065786973747300000000000000000000000000600082015250565b60006116f760138361119d565b9150611702826116c1565b602082019050919050565b60006020820190508181036000830152611726816116ea565b9050919050565b7f4f776e61626c653a206e6577206f776e657220697320746865207a65726f206160008201527f6464726573730000000000000000000000000000000000000000000000000000602082015250565b600061178960268361119d565b91506117948261172d565b604082019050919050565b600060208201905081810360008301526117b88161177c565b9050919050565b60008115159050919050565b6117d4816117bf565b81146117df57600080fd5b50565b6000815190506117f1816117cb565b92915050565b60006020828403121561180d5761180c610d93565b5b600061181b848285016117e2565b91505092915050565b7f5361666545524332303a204552433230206f7065726174696f6e20646964206e60008201527f6f74207375636365656400000000000000000000000000000000000000000000602082015250565b6000611880602a8361119d565b915061188b82611824565b604082019050919050565b600060208201905081810360008301526118af81611873565b9050919050565b7f416464726573733a20696e73756666696369656e742062616c616e636520666f60008201527f722063616c6c0000000000000000000000000000000000000000000000000000602082015250565b600061191260268361119d565b915061191d826118b6565b604082019050919050565b6000602082019050818103600083015261194181611905565b9050919050565b7f416464726573733a2063616c6c20746f206e6f6e2d636f6e7472616374000000600082015250565b600061197e601d8361119d565b915061198982611948565b602082019050919050565b600060208201905081810360008301526119ad81611971565b9050919050565b600081519050919050565b600081905092915050565b60005b838110156119e85780820151818401526020810190506119cd565b838111156119f7576000848401525b50505050565b6000611a08826119b4565b611a1281856119bf565b9350611a228185602086016119ca565b80840191505092915050565b6000611a3a82846119fd565b915081905092915050565b600081519050919050565b6000611a5b82611a45565b611a65818561119d565b9350611a758185602086016119ca565b611a7e81610da2565b840191505092915050565b60006020820190508181036000830152611aa38184611a50565b90509291505056fea264697066735822122008ffe36df4717a52c6899f399c1d2e062a66fe96a2aa63d73b8e55149fcfe84f64736f6c63430008090033",
  "linkReferences": {},
  "deployedLinkReferences": {}
}