{
  "_format": "hh-sol-artifact-1",
  "contractName": "TreasuryVester",
  "sourceName": "contracts/treasury-vester/TreasuryVester.sol",
  "abi": [
    {
      "inputs": [
        {
          "internalType": "address",
          "name": "newVestedToken",
          "type": "address"
        },
        {
          "internalType": "uint256",
          "name": "newStartingBalance",
          "type": "uint256"
        },
        {
          "components": [
            {
              "internalType": "address",
              "name": "account",
              "type": "address"
            },
            {
              "internalType": "uint256",
              "name": "allocation",
              "type": "uint256"
            },
            {
              "internalType": "bool",
              "name": "isMiniChef",
              "type": "bool"
            }
          ],
          "internalType": "struct TreasuryVester.Recipient[]",
          "name": "newRecipients",
          "type": "tuple[]"
        },
        {
          "internalType": "address",
          "name": "newGuardian",
          "type": "address"
        }
      ],
      "stateMutability": "nonpayable",
      "type": "constructor"
    },
    {
      "anonymous": false,
      "inputs": [
        {
          "indexed": true,
          "internalType": "address",
          "name": "previousOwner",
          "type": "address"
        },
        {
          "indexed": true,
          "internalType": "address",
          "name": "newOwner",
          "type": "address"
        }
      ],
      "name": "OwnershipTransferred",
      "type": "event"
    },
    {
      "anonymous": false,
      "inputs": [
        {
          "components": [
            {
              "internalType": "address",
              "name": "account",
              "type": "address"
            },
            {
              "internalType": "uint256",
              "name": "allocation",
              "type": "uint256"
            },
            {
              "internalType": "bool",
              "name": "isMiniChef",
              "type": "bool"
            }
          ],
          "indexed": false,
          "internalType": "struct TreasuryVester.Recipient[]",
          "name": "newRecipients",
          "type": "tuple[]"
        }
      ],
      "name": "RecipientsChanged",
      "type": "event"
    },
    {
      "anonymous": false,
      "inputs": [
        {
          "indexed": false,
          "internalType": "uint256",
          "name": "amount",
          "type": "uint256"
        }
      ],
      "name": "TokensVested",
      "type": "event"
    },
    {
      "anonymous": false,
      "inputs": [],
      "name": "VestingEnabled",
      "type": "event"
    },
    {
      "inputs": [],
      "name": "distribute",
      "outputs": [],
      "stateMutability": "nonpayable",
      "type": "function"
    },
    {
      "inputs": [],
      "name": "getRecipients",
      "outputs": [
        {
          "components": [
            {
              "internalType": "address",
              "name": "account",
              "type": "address"
            },
            {
              "internalType": "uint256",
              "name": "allocation",
              "type": "uint256"
            },
            {
              "internalType": "bool",
              "name": "isMiniChef",
              "type": "bool"
            }
          ],
          "internalType": "struct TreasuryVester.Recipient[]",
          "name": "",
          "type": "tuple[]"
        }
      ],
      "stateMutability": "view",
      "type": "function"
    },
    {
      "inputs": [],
      "name": "getVestingAmount",
      "outputs": [
        {
          "internalType": "uint256",
          "name": "",
          "type": "uint256"
        }
      ],
      "stateMutability": "view",
      "type": "function"
    },
    {
      "inputs": [],
      "name": "guardian",
      "outputs": [
        {
          "internalType": "address",
          "name": "",
          "type": "address"
        }
      ],
      "stateMutability": "view",
      "type": "function"
    },
    {
      "inputs": [],
      "name": "lastUpdate",
      "outputs": [
        {
          "internalType": "uint256",
          "name": "",
          "type": "uint256"
        }
      ],
      "stateMutability": "view",
      "type": "function"
    },
    {
      "inputs": [],
      "name": "owner",
      "outputs": [
        {
          "internalType": "address",
          "name": "",
          "type": "address"
        }
      ],
      "stateMutability": "view",
      "type": "function"
    },
    {
      "inputs": [],
      "name": "renounceOwnership",
      "outputs": [],
      "stateMutability": "nonpayable",
      "type": "function"
    },
    {
      "inputs": [
        {
          "components": [
            {
              "internalType": "address",
              "name": "account",
              "type": "address"
            },
            {
              "internalType": "uint256",
              "name": "allocation",
              "type": "uint256"
            },
            {
              "internalType": "bool",
              "name": "isMiniChef",
              "type": "bool"
            }
          ],
          "internalType": "struct TreasuryVester.Recipient[]",
          "name": "newRecipients",
          "type": "tuple[]"
        }
      ],
      "name": "setRecipients",
      "outputs": [],
      "stateMutability": "nonpayable",
      "type": "function"
    },
    {
      "inputs": [],
      "name": "startVesting",
      "outputs": [],
      "stateMutability": "nonpayable",
      "type": "function"
    },
    {
      "inputs": [],
      "name": "startingBalance",
      "outputs": [
        {
          "internalType": "uint256",
          "name": "",
          "type": "uint256"
        }
      ],
      "stateMutability": "view",
      "type": "function"
    },
    {
      "inputs": [],
      "name": "step",
      "outputs": [
        {
          "internalType": "uint256",
          "name": "",
          "type": "uint256"
        }
      ],
      "stateMutability": "view",
      "type": "function"
    },
    {
      "inputs": [
        {
          "internalType": "address",
          "name": "newOwner",
          "type": "address"
        }
      ],
      "name": "transferOwnership",
      "outputs": [],
      "stateMutability": "nonpayable",
      "type": "function"
    },
    {
      "inputs": [],
      "name": "vestedToken",
      "outputs": [
        {
          "internalType": "contract IHol",
          "name": "",
          "type": "address"
        }
      ],
      "stateMutability": "view",
      "type": "function"
    },
    {
      "inputs": [],
      "name": "vestingEnabled",
      "outputs": [
        {
          "internalType": "bool",
          "name": "",
          "type": "bool"
        }
      ],
      "stateMutability": "view",
      "type": "function"
    }
  ],
  "bytecode": "0x60c06040526040518060a001604052806109c461ffff16815260200161057861ffff16815260200161032061ffff16815260200161021261ffff16815260200161018661ffff1681525060089060056200005b92919062000680565b503480156200006957600080fd5b50604051620031e8380380620031e883398181016040528101906200008f9190620009c4565b620000af620000a36200027360201b60201c565b6200027b60201b60201c565b60008311620000f5576040517f08c379a0000000000000000000000000000000000000000000000000000000008152600401620000ec9062000adc565b60405180910390fd5b600073ffffffffffffffffffffffffffffffffffffffff168173ffffffffffffffffffffffffffffffffffffffff16141562000168576040517f08c379a00000000000000000000000000000000000000000000000000000000081526004016200015f9062000b74565b60405180910390fd5b600073ffffffffffffffffffffffffffffffffffffffff168473ffffffffffffffffffffffffffffffffffffffff161415620001db576040517f08c379a0000000000000000000000000000000000000000000000000000000008152600401620001d29062000c0c565b60405180910390fd5b80600260006101000a81548173ffffffffffffffffffffffffffffffffffffffff021916908373ffffffffffffffffffffffffffffffffffffffff1602179055508373ffffffffffffffffffffffffffffffffffffffff1660808173ffffffffffffffffffffffffffffffffffffffff16815250508260a0818152505062000269826200033f60201b60201c565b5050505062001165565b600033905090565b60008060009054906101000a900473ffffffffffffffffffffffffffffffffffffffff169050816000806101000a81548173ffffffffffffffffffffffffffffffffffffffff021916908373ffffffffffffffffffffffffffffffffffffffff1602179055508173ffffffffffffffffffffffffffffffffffffffff168173ffffffffffffffffffffffffffffffffffffffff167f8be0079c531659141344cd1fd0a4f28419497f9722a3daafe3b4186f6b6457e060405160405180910390a35050565b6200034f6200027360201b60201c565b73ffffffffffffffffffffffffffffffffffffffff16620003756200065760201b60201c565b73ffffffffffffffffffffffffffffffffffffffff1614620003ce576040517f08c379a0000000000000000000000000000000000000000000000000000000008152600401620003c59062000c7e565b60405180910390fd5b8051600681905550600060065414158015620003ec57506051600654105b6200042e576040517f08c379a0000000000000000000000000000000000000000000000000000000008152600401620004259062000d16565b60405180910390fd5b6000805b600654811015620005d257600083828151811062000455576200045462000d38565b5b60200260200101519050600073ffffffffffffffffffffffffffffffffffffffff16816000015173ffffffffffffffffffffffffffffffffffffffff161415620004d6576040517f08c379a0000000000000000000000000000000000000000000000000000000008152600401620004cd9062000ddd565b60405180910390fd5b60008160200151141562000521576040517f08c379a0000000000000000000000000000000000000000000000000000000008152600401620005189062000e75565b60405180910390fd5b806001600084815260200190815260200160002060008201518160000160006101000a81548173ffffffffffffffffffffffffffffffffffffffff021916908373ffffffffffffffffffffffffffffffffffffffff1602179055506020820151816001015560408201518160020160006101000a81548160ff021916908315150217905550905050806020015183620005bb919062000ec6565b92505080620005ca9062000f23565b905062000432565b5061271081146200061a576040517f08c379a0000000000000000000000000000000000000000000000000000000008152600401620006119062000fe7565b60405180910390fd5b7f460ea22cf0e4fc57af938b5999c20c34746291ba7c678329289ca316290b88f2826040516200064b919062001141565b60405180910390a15050565b60008060009054906101000a900473ffffffffffffffffffffffffffffffffffffffff16905090565b8260058101928215620006b8579160200282015b82811115620006b7578251829061ffff1690559160200191906001019062000694565b5b509050620006c79190620006cb565b5090565b5b80821115620006e6576000816000905550600101620006cc565b5090565b6000604051905090565b600080fd5b600080fd5b600073ffffffffffffffffffffffffffffffffffffffff82169050919050565b60006200072b82620006fe565b9050919050565b6200073d816200071e565b81146200074957600080fd5b50565b6000815190506200075d8162000732565b92915050565b6000819050919050565b620007788162000763565b81146200078457600080fd5b50565b60008151905062000798816200076d565b92915050565b600080fd5b6000601f19601f8301169050919050565b7f4e487b7100000000000000000000000000000000000000000000000000000000600052604160045260246000fd5b620007ee82620007a3565b810181811067ffffffffffffffff8211171562000810576200080f620007b4565b5b80604052505050565b600062000825620006ea565b9050620008338282620007e3565b919050565b600067ffffffffffffffff821115620008565762000855620007b4565b5b602082029050602081019050919050565b600080fd5b600080fd5b60008115159050919050565b620008888162000871565b81146200089457600080fd5b50565b600081519050620008a8816200087d565b92915050565b600060608284031215620008c757620008c66200086c565b5b620008d3606062000819565b90506000620008e5848285016200074c565b6000830152506020620008fb8482850162000787565b6020830152506040620009118482850162000897565b60408301525092915050565b6000620009346200092e8462000838565b62000819565b905080838252602082019050606084028301858111156200095a576200095962000867565b5b835b81811015620009875780620009728882620008ae565b8452602084019350506060810190506200095c565b5050509392505050565b600082601f830112620009a957620009a86200079e565b5b8151620009bb8482602086016200091d565b91505092915050565b60008060008060808587031215620009e157620009e0620006f4565b5b6000620009f1878288016200074c565b945050602062000a048782880162000787565b935050604085015167ffffffffffffffff81111562000a285762000a27620006f9565b5b62000a368782880162000991565b925050606062000a49878288016200074c565b91505092959194509250565b600082825260208201905092915050565b7f54726561737572795665737465723a3a436f6e7374727563746f723a20696e7660008201527f616c6964207374617274696e672062616c616e63650000000000000000000000602082015250565b600062000ac460358362000a55565b915062000ad18262000a66565b604082019050919050565b6000602082019050818103600083015262000af78162000ab5565b9050919050565b7f54726561737572795665737465723a3a436f6e7374727563746f723a20696e7660008201527f616c696420677561726469616e20616464726573730000000000000000000000602082015250565b600062000b5c60358362000a55565b915062000b698262000afe565b604082019050919050565b6000602082019050818103600083015262000b8f8162000b4d565b9050919050565b7f54726561737572795665737465723a3a436f6e7374727563746f723a20696e7660008201527f616c696420746f6b656e20616464726573730000000000000000000000000000602082015250565b600062000bf460328362000a55565b915062000c018262000b96565b604082019050919050565b6000602082019050818103600083015262000c278162000be5565b9050919050565b7f4f776e61626c653a2063616c6c6572206973206e6f7420746865206f776e6572600082015250565b600062000c6660208362000a55565b915062000c738262000c2e565b602082019050919050565b6000602082019050818103600083015262000c998162000c57565b9050919050565b7f54726561737572795665737465723a3a736574526563697069656e74733a206960008201527f6e76616c696420726563697069656e74206e756d626572000000000000000000602082015250565b600062000cfe60378362000a55565b915062000d0b8262000ca0565b604082019050919050565b6000602082019050818103600083015262000d318162000cef565b9050919050565b7f4e487b7100000000000000000000000000000000000000000000000000000000600052603260045260246000fd5b7f54726561737572795665737465723a3a736574526563697069656e74733a206960008201527f6e76616c696420726563697069656e7420616464726573730000000000000000602082015250565b600062000dc560388362000a55565b915062000dd28262000d67565b604082019050919050565b6000602082019050818103600083015262000df88162000db6565b9050919050565b7f54726561737572795665737465723a3a736574526563697069656e74733a206960008201527f6e76616c696420726563697069656e7420616c6c6f636174696f6e0000000000602082015250565b600062000e5d603b8362000a55565b915062000e6a8262000dff565b604082019050919050565b6000602082019050818103600083015262000e908162000e4e565b9050919050565b7f4e487b7100000000000000000000000000000000000000000000000000000000600052601160045260246000fd5b600062000ed38262000763565b915062000ee08362000763565b9250827fffffffffffffffffffffffffffffffffffffffffffffffffffffffffffffffff0382111562000f185762000f1762000e97565b5b828201905092915050565b600062000f308262000763565b91507fffffffffffffffffffffffffffffffffffffffffffffffffffffffffffffffff82141562000f665762000f6562000e97565b5b600182019050919050565b7f54726561737572795665737465723a3a736574526563697069656e74733a206960008201527f6e76616c696420746f74616c20616c6c6f636174696f6e000000000000000000602082015250565b600062000fcf60378362000a55565b915062000fdc8262000f71565b604082019050919050565b60006020820190508181036000830152620010028162000fc0565b9050919050565b600081519050919050565b600082825260208201905092915050565b6000819050602082019050919050565b62001040816200071e565b82525050565b620010518162000763565b82525050565b620010628162000871565b82525050565b60608201600082015162001080600085018262001035565b50602082015162001095602085018262001046565b506040820151620010aa604085018262001057565b50505050565b6000620010be838362001068565b60608301905092915050565b6000602082019050919050565b6000620010e48262001009565b620010f0818562001014565b9350620010fd8362001025565b8060005b8381101562001134578151620011188882620010b0565b97506200112583620010ca565b92505060018101905062001101565b5085935050505092915050565b600060208201905081810360008301526200115d8184620010d7565b905092915050565b60805160a051612041620011a76000396000818161025f015261069e0152600081816102c901528181610c7201528181610d290152610dd701526120416000f3fe608060405234801561001057600080fd5b50600436106100ea5760003560e01c806394bd2d3b1161008c578063deb36e3211610066578063deb36e3214610205578063e25fe1751461020f578063e4fc6b6d1461022d578063f2fde38b14610237576100ea565b806394bd2d3b146101ab578063c0463711146101c9578063d78d610b146101e7576100ea565b8063715018a6116100c8578063715018a61461014957806377b872a8146101535780637f87bbd61461016f5780638da5cb5b1461018d576100ea565b80633f57faa9146100ef578063452a93201461010d5780635de297411461012b575b600080fd5b6100f7610253565b6040516101049190611161565b60405180910390f35b6101156102a1565b60405161012291906111bd565b60405180910390f35b6101336102c7565b6040516101409190611237565b60405180910390f35b6101516102eb565b005b61016d600480360381019061016891906114b8565b610373565b005b610177610660565b6040516101849190611510565b60405180910390f35b610195610673565b6040516101a291906111bd565b60405180910390f35b6101b361069c565b6040516101c09190611161565b60405180910390f35b6101d16106c0565b6040516101de9190611161565b60405180910390f35b6101ef6106c6565b6040516101fc9190611649565b60405180910390f35b61020d610845565b005b6102176109b9565b6040516102249190611161565b60405180910390f35b6102356109bf565b005b610251600480360381019061024c919061166b565b610f4b565b005b6000601e6127106007547f000000000000000000000000000000000000000000000000000000000000000061028891906116c7565b6102929190611750565b61029c9190611750565b905090565b600260009054906101000a900473ffffffffffffffffffffffffffffffffffffffff1681565b7f000000000000000000000000000000000000000000000000000000000000000081565b6102f3611043565b73ffffffffffffffffffffffffffffffffffffffff16610311610673565b73ffffffffffffffffffffffffffffffffffffffff1614610367576040517f08c379a000000000000000000000000000000000000000000000000000000000815260040161035e906117de565b60405180910390fd5b610371600061104b565b565b61037b611043565b73ffffffffffffffffffffffffffffffffffffffff16610399610673565b73ffffffffffffffffffffffffffffffffffffffff16146103ef576040517f08c379a00000000000000000000000000000000000000000000000000000000081526004016103e6906117de565b60405180910390fd5b805160068190555060006006541415801561040c57506051600654105b61044b576040517f08c379a000000000000000000000000000000000000000000000000000000000815260040161044290611870565b60405180910390fd5b6000805b6006548110156105e057600083828151811061046e5761046d611890565b5b60200260200101519050600073ffffffffffffffffffffffffffffffffffffffff16816000015173ffffffffffffffffffffffffffffffffffffffff1614156104ec576040517f08c379a00000000000000000000000000000000000000000000000000000000081526004016104e390611931565b60405180910390fd5b600081602001511415610534576040517f08c379a000000000000000000000000000000000000000000000000000000000815260040161052b906119c3565b60405180910390fd5b806001600084815260200190815260200160002060008201518160000160006101000a81548173ffffffffffffffffffffffffffffffffffffffff021916908373ffffffffffffffffffffffffffffffffffffffff1602179055506020820151816001015560408201518160020160006101000a81548160ff0219169083151502179055509050508060200151836105cc91906119e3565b925050806105d990611a39565b905061044f565b506127108114610625576040517f08c379a000000000000000000000000000000000000000000000000000000000815260040161061c90611af4565b60405180910390fd5b7f460ea22cf0e4fc57af938b5999c20c34746291ba7c678329289ca316290b88f2826040516106549190611649565b60405180910390a15050565b600260149054906101000a900460ff1681565b60008060009054906101000a900473ffffffffffffffffffffffffffffffffffffffff16905090565b7f000000000000000000000000000000000000000000000000000000000000000081565b60035481565b60606000600654141561070e576040517f08c379a000000000000000000000000000000000000000000000000000000000815260040161070590611b86565b60405180910390fd5b600060065467ffffffffffffffff81111561072c5761072b61127c565b5b60405190808252806020026020018201604052801561076557816020015b61075261110f565b81526020019060019003908161074a5790505b50905060005b60065481101561083d57600160008281526020019081526020016000206040518060600160405290816000820160009054906101000a900473ffffffffffffffffffffffffffffffffffffffff1673ffffffffffffffffffffffffffffffffffffffff1673ffffffffffffffffffffffffffffffffffffffff168152602001600182015481526020016002820160009054906101000a900460ff16151515158152505082828151811061082157610820611890565b5b60200260200101819052508061083690611a39565b905061076b565b508091505090565b600260009054906101000a900473ffffffffffffffffffffffffffffffffffffffff1673ffffffffffffffffffffffffffffffffffffffff163373ffffffffffffffffffffffffffffffffffffffff1614806108d357506108a4610673565b73ffffffffffffffffffffffffffffffffffffffff163373ffffffffffffffffffffffffffffffffffffffff16145b610912576040517f08c379a000000000000000000000000000000000000000000000000000000000815260040161090990611c18565b60405180910390fd5b600260149054906101000a900460ff1615610962576040517f08c379a000000000000000000000000000000000000000000000000000000000815260040161095990611caa565b60405180910390fd5b61096a610253565b6005819055506001600260146101000a81548160ff0219169083151502179055507ff78a71daf05bb8e3a2ef9c526b1bb785285cdb83a6130cd12a3bbd5c99c15fa360405160405180910390a1565b60045481565b600260149054906101000a900460ff16610a0e576040517f08c379a0000000000000000000000000000000000000000000000000000000008152600401610a0590611d3c565b60405180910390fd5b62015180600354610a1f91906119e3565b421015610a61576040517f08c379a0000000000000000000000000000000000000000000000000000000008152600401610a5890611dce565b60405180910390fd5b426003819055506000601e600454610a799190611dee565b1415610b82576000601e600454610a909190611750565b90506005811015610abc5760088160058110610aaf57610aae611890565b5b0154600781905550610b72565b600c811015610ae457601460076000828254610ad89190611e1f565b92505081905550610b71565b6014811015610b0c57600f60076000828254610b009190611e1f565b92505081905550610b70565b601e811015610b3457600a60076000828254610b289190611e1f565b92505081905550610b6f565b6040517f08c379a0000000000000000000000000000000000000000000000000000000008152600401610b6690611ec5565b60405180910390fd5b5b5b5b610b7a610253565b600581905550505b60046000815480929190610b9590611a39565b919050555060005b600654811015610f0f576000600160008381526020019081526020016000206040518060600160405290816000820160009054906101000a900473ffffffffffffffffffffffffffffffffffffffff1673ffffffffffffffffffffffffffffffffffffffff1673ffffffffffffffffffffffffffffffffffffffff168152602001600182015481526020016002820160009054906101000a900460ff161515151581525050905060006127106005548360200151610c5b91906116c7565b610c659190611750565b90508160400151610d27577f000000000000000000000000000000000000000000000000000000000000000073ffffffffffffffffffffffffffffffffffffffff166340c10f198360000151836040518363ffffffff1660e01b8152600401610ccf929190611ee5565b602060405180830381600087803b158015610ce957600080fd5b505af1158015610cfd573d6000803e3d6000fd5b505050506040513d601f19601f82011682018060405250810190610d219190611f23565b50610efc565b7f000000000000000000000000000000000000000000000000000000000000000073ffffffffffffffffffffffffffffffffffffffff166340c10f1930836040518363ffffffff1660e01b8152600401610d82929190611ee5565b602060405180830381600087803b158015610d9c57600080fd5b505af1158015610db0573d6000803e3d6000fd5b505050506040513d601f19601f82011682018060405250810190610dd49190611f23565b507f000000000000000000000000000000000000000000000000000000000000000073ffffffffffffffffffffffffffffffffffffffff1663095ea7b38360000151836040518363ffffffff1660e01b8152600401610e34929190611ee5565b602060405180830381600087803b158015610e4e57600080fd5b505af1158015610e62573d6000803e3d6000fd5b505050506040513d601f19601f82011682018060405250810190610e869190611f23565b50816000015173ffffffffffffffffffffffffffffffffffffffff16632866255182620151806040518363ffffffff1660e01b8152600401610ec9929190611f50565b600060405180830381600087803b158015610ee357600080fd5b505af1158015610ef7573d6000803e3d6000fd5b505050505b505080610f0890611a39565b9050610b9d565b507f18e32149723bc1845d2f18b51098a91c1a7f211f1fa7ee2d32d73d6039bd3941600554604051610f419190611161565b60405180910390a1565b610f53611043565b73ffffffffffffffffffffffffffffffffffffffff16610f71610673565b73ffffffffffffffffffffffffffffffffffffffff1614610fc7576040517f08c379a0000000000000000000000000000000000000000000000000000000008152600401610fbe906117de565b60405180910390fd5b600073ffffffffffffffffffffffffffffffffffffffff168173ffffffffffffffffffffffffffffffffffffffff161415611037576040517f08c379a000000000000000000000000000000000000000000000000000000000815260040161102e90611feb565b60405180910390fd5b6110408161104b565b50565b600033905090565b60008060009054906101000a900473ffffffffffffffffffffffffffffffffffffffff169050816000806101000a81548173ffffffffffffffffffffffffffffffffffffffff021916908373ffffffffffffffffffffffffffffffffffffffff1602179055508173ffffffffffffffffffffffffffffffffffffffff168173ffffffffffffffffffffffffffffffffffffffff167f8be0079c531659141344cd1fd0a4f28419497f9722a3daafe3b4186f6b6457e060405160405180910390a35050565b6040518060600160405280600073ffffffffffffffffffffffffffffffffffffffff168152602001600081526020016000151581525090565b6000819050919050565b61115b81611148565b82525050565b60006020820190506111766000830184611152565b92915050565b600073ffffffffffffffffffffffffffffffffffffffff82169050919050565b60006111a78261117c565b9050919050565b6111b78161119c565b82525050565b60006020820190506111d260008301846111ae565b92915050565b6000819050919050565b60006111fd6111f86111f38461117c565b6111d8565b61117c565b9050919050565b600061120f826111e2565b9050919050565b600061122182611204565b9050919050565b61123181611216565b82525050565b600060208201905061124c6000830184611228565b92915050565b6000604051905090565b600080fd5b600080fd5b600080fd5b6000601f19601f8301169050919050565b7f4e487b7100000000000000000000000000000000000000000000000000000000600052604160045260246000fd5b6112b48261126b565b810181811067ffffffffffffffff821117156112d3576112d261127c565b5b80604052505050565b60006112e6611252565b90506112f282826112ab565b919050565b600067ffffffffffffffff8211156113125761131161127c565b5b602082029050602081019050919050565b600080fd5b600080fd5b6113368161119c565b811461134157600080fd5b50565b6000813590506113538161132d565b92915050565b61136281611148565b811461136d57600080fd5b50565b60008135905061137f81611359565b92915050565b60008115159050919050565b61139a81611385565b81146113a557600080fd5b50565b6000813590506113b781611391565b92915050565b6000606082840312156113d3576113d2611328565b5b6113dd60606112dc565b905060006113ed84828501611344565b600083015250602061140184828501611370565b6020830152506040611415848285016113a8565b60408301525092915050565b600061143461142f846112f7565b6112dc565b9050808382526020820190506060840283018581111561145757611456611323565b5b835b81811015611480578061146c88826113bd565b845260208401935050606081019050611459565b5050509392505050565b600082601f83011261149f5761149e611266565b5b81356114af848260208601611421565b91505092915050565b6000602082840312156114ce576114cd61125c565b5b600082013567ffffffffffffffff8111156114ec576114eb611261565b5b6114f88482850161148a565b91505092915050565b61150a81611385565b82525050565b60006020820190506115256000830184611501565b92915050565b600081519050919050565b600082825260208201905092915050565b6000819050602082019050919050565b6115608161119c565b82525050565b61156f81611148565b82525050565b61157e81611385565b82525050565b60608201600082015161159a6000850182611557565b5060208201516115ad6020850182611566565b5060408201516115c06040850182611575565b50505050565b60006115d28383611584565b60608301905092915050565b6000602082019050919050565b60006115f68261152b565b6116008185611536565b935061160b83611547565b8060005b8381101561163c57815161162388826115c6565b975061162e836115de565b92505060018101905061160f565b5085935050505092915050565b6000602082019050818103600083015261166381846115eb565b905092915050565b6000602082840312156116815761168061125c565b5b600061168f84828501611344565b91505092915050565b7f4e487b7100000000000000000000000000000000000000000000000000000000600052601160045260246000fd5b60006116d282611148565b91506116dd83611148565b9250817fffffffffffffffffffffffffffffffffffffffffffffffffffffffffffffffff048311821515161561171657611715611698565b5b828202905092915050565b7f4e487b7100000000000000000000000000000000000000000000000000000000600052601260045260246000fd5b600061175b82611148565b915061176683611148565b92508261177657611775611721565b5b828204905092915050565b600082825260208201905092915050565b7f4f776e61626c653a2063616c6c6572206973206e6f7420746865206f776e6572600082015250565b60006117c8602083611781565b91506117d382611792565b602082019050919050565b600060208201905081810360008301526117f7816117bb565b9050919050565b7f54726561737572795665737465723a3a736574526563697069656e74733a206960008201527f6e76616c696420726563697069656e74206e756d626572000000000000000000602082015250565b600061185a603783611781565b9150611865826117fe565b604082019050919050565b600060208201905081810360008301526118898161184d565b9050919050565b7f4e487b7100000000000000000000000000000000000000000000000000000000600052603260045260246000fd5b7f54726561737572795665737465723a3a736574526563697069656e74733a206960008201527f6e76616c696420726563697069656e7420616464726573730000000000000000602082015250565b600061191b603883611781565b9150611926826118bf565b604082019050919050565b6000602082019050818103600083015261194a8161190e565b9050919050565b7f54726561737572795665737465723a3a736574526563697069656e74733a206960008201527f6e76616c696420726563697069656e7420616c6c6f636174696f6e0000000000602082015250565b60006119ad603b83611781565b91506119b882611951565b604082019050919050565b600060208201905081810360008301526119dc816119a0565b9050919050565b60006119ee82611148565b91506119f983611148565b9250827fffffffffffffffffffffffffffffffffffffffffffffffffffffffffffffffff03821115611a2e57611a2d611698565b5b828201905092915050565b6000611a4482611148565b91507fffffffffffffffffffffffffffffffffffffffffffffffffffffffffffffffff821415611a7757611a76611698565b5b600182019050919050565b7f54726561737572795665737465723a3a736574526563697069656e74733a206960008201527f6e76616c696420746f74616c20616c6c6f636174696f6e000000000000000000602082015250565b6000611ade603783611781565b9150611ae982611a82565b604082019050919050565b60006020820190508181036000830152611b0d81611ad1565b9050919050565b7f54726561737572795665737465723a3a676574526563697069656e74733a206e60008201527f6f20726563697069656e74732065786973740000000000000000000000000000602082015250565b6000611b70603283611781565b9150611b7b82611b14565b604082019050919050565b60006020820190508181036000830152611b9f81611b63565b9050919050565b7f54726561737572795665737465723a3a737461727456657374696e673a20756e60008201527f617574686f72697a6564206d6573736167652073656e64657200000000000000602082015250565b6000611c02603983611781565b9150611c0d82611ba6565b604082019050919050565b60006020820190508181036000830152611c3181611bf5565b9050919050565b7f54726561737572795665737465723a3a737461727456657374696e673a20766560008201527f7374696e6720697320616c726561647920656e61626c65640000000000000000602082015250565b6000611c94603883611781565b9150611c9f82611c38565b604082019050919050565b60006020820190508181036000830152611cc381611c87565b9050919050565b7f54726561737572795665737465723a3a646973747269627574653a207665737460008201527f696e67206973206e6f7420656e61626c65640000000000000000000000000000602082015250565b6000611d26603283611781565b9150611d3182611cca565b604082019050919050565b60006020820190508181036000830152611d5581611d19565b9050919050565b7f54726561737572795665737465723a3a646973747269627574653a206974206960008201527f7320746f6f206561726c7920746f206469737472696275746500000000000000602082015250565b6000611db8603983611781565b9150611dc382611d5c565b604082019050919050565b60006020820190508181036000830152611de781611dab565b9050919050565b6000611df982611148565b9150611e0483611148565b925082611e1457611e13611721565b5b828206905092915050565b6000611e2a82611148565b9150611e3583611148565b925082821015611e4857611e47611698565b5b828203905092915050565b7f54726561737572795665737465723a3a646973747269627574653a207665737460008201527f696e67206973206f766572000000000000000000000000000000000000000000602082015250565b6000611eaf602b83611781565b9150611eba82611e53565b604082019050919050565b60006020820190508181036000830152611ede81611ea2565b9050919050565b6000604082019050611efa60008301856111ae565b611f076020830184611152565b9392505050565b600081519050611f1d81611391565b92915050565b600060208284031215611f3957611f3861125c565b5b6000611f4784828501611f0e565b91505092915050565b6000604082019050611f656000830185611152565b611f726020830184611152565b9392505050565b7f4f776e61626c653a206e6577206f776e657220697320746865207a65726f206160008201527f6464726573730000000000000000000000000000000000000000000000000000602082015250565b6000611fd5602683611781565b9150611fe082611f79565b604082019050919050565b6000602082019050818103600083015261200481611fc8565b905091905056fea2646970667358221220737283552e8b6df32b6730e7fce68e88e8224338afe84884d5f792ea08c210d564736f6c63430008090033",
  "linkReferences": {},
  "deployedLinkReferences": {}
}