{
  "_format": "hh-sol-artifact-1",
  "contractName": "PangolinFeeCollector",
  "sourceName": "contracts/fee-collector/FeeCollector.sol",
  "abi": [
    {
      "inputs": [
        {
          "internalType": "address",
          "name": "_stakingRewards",
          "type": "address"
        },
        {
          "internalType": "address",
          "name": "_router",
          "type": "address"
        },
        {
          "internalType": "address",
          "name": "_miniChef",
          "type": "address"
        },
        {
          "internalType": "uint256",
          "name": "_pid",
          "type": "uint256"
        },
        {
          "internalType": "address",
          "name": "_governor",
          "type": "address"
        },
        {
          "internalType": "address",
          "name": "_wrappedToken",
          "type": "address"
        },
        {
          "internalType": "address",
          "name": "_treasury",
          "type": "address"
        }
      ],
      "stateMutability": "nonpayable",
      "type": "constructor"
    },
    {
      "anonymous": false,
      "inputs": [
        {
          "indexed": true,
          "internalType": "address",
          "name": "previousOwner",
          "type": "address"
        },
        {
          "indexed": true,
          "internalType": "address",
          "name": "newOwner",
          "type": "address"
        }
      ],
      "name": "OwnershipTransferred",
      "type": "event"
    },
    {
      "inputs": [],
      "name": "FEE_DENOMINATOR",
      "outputs": [
        {
          "internalType": "uint256",
          "name": "",
          "type": "uint256"
        }
      ],
      "stateMutability": "view",
      "type": "function"
    },
    {
      "inputs": [],
      "name": "MAX_INCENTIVE",
      "outputs": [
        {
          "internalType": "uint256",
          "name": "",
          "type": "uint256"
        }
      ],
      "stateMutability": "view",
      "type": "function"
    },
    {
      "inputs": [],
      "name": "governor",
      "outputs": [
        {
          "internalType": "address",
          "name": "",
          "type": "address"
        }
      ],
      "stateMutability": "view",
      "type": "function"
    },
    {
      "inputs": [
        {
          "internalType": "address[]",
          "name": "liquidityPairs",
          "type": "address[]"
        },
        {
          "internalType": "bool",
          "name": "claimMiniChef",
          "type": "bool"
        }
      ],
      "name": "harvest",
      "outputs": [],
      "stateMutability": "nonpayable",
      "type": "function"
    },
    {
      "inputs": [],
      "name": "harvestIncentive",
      "outputs": [
        {
          "internalType": "uint256",
          "name": "",
          "type": "uint256"
        }
      ],
      "stateMutability": "view",
      "type": "function"
    },
    {
      "inputs": [],
      "name": "miniChef",
      "outputs": [
        {
          "internalType": "address",
          "name": "",
          "type": "address"
        }
      ],
      "stateMutability": "view",
      "type": "function"
    },
    {
      "inputs": [],
      "name": "miniChefPoolId",
      "outputs": [
        {
          "internalType": "uint256",
          "name": "",
          "type": "uint256"
        }
      ],
      "stateMutability": "view",
      "type": "function"
    },
    {
      "inputs": [],
      "name": "owner",
      "outputs": [
        {
          "internalType": "address",
          "name": "",
          "type": "address"
        }
      ],
      "stateMutability": "view",
      "type": "function"
    },
    {
      "inputs": [],
      "name": "pangolinRouter",
      "outputs": [
        {
          "internalType": "address",
          "name": "",
          "type": "address"
        }
      ],
      "stateMutability": "view",
      "type": "function"
    },
    {
      "inputs": [],
      "name": "renounceOwnership",
      "outputs": [],
      "stateMutability": "nonpayable",
      "type": "function"
    },
    {
      "inputs": [
        {
          "internalType": "uint256",
          "name": "_harvestIncentive",
          "type": "uint256"
        }
      ],
      "name": "setHarvestIncentive",
      "outputs": [],
      "stateMutability": "nonpayable",
      "type": "function"
    },
    {
      "inputs": [
        {
          "internalType": "address",
          "name": "_miniChef",
          "type": "address"
        }
      ],
      "name": "setMiniChef",
      "outputs": [],
      "stateMutability": "nonpayable",
      "type": "function"
    },
    {
      "inputs": [
        {
          "internalType": "uint256",
          "name": "_pid",
          "type": "uint256"
        }
      ],
      "name": "setMiniChefPool",
      "outputs": [],
      "stateMutability": "nonpayable",
      "type": "function"
    },
    {
      "inputs": [
        {
          "internalType": "address",
          "name": "_stakingRewards",
          "type": "address"
        }
      ],
      "name": "setRewardsContract",
      "outputs": [],
      "stateMutability": "nonpayable",
      "type": "function"
    },
    {
      "inputs": [
        {
          "internalType": "uint256",
          "name": "_rewardsDuration",
          "type": "uint256"
        }
      ],
      "name": "setRewardsDuration",
      "outputs": [],
      "stateMutability": "nonpayable",
      "type": "function"
    },
    {
      "inputs": [
        {
          "internalType": "address",
          "name": "_treasury",
          "type": "address"
        }
      ],
      "name": "setTreasury",
      "outputs": [],
      "stateMutability": "nonpayable",
      "type": "function"
    },
    {
      "inputs": [
        {
          "internalType": "uint256",
          "name": "_treasuryFee",
          "type": "uint256"
        }
      ],
      "name": "setTreasuryFee",
      "outputs": [],
      "stateMutability": "nonpayable",
      "type": "function"
    },
    {
      "inputs": [],
      "name": "stakingRewards",
      "outputs": [
        {
          "internalType": "address",
          "name": "",
          "type": "address"
        }
      ],
      "stateMutability": "view",
      "type": "function"
    },
    {
      "inputs": [
        {
          "internalType": "address",
          "name": "newOwner",
          "type": "address"
        }
      ],
      "name": "transferOwnership",
      "outputs": [],
      "stateMutability": "nonpayable",
      "type": "function"
    },
    {
      "inputs": [
        {
          "internalType": "address",
          "name": "_newOwner",
          "type": "address"
        }
      ],
      "name": "transferStakingOwnership",
      "outputs": [],
      "stateMutability": "nonpayable",
      "type": "function"
    },
    {
      "inputs": [],
      "name": "treasury",
      "outputs": [
        {
          "internalType": "address",
          "name": "",
          "type": "address"
        }
      ],
      "stateMutability": "view",
      "type": "function"
    },
    {
      "inputs": [],
      "name": "treasuryFee",
      "outputs": [
        {
          "internalType": "uint256",
          "name": "",
          "type": "uint256"
        }
      ],
      "stateMutability": "view",
      "type": "function"
    },
    {
      "inputs": [],
      "name": "wrappedNativeToken",
      "outputs": [
        {
          "internalType": "address",
          "name": "",
          "type": "address"
        }
      ],
      "stateMutability": "view",
      "type": "function"
    }
  ],
  "bytecode": "0x60e0604052600a600355610bb86004553480156200001c57600080fd5b50604051620038de380380620038de8339818101604052810190620000429190620003b9565b62000062620000566200024860201b60201c565b6200025060201b60201c565b600073ffffffffffffffffffffffffffffffffffffffff168773ffffffffffffffffffffffffffffffffffffffff161415620000d5576040517f08c379a0000000000000000000000000000000000000000000000000000000008152600401620000cc90620004cd565b60405180910390fd5b86600160006101000a81548173ffffffffffffffffffffffffffffffffffffffff021916908373ffffffffffffffffffffffffffffffffffffffff1602179055508573ffffffffffffffffffffffffffffffffffffffff1660808173ffffffffffffffffffffffffffffffffffffffff168152505084600560006101000a81548173ffffffffffffffffffffffffffffffffffffffff021916908373ffffffffffffffffffffffffffffffffffffffff160217905550836006819055508273ffffffffffffffffffffffffffffffffffffffff1660a08173ffffffffffffffffffffffffffffffffffffffff16815250508173ffffffffffffffffffffffffffffffffffffffff1660c08173ffffffffffffffffffffffffffffffffffffffff168152505080600260006101000a81548173ffffffffffffffffffffffffffffffffffffffff021916908373ffffffffffffffffffffffffffffffffffffffff16021790555050505050505050620004ef565b600033905090565b60008060009054906101000a900473ffffffffffffffffffffffffffffffffffffffff169050816000806101000a81548173ffffffffffffffffffffffffffffffffffffffff021916908373ffffffffffffffffffffffffffffffffffffffff1602179055508173ffffffffffffffffffffffffffffffffffffffff168173ffffffffffffffffffffffffffffffffffffffff167f8be0079c531659141344cd1fd0a4f28419497f9722a3daafe3b4186f6b6457e060405160405180910390a35050565b600080fd5b600073ffffffffffffffffffffffffffffffffffffffff82169050919050565b6000620003468262000319565b9050919050565b620003588162000339565b81146200036457600080fd5b50565b60008151905062000378816200034d565b92915050565b6000819050919050565b62000393816200037e565b81146200039f57600080fd5b50565b600081519050620003b38162000388565b92915050565b600080600080600080600060e0888a031215620003db57620003da62000314565b5b6000620003eb8a828b0162000367565b9750506020620003fe8a828b0162000367565b9650506040620004118a828b0162000367565b9550506060620004248a828b01620003a2565b9450506080620004378a828b0162000367565b93505060a06200044a8a828b0162000367565b92505060c06200045d8a828b0162000367565b91505092959891949750929550565b600082825260208201905092915050565b7f496e76616c696420616464726573730000000000000000000000000000000000600082015250565b6000620004b5600f836200046c565b9150620004c2826200047d565b602082019050919050565b60006020820190508181036000830152620004e881620004a6565b9050919050565b60805160a05160c0516133806200055e6000396000818161040201528181611a9b01528181611af00152611ccf0152600081816103de01526106ca0152600081816105d201528181611844015281816118d601528181611d9101528181611ddd0152611e2501526133806000f3fe608060405234801561001057600080fd5b506004361061014d5760003560e01c80637e2be195116100c3578063cfabe8ed1161007c578063cfabe8ed14610330578063d73792a91461034c578063dfa0dfa51461036a578063e2ff7ea214610386578063f0f44260146103a4578063f2fde38b146103c05761014d565b80637e2be195146102825780638da5cb5b1461029e57806394916bae146102bc578063cc1a378f146102d8578063cc32d176146102f4578063cd6e7def146103125761014d565b8063572996c711610115578063572996c7146101e65780635af0cd901461020257806361d027b31461022057806364b87a701461023e578063715018a61461025c57806377e741c7146102665761014d565b80630c340a241461015257806317fcb39b146101705780633024a3071461018e5780633792a7fb146101ac5780634005760a146101c8575b600080fd5b61015a6103dc565b60405161016791906122e8565b60405180910390f35b610178610400565b60405161018591906122e8565b60405180910390f35b610196610424565b6040516101a3919061231c565b60405180910390f35b6101c660048036038101906101c19190612377565b61042a565b005b6101d06104b0565b6040516101dd91906122e8565b60405180910390f35b61020060048036038101906101fb91906123d0565b6104d6565b005b61020a6105d0565b60405161021791906122e8565b60405180910390f35b6102286105f4565b60405161023591906122e8565b60405180910390f35b61024661061a565b60405161025391906122e8565b60405180910390f35b610264610640565b005b610280600480360381019061027b9190612377565b6106c8565b005b61029c60048036038101906102979190612377565b6107b2565b005b6102a66108ce565b6040516102b391906122e8565b60405180910390f35b6102d660048036038101906102d1919061258e565b6108f7565b005b6102f260048036038101906102ed9190612377565b610d82565b005b6102fc610e8e565b604051610309919061231c565b60405180910390f35b61031a610e94565b604051610327919061231c565b60405180910390f35b61034a600480360381019061034591906123d0565b610e9a565b005b610354610fa6565b604051610361919061231c565b60405180910390f35b610384600480360381019061037f91906123d0565b610fac565b005b61038e6110dc565b60405161039b919061231c565b60405180910390f35b6103be60048036038101906103b991906123d0565b6110e1565b005b6103da60048036038101906103d591906123d0565b6111db565b005b7f000000000000000000000000000000000000000000000000000000000000000081565b7f000000000000000000000000000000000000000000000000000000000000000081565b60065481565b6104326112d3565b73ffffffffffffffffffffffffffffffffffffffff166104506108ce565b73ffffffffffffffffffffffffffffffffffffffff16146104a6576040517f08c379a000000000000000000000000000000000000000000000000000000000815260040161049d90612647565b60405180910390fd5b8060068190555050565b600560009054906101000a900473ffffffffffffffffffffffffffffffffffffffff1681565b6104de6112d3565b73ffffffffffffffffffffffffffffffffffffffff166104fc6108ce565b73ffffffffffffffffffffffffffffffffffffffff1614610552576040517f08c379a000000000000000000000000000000000000000000000000000000000815260040161054990612647565b60405180910390fd5b600073ffffffffffffffffffffffffffffffffffffffff168173ffffffffffffffffffffffffffffffffffffffff16141561058c57600080fd5b80600560006101000a81548173ffffffffffffffffffffffffffffffffffffffff021916908373ffffffffffffffffffffffffffffffffffffffff16021790555050565b7f000000000000000000000000000000000000000000000000000000000000000081565b600260009054906101000a900473ffffffffffffffffffffffffffffffffffffffff1681565b600160009054906101000a900473ffffffffffffffffffffffffffffffffffffffff1681565b6106486112d3565b73ffffffffffffffffffffffffffffffffffffffff166106666108ce565b73ffffffffffffffffffffffffffffffffffffffff16146106bc576040517f08c379a00000000000000000000000000000000000000000000000000000000081526004016106b390612647565b60405180910390fd5b6106c660006112db565b565b7f000000000000000000000000000000000000000000000000000000000000000073ffffffffffffffffffffffffffffffffffffffff163373ffffffffffffffffffffffffffffffffffffffff1614610756576040517f08c379a000000000000000000000000000000000000000000000000000000000815260040161074d906126b3565b60405180910390fd5b612710816003546107679190612702565b11156107a8576040517f08c379a000000000000000000000000000000000000000000000000000000000815260040161079f906127a4565b60405180910390fd5b8060048190555050565b6107ba6112d3565b73ffffffffffffffffffffffffffffffffffffffff166107d86108ce565b73ffffffffffffffffffffffffffffffffffffffff161461082e576040517f08c379a000000000000000000000000000000000000000000000000000000000815260040161082590612647565b60405180910390fd5b60c8811115610872576040517f08c379a000000000000000000000000000000000000000000000000000000000815260040161086990612810565b60405180910390fd5b612710600454826108839190612702565b11156108c4576040517f08c379a00000000000000000000000000000000000000000000000000000000081526004016108bb906127a4565b60405180910390fd5b8060038190555050565b60008060009054906101000a900473ffffffffffffffffffffffffffffffffffffffff16905090565b6109163373ffffffffffffffffffffffffffffffffffffffff1661139f565b15801561094e57503273ffffffffffffffffffffffffffffffffffffffff163373ffffffffffffffffffffffffffffffffffffffff16145b61098d576040517f08c379a00000000000000000000000000000000000000000000000000000000081526004016109849061287c565b60405180910390fd5b6032825111156109d2576040517f08c379a00000000000000000000000000000000000000000000000000000000081526004016109c9906128e8565b60405180910390fd5b6000600160009054906101000a900473ffffffffffffffffffffffffffffffffffffffff1673ffffffffffffffffffffffffffffffffffffffff1663d1af0c7d6040518163ffffffff1660e01b815260040160206040518083038186803b158015610a3c57600080fd5b505afa158015610a50573d6000803e3d6000fd5b505050506040513d601f19601f82011682018060405250810190610a74919061291d565b90508115610b0e57600560009054906101000a900473ffffffffffffffffffffffffffffffffffffffff1673ffffffffffffffffffffffffffffffffffffffff166318fccc76600654306040518363ffffffff1660e01b8152600401610adb92919061294a565b600060405180830381600087803b158015610af557600080fd5b505af1158015610b09573d6000803e3d6000fd5b505050505b600083511115610b2357610b2283826113b2565b5b60008173ffffffffffffffffffffffffffffffffffffffff166370a08231306040518263ffffffff1660e01b8152600401610b5e91906122e8565b60206040518083038186803b158015610b7657600080fd5b505afa158015610b8a573d6000803e3d6000fd5b505050506040513d601f19601f82011682018060405250810190610bae9190612988565b9050600061271060035483610bc391906129b5565b610bcd9190612a3e565b9050600061271060045484610be291906129b5565b610bec9190612a3e565b90506000818385610bfd9190612a6f565b610c079190612a6f565b90506000811115610ced57610c5f600160009054906101000a900473ffffffffffffffffffffffffffffffffffffffff16828773ffffffffffffffffffffffffffffffffffffffff166117a09092919063ffffffff16565b600160009054906101000a900473ffffffffffffffffffffffffffffffffffffffff1673ffffffffffffffffffffffffffffffffffffffff16633c6b16ab826040518263ffffffff1660e01b8152600401610cba919061231c565b600060405180830381600087803b158015610cd457600080fd5b505af1158015610ce8573d6000803e3d6000fd5b505050505b6000821115610d4457610d43600260009054906101000a900473ffffffffffffffffffffffffffffffffffffffff16838773ffffffffffffffffffffffffffffffffffffffff166117a09092919063ffffffff16565b5b6000831115610d7957610d7833848773ffffffffffffffffffffffffffffffffffffffff166117a09092919063ffffffff16565b5b50505050505050565b610d8a6112d3565b73ffffffffffffffffffffffffffffffffffffffff16610da86108ce565b73ffffffffffffffffffffffffffffffffffffffff1614610dfe576040517f08c379a0000000000000000000000000000000000000000000000000000000008152600401610df590612647565b60405180910390fd5b600160009054906101000a900473ffffffffffffffffffffffffffffffffffffffff1673ffffffffffffffffffffffffffffffffffffffff1663cc1a378f826040518263ffffffff1660e01b8152600401610e59919061231c565b600060405180830381600087803b158015610e7357600080fd5b505af1158015610e87573d6000803e3d6000fd5b5050505050565b60045481565b60035481565b610ea26112d3565b73ffffffffffffffffffffffffffffffffffffffff16610ec06108ce565b73ffffffffffffffffffffffffffffffffffffffff1614610f16576040517f08c379a0000000000000000000000000000000000000000000000000000000008152600401610f0d90612647565b60405180910390fd5b600160009054906101000a900473ffffffffffffffffffffffffffffffffffffffff1673ffffffffffffffffffffffffffffffffffffffff1663f2fde38b826040518263ffffffff1660e01b8152600401610f7191906122e8565b600060405180830381600087803b158015610f8b57600080fd5b505af1158015610f9f573d6000803e3d6000fd5b5050505050565b61271081565b610fb46112d3565b73ffffffffffffffffffffffffffffffffffffffff16610fd26108ce565b73ffffffffffffffffffffffffffffffffffffffff1614611028576040517f08c379a000000000000000000000000000000000000000000000000000000000815260040161101f90612647565b60405180910390fd5b600073ffffffffffffffffffffffffffffffffffffffff168173ffffffffffffffffffffffffffffffffffffffff161415611098576040517f08c379a000000000000000000000000000000000000000000000000000000000815260040161108f90612aef565b60405180910390fd5b80600160006101000a81548173ffffffffffffffffffffffffffffffffffffffff021916908373ffffffffffffffffffffffffffffffffffffffff16021790555050565b60c881565b6110e96112d3565b73ffffffffffffffffffffffffffffffffffffffff166111076108ce565b73ffffffffffffffffffffffffffffffffffffffff161461115d576040517f08c379a000000000000000000000000000000000000000000000000000000000815260040161115490612647565b60405180910390fd5b600073ffffffffffffffffffffffffffffffffffffffff168173ffffffffffffffffffffffffffffffffffffffff16141561119757600080fd5b80600260006101000a81548173ffffffffffffffffffffffffffffffffffffffff021916908373ffffffffffffffffffffffffffffffffffffffff16021790555050565b6111e36112d3565b73ffffffffffffffffffffffffffffffffffffffff166112016108ce565b73ffffffffffffffffffffffffffffffffffffffff1614611257576040517f08c379a000000000000000000000000000000000000000000000000000000000815260040161124e90612647565b60405180910390fd5b600073ffffffffffffffffffffffffffffffffffffffff168173ffffffffffffffffffffffffffffffffffffffff1614156112c7576040517f08c379a00000000000000000000000000000000000000000000000000000000081526004016112be90612b81565b60405180910390fd5b6112d0816112db565b50565b600033905090565b60008060009054906101000a900473ffffffffffffffffffffffffffffffffffffffff169050816000806101000a81548173ffffffffffffffffffffffffffffffffffffffff021916908373ffffffffffffffffffffffffffffffffffffffff1602179055508173ffffffffffffffffffffffffffffffffffffffff168173ffffffffffffffffffffffffffffffffffffffff167f8be0079c531659141344cd1fd0a4f28419497f9722a3daafe3b4186f6b6457e060405160405180910390a35050565b600080823b905060008111915050919050565b600073ffffffffffffffffffffffffffffffffffffffff168173ffffffffffffffffffffffffffffffffffffffff161415611422576040517f08c379a000000000000000000000000000000000000000000000000000000000815260040161141990612bed565b60405180910390fd5b60005b825181101561179b57600083828151811061144357611442612c0d565b5b60200260200101519050600081905060008173ffffffffffffffffffffffffffffffffffffffff166370a08231306040518263ffffffff1660e01b815260040161148d91906122e8565b60206040518083038186803b1580156114a557600080fd5b505afa1580156114b9573d6000803e3d6000fd5b505050506040513d601f19601f820116820180604052508101906114dd9190612988565b90506000811115611787576114f28282611826565b60008273ffffffffffffffffffffffffffffffffffffffff16630dfe16816040518163ffffffff1660e01b815260040160206040518083038186803b15801561153a57600080fd5b505afa15801561154e573d6000803e3d6000fd5b505050506040513d601f19601f82011682018060405250810190611572919061291d565b905060008373ffffffffffffffffffffffffffffffffffffffff1663d21220a76040518163ffffffff1660e01b815260040160206040518083038186803b1580156115bc57600080fd5b505afa1580156115d0573d6000803e3d6000fd5b505050506040513d601f19601f820116820180604052508101906115f4919061291d565b90508673ffffffffffffffffffffffffffffffffffffffff168273ffffffffffffffffffffffffffffffffffffffff16146116bd576116bc82888473ffffffffffffffffffffffffffffffffffffffff166370a08231306040518263ffffffff1660e01b815260040161166791906122e8565b60206040518083038186803b15801561167f57600080fd5b505afa158015611693573d6000803e3d6000fd5b505050506040513d601f19601f820116820180604052508101906116b79190612988565b611a97565b5b8673ffffffffffffffffffffffffffffffffffffffff168173ffffffffffffffffffffffffffffffffffffffff16146117845761178381888373ffffffffffffffffffffffffffffffffffffffff166370a08231306040518263ffffffff1660e01b815260040161172e91906122e8565b60206040518083038186803b15801561174657600080fd5b505afa15801561175a573d6000803e3d6000fd5b505050506040513d601f19601f8201168201806040525081019061177e9190612988565b611a97565b5b50505b5050508061179490612c3c565b9050611425565b505050565b6118218363a9059cbb60e01b84846040516024016117bf929190612c85565b604051602081830303815290604052907bffffffffffffffffffffffffffffffffffffffffffffffffffffffff19166020820180517bffffffffffffffffffffffffffffffffffffffffffffffffffffffff8381831617835250505050611eef565b505050565b8173ffffffffffffffffffffffffffffffffffffffff1663095ea7b37f0000000000000000000000000000000000000000000000000000000000000000836040518363ffffffff1660e01b8152600401611881929190612c85565b602060405180830381600087803b15801561189b57600080fd5b505af11580156118af573d6000803e3d6000fd5b505050506040513d601f19601f820116820180604052508101906118d39190612cc3565b507f000000000000000000000000000000000000000000000000000000000000000073ffffffffffffffffffffffffffffffffffffffff1663baa2abde8373ffffffffffffffffffffffffffffffffffffffff16630dfe16816040518163ffffffff1660e01b815260040160206040518083038186803b15801561195657600080fd5b505afa15801561196a573d6000803e3d6000fd5b505050506040513d601f19601f8201168201806040525081019061198e919061291d565b8473ffffffffffffffffffffffffffffffffffffffff1663d21220a76040518163ffffffff1660e01b815260040160206040518083038186803b1580156119d457600080fd5b505afa1580156119e8573d6000803e3d6000fd5b505050506040513d601f19601f82011682018060405250810190611a0c919061291d565b8460008030603c42611a1e9190612702565b6040518863ffffffff1660e01b8152600401611a409796959493929190612d35565b6040805180830381600087803b158015611a5957600080fd5b505af1158015611a6d573d6000803e3d6000fd5b505050506040513d601f19601f82011682018060405250810190611a919190612da4565b50505050565b60607f000000000000000000000000000000000000000000000000000000000000000073ffffffffffffffffffffffffffffffffffffffff168373ffffffffffffffffffffffffffffffffffffffff161480611b3e57507f000000000000000000000000000000000000000000000000000000000000000073ffffffffffffffffffffffffffffffffffffffff168473ffffffffffffffffffffffffffffffffffffffff16145b15611c3257600267ffffffffffffffff811115611b5e57611b5d612413565b5b604051908082528060200260200182016040528015611b8c5781602001602082028036833780820191505090505b5090508381600081518110611ba457611ba3612c0d565b5b602002602001019073ffffffffffffffffffffffffffffffffffffffff16908173ffffffffffffffffffffffffffffffffffffffff16815250508281600181518110611bf357611bf2612c0d565b5b602002602001019073ffffffffffffffffffffffffffffffffffffffff16908173ffffffffffffffffffffffffffffffffffffffff1681525050611d8c565b600367ffffffffffffffff811115611c4d57611c4c612413565b5b604051908082528060200260200182016040528015611c7b5781602001602082028036833780820191505090505b5090508381600081518110611c9357611c92612c0d565b5b602002602001019073ffffffffffffffffffffffffffffffffffffffff16908173ffffffffffffffffffffffffffffffffffffffff16815250507f000000000000000000000000000000000000000000000000000000000000000081600181518110611d0257611d01612c0d565b5b602002602001019073ffffffffffffffffffffffffffffffffffffffff16908173ffffffffffffffffffffffffffffffffffffffff16815250508281600281518110611d5157611d50612c0d565b5b602002602001019073ffffffffffffffffffffffffffffffffffffffff16908173ffffffffffffffffffffffffffffffffffffffff16815250505b611dd87f000000000000000000000000000000000000000000000000000000000000000060008673ffffffffffffffffffffffffffffffffffffffff16611fb69092919063ffffffff16565b611e237f0000000000000000000000000000000000000000000000000000000000000000838673ffffffffffffffffffffffffffffffffffffffff16611fb69092919063ffffffff16565b7f000000000000000000000000000000000000000000000000000000000000000073ffffffffffffffffffffffffffffffffffffffff166338ed17398360008430603c42611e719190612702565b6040518663ffffffff1660e01b8152600401611e91959493929190612ea2565b600060405180830381600087803b158015611eab57600080fd5b505af1158015611ebf573d6000803e3d6000fd5b505050506040513d6000823e3d601f19601f82011682018060405250810190611ee89190612fbf565b5050505050565b6000611f51826040518060400160405280602081526020017f5361666545524332303a206c6f772d6c6576656c2063616c6c206661696c65648152508573ffffffffffffffffffffffffffffffffffffffff166121149092919063ffffffff16565b9050600081511115611fb15780806020019051810190611f719190612cc3565b611fb0576040517f08c379a0000000000000000000000000000000000000000000000000000000008152600401611fa79061307a565b60405180910390fd5b5b505050565b600081148061204f575060008373ffffffffffffffffffffffffffffffffffffffff1663dd62ed3e30856040518363ffffffff1660e01b8152600401611ffd92919061309a565b60206040518083038186803b15801561201557600080fd5b505afa158015612029573d6000803e3d6000fd5b505050506040513d601f19601f8201168201806040525081019061204d9190612988565b145b61208e576040517f08c379a000000000000000000000000000000000000000000000000000000000815260040161208590613135565b60405180910390fd5b61210f8363095ea7b360e01b84846040516024016120ad929190612c85565b604051602081830303815290604052907bffffffffffffffffffffffffffffffffffffffffffffffffffffffff19166020820180517bffffffffffffffffffffffffffffffffffffffffffffffffffffffff8381831617835250505050611eef565b505050565b6060612123848460008561212c565b90509392505050565b606082471015612171576040517f08c379a0000000000000000000000000000000000000000000000000000000008152600401612168906131c7565b60405180910390fd5b61217a8561139f565b6121b9576040517f08c379a00000000000000000000000000000000000000000000000000000000081526004016121b090613233565b60405180910390fd5b6000808673ffffffffffffffffffffffffffffffffffffffff1685876040516121e291906132cd565b60006040518083038185875af1925050503d806000811461221f576040519150601f19603f3d011682016040523d82523d6000602084013e612224565b606091505b5091509150612234828286612240565b92505050949350505050565b60608315612250578290506122a0565b6000835111156122635782518084602001fd5b816040517f08c379a00000000000000000000000000000000000000000000000000000000081526004016122979190613328565b60405180910390fd5b9392505050565b600073ffffffffffffffffffffffffffffffffffffffff82169050919050565b60006122d2826122a7565b9050919050565b6122e2816122c7565b82525050565b60006020820190506122fd60008301846122d9565b92915050565b6000819050919050565b61231681612303565b82525050565b6000602082019050612331600083018461230d565b92915050565b6000604051905090565b600080fd5b600080fd5b61235481612303565b811461235f57600080fd5b50565b6000813590506123718161234b565b92915050565b60006020828403121561238d5761238c612341565b5b600061239b84828501612362565b91505092915050565b6123ad816122c7565b81146123b857600080fd5b50565b6000813590506123ca816123a4565b92915050565b6000602082840312156123e6576123e5612341565b5b60006123f4848285016123bb565b91505092915050565b600080fd5b6000601f19601f8301169050919050565b7f4e487b7100000000000000000000000000000000000000000000000000000000600052604160045260246000fd5b61244b82612402565b810181811067ffffffffffffffff8211171561246a57612469612413565b5b80604052505050565b600061247d612337565b90506124898282612442565b919050565b600067ffffffffffffffff8211156124a9576124a8612413565b5b602082029050602081019050919050565b600080fd5b60006124d26124cd8461248e565b612473565b905080838252602082019050602084028301858111156124f5576124f46124ba565b5b835b8181101561251e578061250a88826123bb565b8452602084019350506020810190506124f7565b5050509392505050565b600082601f83011261253d5761253c6123fd565b5b813561254d8482602086016124bf565b91505092915050565b60008115159050919050565b61256b81612556565b811461257657600080fd5b50565b60008135905061258881612562565b92915050565b600080604083850312156125a5576125a4612341565b5b600083013567ffffffffffffffff8111156125c3576125c2612346565b5b6125cf85828601612528565b92505060206125e085828601612579565b9150509250929050565b600082825260208201905092915050565b7f4f776e61626c653a2063616c6c6572206973206e6f7420746865206f776e6572600082015250565b60006126316020836125ea565b915061263c826125fb565b602082019050919050565b6000602082019050818103600083015261266081612624565b9050919050565b7f476f7665726e6f72206f6e6c7900000000000000000000000000000000000000600082015250565b600061269d600d836125ea565b91506126a882612667565b602082019050919050565b600060208201905081810360008301526126cc81612690565b9050919050565b7f4e487b7100000000000000000000000000000000000000000000000000000000600052601160045260246000fd5b600061270d82612303565b915061271883612303565b9250827fffffffffffffffffffffffffffffffffffffffffffffffffffffffffffffffff0382111561274d5761274c6126d3565b5b828201905092915050565b7f546f74616c2066656573206d757374203c3d2031303000000000000000000000600082015250565b600061278e6016836125ea565b915061279982612758565b602082019050919050565b600060208201905081810360008301526127bd81612781565b9050919050565b7f496e63656e7469766520746f6f206c6172676500000000000000000000000000600082015250565b60006127fa6013836125ea565b9150612805826127c4565b602082019050919050565b60006020820190508181036000830152612829816127ed565b9050919050565b7f4e6f20636f6e7472616374730000000000000000000000000000000000000000600082015250565b6000612866600c836125ea565b915061287182612830565b602082019050919050565b6000602082019050818103600083015261289581612859565b9050919050565b7f3530207061697273206d61780000000000000000000000000000000000000000600082015250565b60006128d2600c836125ea565b91506128dd8261289c565b602082019050919050565b60006020820190508181036000830152612901816128c5565b9050919050565b600081519050612917816123a4565b92915050565b60006020828403121561293357612932612341565b5b600061294184828501612908565b91505092915050565b600060408201905061295f600083018561230d565b61296c60208301846122d9565b9392505050565b6000815190506129828161234b565b92915050565b60006020828403121561299e5761299d612341565b5b60006129ac84828501612973565b91505092915050565b60006129c082612303565b91506129cb83612303565b9250817fffffffffffffffffffffffffffffffffffffffffffffffffffffffffffffffff0483118215151615612a0457612a036126d3565b5b828202905092915050565b7f4e487b7100000000000000000000000000000000000000000000000000000000600052601260045260246000fd5b6000612a4982612303565b9150612a5483612303565b925082612a6457612a63612a0f565b5b828204905092915050565b6000612a7a82612303565b9150612a8583612303565b925082821015612a9857612a976126d3565b5b828203905092915050565b7f496e76616c696420616464726573730000000000000000000000000000000000600082015250565b6000612ad9600f836125ea565b9150612ae482612aa3565b602082019050919050565b60006020820190508181036000830152612b0881612acc565b9050919050565b7f4f776e61626c653a206e6577206f776e657220697320746865207a65726f206160008201527f6464726573730000000000000000000000000000000000000000000000000000602082015250565b6000612b6b6026836125ea565b9150612b7682612b0f565b604082019050919050565b60006020820190508181036000830152612b9a81612b5e565b9050919050565b7f4f757470757420746f6b656e20756e7370656369666965640000000000000000600082015250565b6000612bd76018836125ea565b9150612be282612ba1565b602082019050919050565b60006020820190508181036000830152612c0681612bca565b9050919050565b7f4e487b7100000000000000000000000000000000000000000000000000000000600052603260045260246000fd5b6000612c4782612303565b91507fffffffffffffffffffffffffffffffffffffffffffffffffffffffffffffffff821415612c7a57612c796126d3565b5b600182019050919050565b6000604082019050612c9a60008301856122d9565b612ca7602083018461230d565b9392505050565b600081519050612cbd81612562565b92915050565b600060208284031215612cd957612cd8612341565b5b6000612ce784828501612cae565b91505092915050565b6000819050919050565b6000819050919050565b6000612d1f612d1a612d1584612cf0565b612cfa565b612303565b9050919050565b612d2f81612d04565b82525050565b600060e082019050612d4a600083018a6122d9565b612d5760208301896122d9565b612d64604083018861230d565b612d716060830187612d26565b612d7e6080830186612d26565b612d8b60a08301856122d9565b612d9860c083018461230d565b98975050505050505050565b60008060408385031215612dbb57612dba612341565b5b6000612dc985828601612973565b9250506020612dda85828601612973565b9150509250929050565b600081519050919050565b600082825260208201905092915050565b6000819050602082019050919050565b612e19816122c7565b82525050565b6000612e2b8383612e10565b60208301905092915050565b6000602082019050919050565b6000612e4f82612de4565b612e598185612def565b9350612e6483612e00565b8060005b83811015612e95578151612e7c8882612e1f565b9750612e8783612e37565b925050600181019050612e68565b5085935050505092915050565b600060a082019050612eb7600083018861230d565b612ec46020830187612d26565b8181036040830152612ed68186612e44565b9050612ee560608301856122d9565b612ef2608083018461230d565b9695505050505050565b600067ffffffffffffffff821115612f1757612f16612413565b5b602082029050602081019050919050565b6000612f3b612f3684612efc565b612473565b90508083825260208201905060208402830185811115612f5e57612f5d6124ba565b5b835b81811015612f875780612f738882612973565b845260208401935050602081019050612f60565b5050509392505050565b600082601f830112612fa657612fa56123fd565b5b8151612fb6848260208601612f28565b91505092915050565b600060208284031215612fd557612fd4612341565b5b600082015167ffffffffffffffff811115612ff357612ff2612346565b5b612fff84828501612f91565b91505092915050565b7f5361666545524332303a204552433230206f7065726174696f6e20646964206e60008201527f6f74207375636365656400000000000000000000000000000000000000000000602082015250565b6000613064602a836125ea565b915061306f82613008565b604082019050919050565b6000602082019050818103600083015261309381613057565b9050919050565b60006040820190506130af60008301856122d9565b6130bc60208301846122d9565b9392505050565b7f5361666545524332303a20617070726f76652066726f6d206e6f6e2d7a65726f60008201527f20746f206e6f6e2d7a65726f20616c6c6f77616e636500000000000000000000602082015250565b600061311f6036836125ea565b915061312a826130c3565b604082019050919050565b6000602082019050818103600083015261314e81613112565b9050919050565b7f416464726573733a20696e73756666696369656e742062616c616e636520666f60008201527f722063616c6c0000000000000000000000000000000000000000000000000000602082015250565b60006131b16026836125ea565b91506131bc82613155565b604082019050919050565b600060208201905081810360008301526131e0816131a4565b9050919050565b7f416464726573733a2063616c6c20746f206e6f6e2d636f6e7472616374000000600082015250565b600061321d601d836125ea565b9150613228826131e7565b602082019050919050565b6000602082019050818103600083015261324c81613210565b9050919050565b600081519050919050565b600081905092915050565b60005b8381101561328757808201518184015260208101905061326c565b83811115613296576000848401525b50505050565b60006132a782613253565b6132b1818561325e565b93506132c1818560208601613269565b80840191505092915050565b60006132d9828461329c565b915081905092915050565b600081519050919050565b60006132fa826132e4565b61330481856125ea565b9350613314818560208601613269565b61331d81612402565b840191505092915050565b6000602082019050818103600083015261334281846132ef565b90509291505056fea264697066735822122097a8536a9dbf945e8df0cbb07d400717905634839b8bb15accd97a6297670a0364736f6c63430008090033",
  "linkReferences": {},
  "deployedLinkReferences": {}
}