{
  "_format": "hh-sol-artifact-1",
  "contractName": "BabylonianEchidnaTest",
  "sourceName": "contracts/pangolin-lib/test/BabylonianEchidnaTest.sol",
  "abi": [
    {
      "inputs": [],
      "name": "echidna_sqrtAlwaysLessThanMaxUint128",
      "outputs": [
        {
          "internalType": "bool",
          "name": "",
          "type": "bool"
        }
      ],
      "stateMutability": "view",
      "type": "function"
    },
    {
      "inputs": [],
      "name": "echidna_sqrtPlusOneSquaredAlwaysGtInput",
      "outputs": [
        {
          "internalType": "bool",
          "name": "",
          "type": "bool"
        }
      ],
      "stateMutability": "view",
      "type": "function"
    },
    {
      "inputs": [],
      "name": "echidna_sqrtSquaredAlwaysLteInput",
      "outputs": [
        {
          "internalType": "bool",
          "name": "",
          "type": "bool"
        }
      ],
      "stateMutability": "view",
      "type": "function"
    },
    {
      "inputs": [
        {
          "internalType": "uint256",
          "name": "input_",
          "type": "uint256"
        }
      ],
      "name": "storeSqrt",
      "outputs": [],
      "stateMutability": "nonpayable",
      "type": "function"
    }
  ],
  "bytecode": "0x608060405234801561001057600080fd5b506103d4806100206000396000f3fe608060405234801561001057600080fd5b506004361061004c5760003560e01c80632ffab2721461005157806373b3179e1461006f578063ccedcf5d1461008b578063cd3ec77a146100a9575b600080fd5b6100596100c7565b60405161006691906101dc565b60405180910390f35b61008960048036038101906100849190610232565b6100e4565b005b6100936100fd565b6040516100a091906101dc565b60405180910390f35b6100b161012c565b6040516100be91906101dc565b60405180910390f35b600070010000000000000000000000000000000060015410905090565b806000819055506100f481610147565b60018190555050565b6000806001805461010e919061028e565b90506000818261011e91906102e4565b905060005481119250505090565b6000805460015460015461014091906102e4565b1115905090565b600060038211156101ae5781905060006001600284610166919061036d565b610170919061028e565b90505b818110156101a857809150600281828561018d919061036d565b610197919061028e565b6101a1919061036d565b9050610173565b506101bc565b600082146101bb57600190505b5b919050565b60008115159050919050565b6101d6816101c1565b82525050565b60006020820190506101f160008301846101cd565b92915050565b600080fd5b6000819050919050565b61020f816101fc565b811461021a57600080fd5b50565b60008135905061022c81610206565b92915050565b600060208284031215610248576102476101f7565b5b60006102568482850161021d565b91505092915050565b7f4e487b7100000000000000000000000000000000000000000000000000000000600052601160045260246000fd5b6000610299826101fc565b91506102a4836101fc565b9250827fffffffffffffffffffffffffffffffffffffffffffffffffffffffffffffffff038211156102d9576102d861025f565b5b828201905092915050565b60006102ef826101fc565b91506102fa836101fc565b9250817fffffffffffffffffffffffffffffffffffffffffffffffffffffffffffffffff04831182151516156103335761033261025f565b5b828202905092915050565b7f4e487b7100000000000000000000000000000000000000000000000000000000600052601260045260246000fd5b6000610378826101fc565b9150610383836101fc565b9250826103935761039261033e565b5b82820490509291505056fea264697066735822122080480830f000a856e7bf56fa9e5d4cacc8f7a2dfc16ec08e02c9eeca6c5b9b0564736f6c63430008090033",
  "linkReferences": {},
  "deployedLinkReferences": {}
}