{
  "_format": "hh-sol-artifact-1",
  "contractName": "BabylonianTest",
  "sourceName": "contracts/pangolin-lib/test/BabylonianTest.sol",
  "abi": [
    {
      "inputs": [
        {
          "internalType": "uint256",
          "name": "num",
          "type": "uint256"
        }
      ],
      "name": "sqrt",
      "outputs": [
        {
          "internalType": "uint256",
          "name": "",
          "type": "uint256"
        }
      ],
      "stateMutability": "pure",
      "type": "function"
    }
  ],
  "bytecode": "0x608060405234801561001057600080fd5b50610299806100206000396000f3fe608060405234801561001057600080fd5b506004361061002b5760003560e01c8063677342ce14610030575b600080fd5b61004a60048036038101906100459190610127565b610060565b6040516100579190610163565b60405180910390f35b600061006b82610072565b9050919050565b600060038211156100d9578190506000600160028461009191906101dc565b61009b919061020d565b90505b818110156100d35780915060028182856100b891906101dc565b6100c2919061020d565b6100cc91906101dc565b905061009e565b506100e7565b600082146100e657600190505b5b919050565b600080fd5b6000819050919050565b610104816100f1565b811461010f57600080fd5b50565b600081359050610121816100fb565b92915050565b60006020828403121561013d5761013c6100ec565b5b600061014b84828501610112565b91505092915050565b61015d816100f1565b82525050565b60006020820190506101786000830184610154565b92915050565b7f4e487b7100000000000000000000000000000000000000000000000000000000600052601260045260246000fd5b7f4e487b7100000000000000000000000000000000000000000000000000000000600052601160045260246000fd5b60006101e7826100f1565b91506101f2836100f1565b9250826102025761020161017e565b5b828204905092915050565b6000610218826100f1565b9150610223836100f1565b9250827fffffffffffffffffffffffffffffffffffffffffffffffffffffffffffffffff03821115610258576102576101ad565b5b82820190509291505056fea26469706673582212200e928fcdd52729c0d08bd1dd87c40ec993acb44b3f571ed36ec9c3d9c4e495ed64736f6c63430008090033",
  "linkReferences": {},
  "deployedLinkReferences": {}
}