{
  "_format": "hh-sol-artifact-1",
  "contractName": "PangolinVoteCalculator",
  "sourceName": "contracts/governance/PangolinVoteCalculator.sol",
  "abi": [
    {
      "inputs": [
        {
          "internalType": "address",
          "name": "_png",
          "type": "address"
        },
        {
          "internalType": "address",
          "name": "_miniChef",
          "type": "address"
        }
      ],
      "stateMutability": "nonpayable",
      "type": "constructor"
    },
    {
      "anonymous": false,
      "inputs": [
        {
          "indexed": true,
          "internalType": "address",
          "name": "previousOwner",
          "type": "address"
        },
        {
          "indexed": true,
          "internalType": "address",
          "name": "newOwner",
          "type": "address"
        }
      ],
      "name": "OwnershipTransferred",
      "type": "event"
    },
    {
      "inputs": [
        {
          "internalType": "address",
          "name": "voter",
          "type": "address"
        },
        {
          "internalType": "uint256[]",
          "name": "pids",
          "type": "uint256[]"
        }
      ],
      "name": "getVotesFromFarming",
      "outputs": [
        {
          "internalType": "uint256",
          "name": "votes",
          "type": "uint256"
        }
      ],
      "stateMutability": "view",
      "type": "function"
    },
    {
      "inputs": [
        {
          "internalType": "address",
          "name": "voter",
          "type": "address"
        },
        {
          "internalType": "address[]",
          "name": "stakes",
          "type": "address[]"
        }
      ],
      "name": "getVotesFromStaking",
      "outputs": [
        {
          "internalType": "uint256",
          "name": "votes",
          "type": "uint256"
        }
      ],
      "stateMutability": "view",
      "type": "function"
    },
    {
      "inputs": [
        {
          "internalType": "address",
          "name": "voter",
          "type": "address"
        }
      ],
      "name": "getVotesFromWallets",
      "outputs": [
        {
          "internalType": "uint256",
          "name": "votes",
          "type": "uint256"
        }
      ],
      "stateMutability": "view",
      "type": "function"
    },
    {
      "inputs": [],
      "name": "owner",
      "outputs": [
        {
          "internalType": "address",
          "name": "",
          "type": "address"
        }
      ],
      "stateMutability": "view",
      "type": "function"
    },
    {
      "inputs": [],
      "name": "renounceOwnership",
      "outputs": [],
      "stateMutability": "nonpayable",
      "type": "function"
    },
    {
      "inputs": [
        {
          "internalType": "address",
          "name": "newOwner",
          "type": "address"
        }
      ],
      "name": "transferOwnership",
      "outputs": [],
      "stateMutability": "nonpayable",
      "type": "function"
    }
  ],
  "bytecode": "0x60806040523480156200001157600080fd5b50604051620016b6380380620016b6833981810160405281019062000037919062000217565b620000576200004b620000e160201b60201c565b620000e960201b60201c565b81600160006101000a81548173ffffffffffffffffffffffffffffffffffffffff021916908373ffffffffffffffffffffffffffffffffffffffff16021790555080600260006101000a81548173ffffffffffffffffffffffffffffffffffffffff021916908373ffffffffffffffffffffffffffffffffffffffff16021790555050506200025e565b600033905090565b60008060009054906101000a900473ffffffffffffffffffffffffffffffffffffffff169050816000806101000a81548173ffffffffffffffffffffffffffffffffffffffff021916908373ffffffffffffffffffffffffffffffffffffffff1602179055508173ffffffffffffffffffffffffffffffffffffffff168173ffffffffffffffffffffffffffffffffffffffff167f8be0079c531659141344cd1fd0a4f28419497f9722a3daafe3b4186f6b6457e060405160405180910390a35050565b600080fd5b600073ffffffffffffffffffffffffffffffffffffffff82169050919050565b6000620001df82620001b2565b9050919050565b620001f181620001d2565b8114620001fd57600080fd5b50565b6000815190506200021181620001e6565b92915050565b60008060408385031215620002315762000230620001ad565b5b6000620002418582860162000200565b9250506020620002548582860162000200565b9150509250929050565b611448806200026e6000396000f3fe608060405234801561001057600080fd5b50600436106100625760003560e01c80636122734914610067578063715018a6146100975780637e72292e146100a15780638b47dcd1146100d15780638da5cb5b14610101578063f2fde38b1461011f575b600080fd5b610081600480360381019061007c9190610c32565b61013b565b60405161008e9190610c78565b60405180910390f35b61009f610392565b005b6100bb60048036038101906100b69190610cf8565b61041a565b6040516100c89190610c78565b60405180910390f35b6100eb60048036038101906100e69190610dae565b610812565b6040516100f89190610c78565b60405180910390f35b6101096109d3565b6040516101169190610e1d565b60405180910390f35b61013960048036038101906101349190610c32565b6109fc565b005b6000600160009054906101000a900473ffffffffffffffffffffffffffffffffffffffff1673ffffffffffffffffffffffffffffffffffffffff1663b4b5ea57836040518263ffffffff1660e01b81526004016101989190610e1d565b60206040518083038186803b1580156101b057600080fd5b505afa1580156101c4573d6000803e3d6000fd5b505050506040513d601f19601f820116820180604052508101906101e89190610e64565b816101f39190610ec0565b9050600073ffffffffffffffffffffffffffffffffffffffff16600160009054906101000a900473ffffffffffffffffffffffffffffffffffffffff1673ffffffffffffffffffffffffffffffffffffffff1663587cde1e846040518263ffffffff1660e01b81526004016102689190610e1d565b60206040518083038186803b15801561028057600080fd5b505afa158015610294573d6000803e3d6000fd5b505050506040513d601f19601f820116820180604052508101906102b89190610f2b565b73ffffffffffffffffffffffffffffffffffffffff16141561038d57600160009054906101000a900473ffffffffffffffffffffffffffffffffffffffff1673ffffffffffffffffffffffffffffffffffffffff166370a08231836040518263ffffffff1660e01b815260040161032f9190610e1d565b60206040518083038186803b15801561034757600080fd5b505afa15801561035b573d6000803e3d6000fd5b505050506040513d601f19601f8201168201806040525081019061037f9190610e64565b8161038a9190610ec0565b90505b919050565b61039a610af4565b73ffffffffffffffffffffffffffffffffffffffff166103b86109d3565b73ffffffffffffffffffffffffffffffffffffffff161461040e576040517f08c379a000000000000000000000000000000000000000000000000000000000815260040161040590610fb5565b60405180910390fd5b6104186000610afc565b565b600080600260009054906101000a900473ffffffffffffffffffffffffffffffffffffffff1673ffffffffffffffffffffffffffffffffffffffff166334c0b46b6040518163ffffffff1660e01b815260040160006040518083038186803b15801561048557600080fd5b505afa158015610499573d6000803e3d6000fd5b505050506040513d6000823e3d601f19601f820116820180604052508101906104c29190611124565b905060005b848490508110156108095781518585838181106104e7576104e661116d565b5b90506020020135106104f8576107f6565b60008286868481811061050e5761050d61116d565b5b90506020020135815181106105265761052561116d565b5b6020026020010151905060008190506000600160009054906101000a900473ffffffffffffffffffffffffffffffffffffffff1673ffffffffffffffffffffffffffffffffffffffff166370a08231846040518263ffffffff1660e01b81526004016105929190610e1d565b60206040518083038186803b1580156105aa57600080fd5b505afa1580156105be573d6000803e3d6000fd5b505050506040513d601f19601f820116820180604052508101906105e29190610e64565b905060008273ffffffffffffffffffffffffffffffffffffffff166318160ddd6040518163ffffffff1660e01b815260040160206040518083038186803b15801561062c57600080fd5b505afa158015610640573d6000803e3d6000fd5b505050506040513d601f19601f820116820180604052508101906106649190610e64565b905060008373ffffffffffffffffffffffffffffffffffffffff166370a082318c6040518263ffffffff1660e01b81526004016106a19190610e1d565b60206040518083038186803b1580156106b957600080fd5b505afa1580156106cd573d6000803e3d6000fd5b505050506040513d601f19601f820116820180604052508101906106f19190610e64565b90506000600260009054906101000a900473ffffffffffffffffffffffffffffffffffffffff1673ffffffffffffffffffffffffffffffffffffffff166393f1a40b8c8c8a8181106107465761074561116d565b5b905060200201358e6040518363ffffffff1660e01b815260040161076b92919061119c565b604080518083038186803b15801561078257600080fd5b505afa158015610796573d6000803e3d6000fd5b505050506040513d601f19601f820116820180604052508101906107ba9190611250565b600001519050828482846107ce9190610ec0565b6107d8919061127d565b6107e29190611306565b896107ed9190610ec0565b98505050505050505b808061080190611337565b9150506104c7565b50509392505050565b6000805b838390508110156109cb5760008484838181106108365761083561116d565b5b905060200201602081019061084b9190610c32565b9050600160009054906101000a900473ffffffffffffffffffffffffffffffffffffffff1673ffffffffffffffffffffffffffffffffffffffff168173ffffffffffffffffffffffffffffffffffffffff166372f702f36040518163ffffffff1660e01b815260040160206040518083038186803b1580156108cc57600080fd5b505afa1580156108e0573d6000803e3d6000fd5b505050506040513d601f19601f820116820180604052508101906109049190610f2b565b73ffffffffffffffffffffffffffffffffffffffff1614156109b7578073ffffffffffffffffffffffffffffffffffffffff166370a08231876040518263ffffffff1660e01b81526004016109599190610e1d565b60206040518083038186803b15801561097157600080fd5b505afa158015610985573d6000803e3d6000fd5b505050506040513d601f19601f820116820180604052508101906109a99190610e64565b836109b49190610ec0565b92505b5080806109c390611337565b915050610816565b509392505050565b60008060009054906101000a900473ffffffffffffffffffffffffffffffffffffffff16905090565b610a04610af4565b73ffffffffffffffffffffffffffffffffffffffff16610a226109d3565b73ffffffffffffffffffffffffffffffffffffffff1614610a78576040517f08c379a0000000000000000000000000000000000000000000000000000000008152600401610a6f90610fb5565b60405180910390fd5b600073ffffffffffffffffffffffffffffffffffffffff168173ffffffffffffffffffffffffffffffffffffffff161415610ae8576040517f08c379a0000000000000000000000000000000000000000000000000000000008152600401610adf906113f2565b60405180910390fd5b610af181610afc565b50565b600033905090565b60008060009054906101000a900473ffffffffffffffffffffffffffffffffffffffff169050816000806101000a81548173ffffffffffffffffffffffffffffffffffffffff021916908373ffffffffffffffffffffffffffffffffffffffff1602179055508173ffffffffffffffffffffffffffffffffffffffff168173ffffffffffffffffffffffffffffffffffffffff167f8be0079c531659141344cd1fd0a4f28419497f9722a3daafe3b4186f6b6457e060405160405180910390a35050565b6000604051905090565b600080fd5b600080fd5b600073ffffffffffffffffffffffffffffffffffffffff82169050919050565b6000610bff82610bd4565b9050919050565b610c0f81610bf4565b8114610c1a57600080fd5b50565b600081359050610c2c81610c06565b92915050565b600060208284031215610c4857610c47610bca565b5b6000610c5684828501610c1d565b91505092915050565b6000819050919050565b610c7281610c5f565b82525050565b6000602082019050610c8d6000830184610c69565b92915050565b600080fd5b600080fd5b600080fd5b60008083601f840112610cb857610cb7610c93565b5b8235905067ffffffffffffffff811115610cd557610cd4610c98565b5b602083019150836020820283011115610cf157610cf0610c9d565b5b9250929050565b600080600060408486031215610d1157610d10610bca565b5b6000610d1f86828701610c1d565b935050602084013567ffffffffffffffff811115610d4057610d3f610bcf565b5b610d4c86828701610ca2565b92509250509250925092565b60008083601f840112610d6e57610d6d610c93565b5b8235905067ffffffffffffffff811115610d8b57610d8a610c98565b5b602083019150836020820283011115610da757610da6610c9d565b5b9250929050565b600080600060408486031215610dc757610dc6610bca565b5b6000610dd586828701610c1d565b935050602084013567ffffffffffffffff811115610df657610df5610bcf565b5b610e0286828701610d58565b92509250509250925092565b610e1781610bf4565b82525050565b6000602082019050610e326000830184610e0e565b92915050565b610e4181610c5f565b8114610e4c57600080fd5b50565b600081519050610e5e81610e38565b92915050565b600060208284031215610e7a57610e79610bca565b5b6000610e8884828501610e4f565b91505092915050565b7f4e487b7100000000000000000000000000000000000000000000000000000000600052601160045260246000fd5b6000610ecb82610c5f565b9150610ed683610c5f565b9250827fffffffffffffffffffffffffffffffffffffffffffffffffffffffffffffffff03821115610f0b57610f0a610e91565b5b828201905092915050565b600081519050610f2581610c06565b92915050565b600060208284031215610f4157610f40610bca565b5b6000610f4f84828501610f16565b91505092915050565b600082825260208201905092915050565b7f4f776e61626c653a2063616c6c6572206973206e6f7420746865206f776e6572600082015250565b6000610f9f602083610f58565b9150610faa82610f69565b602082019050919050565b60006020820190508181036000830152610fce81610f92565b9050919050565b6000601f19601f8301169050919050565b7f4e487b7100000000000000000000000000000000000000000000000000000000600052604160045260246000fd5b61101e82610fd5565b810181811067ffffffffffffffff8211171561103d5761103c610fe6565b5b80604052505050565b6000611050610bc0565b905061105c8282611015565b919050565b600067ffffffffffffffff82111561107c5761107b610fe6565b5b602082029050602081019050919050565b60006110a061109b84611061565b611046565b905080838252602082019050602084028301858111156110c3576110c2610c9d565b5b835b818110156110ec57806110d88882610f16565b8452602084019350506020810190506110c5565b5050509392505050565b600082601f83011261110b5761110a610c93565b5b815161111b84826020860161108d565b91505092915050565b60006020828403121561113a57611139610bca565b5b600082015167ffffffffffffffff81111561115857611157610bcf565b5b611164848285016110f6565b91505092915050565b7f4e487b7100000000000000000000000000000000000000000000000000000000600052603260045260246000fd5b60006040820190506111b16000830185610c69565b6111be6020830184610e0e565b9392505050565b600080fd5b6000819050919050565b6111dd816111ca565b81146111e857600080fd5b50565b6000815190506111fa816111d4565b92915050565b600060408284031215611216576112156111c5565b5b6112206040611046565b9050600061123084828501610e4f565b6000830152506020611244848285016111eb565b60208301525092915050565b60006040828403121561126657611265610bca565b5b600061127484828501611200565b91505092915050565b600061128882610c5f565b915061129383610c5f565b9250817fffffffffffffffffffffffffffffffffffffffffffffffffffffffffffffffff04831182151516156112cc576112cb610e91565b5b828202905092915050565b7f4e487b7100000000000000000000000000000000000000000000000000000000600052601260045260246000fd5b600061131182610c5f565b915061131c83610c5f565b92508261132c5761132b6112d7565b5b828204905092915050565b600061134282610c5f565b91507fffffffffffffffffffffffffffffffffffffffffffffffffffffffffffffffff82141561137557611374610e91565b5b600182019050919050565b7f4f776e61626c653a206e6577206f776e657220697320746865207a65726f206160008201527f6464726573730000000000000000000000000000000000000000000000000000602082015250565b60006113dc602683610f58565b91506113e782611380565b604082019050919050565b6000602082019050818103600083015261140b816113cf565b905091905056fea264697066735822122055cd41c5c9b1e89a4199c169052260825cc038f5b2761a54b736eb185d6a0c6c64736f6c63430008090033",
  "linkReferences": {},
  "deployedLinkReferences": {}
}