{
  "_format": "hh-sol-artifact-1",
  "contractName": "Airdrop",
  "sourceName": "contracts/pangolin-token/Airdrop.sol",
  "abi": [
    {
      "inputs": [
        {
          "internalType": "uint256",
          "name": "supply_",
          "type": "uint256"
        },
        {
          "internalType": "address",
          "name": "png_",
          "type": "address"
        },
        {
          "internalType": "address",
          "name": "owner_",
          "type": "address"
        },
        {
          "internalType": "address",
          "name": "remainderDestination_",
          "type": "address"
        }
      ],
      "stateMutability": "nonpayable",
      "type": "constructor"
    },
    {
      "anonymous": false,
      "inputs": [],
      "name": "ClaimingAllowed",
      "type": "event"
    },
    {
      "anonymous": false,
      "inputs": [],
      "name": "ClaimingOver",
      "type": "event"
    },
    {
      "anonymous": false,
      "inputs": [
        {
          "indexed": false,
          "internalType": "address",
          "name": "claimer",
          "type": "address"
        },
        {
          "indexed": false,
          "internalType": "uint256",
          "name": "amount",
          "type": "uint256"
        }
      ],
      "name": "PngClaimed",
      "type": "event"
    },
    {
      "inputs": [],
      "name": "airdropSupply",
      "outputs": [
        {
          "internalType": "uint256",
          "name": "",
          "type": "uint256"
        }
      ],
      "stateMutability": "view",
      "type": "function"
    },
    {
      "inputs": [],
      "name": "allowClaiming",
      "outputs": [],
      "stateMutability": "nonpayable",
      "type": "function"
    },
    {
      "inputs": [],
      "name": "claim",
      "outputs": [],
      "stateMutability": "nonpayable",
      "type": "function"
    },
    {
      "inputs": [],
      "name": "claimingAllowed",
      "outputs": [
        {
          "internalType": "bool",
          "name": "",
          "type": "bool"
        }
      ],
      "stateMutability": "view",
      "type": "function"
    },
    {
      "inputs": [],
      "name": "endClaiming",
      "outputs": [],
      "stateMutability": "nonpayable",
      "type": "function"
    },
    {
      "inputs": [],
      "name": "owner",
      "outputs": [
        {
          "internalType": "address",
          "name": "",
          "type": "address"
        }
      ],
      "stateMutability": "view",
      "type": "function"
    },
    {
      "inputs": [],
      "name": "png",
      "outputs": [
        {
          "internalType": "address",
          "name": "",
          "type": "address"
        }
      ],
      "stateMutability": "view",
      "type": "function"
    },
    {
      "inputs": [],
      "name": "remainderDestination",
      "outputs": [
        {
          "internalType": "address",
          "name": "",
          "type": "address"
        }
      ],
      "stateMutability": "view",
      "type": "function"
    },
    {
      "inputs": [
        {
          "internalType": "uint256",
          "name": "supply",
          "type": "uint256"
        }
      ],
      "name": "setAirdropSupply",
      "outputs": [],
      "stateMutability": "nonpayable",
      "type": "function"
    },
    {
      "inputs": [
        {
          "internalType": "address",
          "name": "owner_",
          "type": "address"
        }
      ],
      "name": "setOwner",
      "outputs": [],
      "stateMutability": "nonpayable",
      "type": "function"
    },
    {
      "inputs": [
        {
          "internalType": "address",
          "name": "remainderDestination_",
          "type": "address"
        }
      ],
      "name": "setRemainderDestination",
      "outputs": [],
      "stateMutability": "nonpayable",
      "type": "function"
    },
    {
      "inputs": [
        {
          "internalType": "address",
          "name": "addr",
          "type": "address"
        }
      ],
      "name": "setWhitelister",
      "outputs": [],
      "stateMutability": "nonpayable",
      "type": "function"
    },
    {
      "inputs": [],
      "name": "totalAllocated",
      "outputs": [
        {
          "internalType": "uint256",
          "name": "",
          "type": "uint256"
        }
      ],
      "stateMutability": "view",
      "type": "function"
    },
    {
      "inputs": [
        {
          "internalType": "address[]",
          "name": "addrs",
          "type": "address[]"
        },
        {
          "internalType": "uint256[]",
          "name": "pngOuts",
          "type": "uint256[]"
        }
      ],
      "name": "whitelistAddresses",
      "outputs": [],
      "stateMutability": "nonpayable",
      "type": "function"
    },
    {
      "inputs": [],
      "name": "whitelister",
      "outputs": [
        {
          "internalType": "address",
          "name": "",
          "type": "address"
        }
      ],
      "stateMutability": "view",
      "type": "function"
    },
    {
      "inputs": [
        {
          "internalType": "address",
          "name": "",
          "type": "address"
        }
      ],
      "name": "withdrawAmount",
      "outputs": [
        {
          "internalType": "uint256",
          "name": "",
          "type": "uint256"
        }
      ],
      "stateMutability": "view",
      "type": "function"
    }
  ],
  "bytecode": "0x60a06040523480156200001157600080fd5b50604051620026ae380380620026ae833981810160405281019062000037919062000288565b600073ffffffffffffffffffffffffffffffffffffffff168273ffffffffffffffffffffffffffffffffffffffff161415620000aa576040517f08c379a0000000000000000000000000000000000000000000000000000000008152600401620000a19062000381565b60405180910390fd5b600073ffffffffffffffffffffffffffffffffffffffff168373ffffffffffffffffffffffffffffffffffffffff1614156200011d576040517f08c379a0000000000000000000000000000000000000000000000000000000008152600401620001149062000419565b60405180910390fd5b836005819055508273ffffffffffffffffffffffffffffffffffffffff1660808173ffffffffffffffffffffffffffffffffffffffff1681525050816000806101000a81548173ffffffffffffffffffffffffffffffffffffffff021916908373ffffffffffffffffffffffffffffffffffffffff16021790555080600260006101000a81548173ffffffffffffffffffffffffffffffffffffffff021916908373ffffffffffffffffffffffffffffffffffffffff160217905550505050506200043b565b600080fd5b6000819050919050565b620001fd81620001e8565b81146200020957600080fd5b50565b6000815190506200021d81620001f2565b92915050565b600073ffffffffffffffffffffffffffffffffffffffff82169050919050565b6000620002508262000223565b9050919050565b620002628162000243565b81146200026e57600080fd5b50565b600081519050620002828162000257565b92915050565b60008060008060808587031215620002a557620002a4620001e3565b5b6000620002b5878288016200020c565b9450506020620002c88782880162000271565b9350506040620002db8782880162000271565b9250506060620002ee8782880162000271565b91505092959194509250565b600082825260208201905092915050565b7f41697264726f703a3a436f6e7374727563743a20696e76616c6964206e65772060008201527f6f776e6572000000000000000000000000000000000000000000000000000000602082015250565b600062000369602583620002fa565b915062000376826200030b565b604082019050919050565b600060208201905081810360008301526200039c816200035a565b9050919050565b7f41697264726f703a3a436f6e7374727563743a20696e76616c696420706e672060008201527f6164647265737300000000000000000000000000000000000000000000000000602082015250565b600062000401602783620002fa565b91506200040e82620003a3565b604082019050919050565b600060208201905081810360008301526200043481620003f2565b9050919050565b60805161223b620004736000396000818161057a015281816106ba015281816107d8015281816108830152610ee4015261223b6000f3fe608060405234801561001057600080fd5b50600436106101005760003560e01c806370f58c9711610097578063bdccf23611610066578063bdccf23614610251578063de7333971461026d578063f98f5b9214610277578063fb3ed5c71461029357610100565b806370f58c97146101dd57806380edf30d146101f95780638da5cb5b146102175780639ae1ea0d1461023557610100565b80634f420151116100d35780634f420151146101675780635f775678146101975780636556c391146101b5578063673f200a146101bf57610100565b806313af40351461010557806322758a4a1461012157806345f7f2491461013f5780634e71d92d1461015d575b600080fd5b61011f600480360381019061011a91906111ed565b6102b1565b005b6101296103f2565b6040516101369190611229565b60405180910390f35b610147610418565b604051610154919061125d565b60405180910390f35b61016561041e565b005b610181600480360381019061017c91906111ed565b6106a0565b60405161018e919061125d565b60405180910390f35b61019f6106b8565b6040516101ac9190611229565b60405180910390f35b6101bd6106dc565b005b6101c76109be565b6040516101d49190611293565b60405180910390f35b6101f760048036038101906101f291906114f6565b6109d1565b005b610201610c96565b60405161020e9190611229565b60405180910390f35b61021f610cbc565b60405161022c9190611229565b60405180910390f35b61024f600480360381019061024a91906111ed565b610ce0565b005b61026b6004803603810190610266919061156e565b610db2565b005b610275610edf565b005b610291600480360381019061028c91906111ed565b6110a3565b005b61029b611175565b6040516102a8919061125d565b60405180910390f35b600073ffffffffffffffffffffffffffffffffffffffff168173ffffffffffffffffffffffffffffffffffffffff161415610321576040517f08c379a00000000000000000000000000000000000000000000000000000000081526004016103189061161e565b60405180910390fd5b60008054906101000a900473ffffffffffffffffffffffffffffffffffffffff1673ffffffffffffffffffffffffffffffffffffffff163373ffffffffffffffffffffffffffffffffffffffff16146103af576040517f08c379a00000000000000000000000000000000000000000000000000000000081526004016103a69061168a565b60405180910390fd5b806000806101000a81548173ffffffffffffffffffffffffffffffffffffffff021916908373ffffffffffffffffffffffffffffffffffffffff16021790555050565b600160009054906101000a900473ffffffffffffffffffffffffffffffffffffffff1681565b60045481565b600660009054906101000a900460ff1661046d576040517f08c379a00000000000000000000000000000000000000000000000000000000081526004016104649061171c565b60405180910390fd5b6000600360003373ffffffffffffffffffffffffffffffffffffffff1673ffffffffffffffffffffffffffffffffffffffff16815260200190815260200160002054116104ef576040517f08c379a00000000000000000000000000000000000000000000000000000000081526004016104e690611788565b60405180910390fd5b6000600360003373ffffffffffffffffffffffffffffffffffffffff1673ffffffffffffffffffffffffffffffffffffffff1681526020019081526020016000205490506000600360003373ffffffffffffffffffffffffffffffffffffffff1673ffffffffffffffffffffffffffffffffffffffff168152602001908152602001600020819055507f000000000000000000000000000000000000000000000000000000000000000073ffffffffffffffffffffffffffffffffffffffff1663a9059cbb33836040518363ffffffff1660e01b81526004016105d39291906117a8565b602060405180830381600087803b1580156105ed57600080fd5b505af1158015610601573d6000803e3d6000fd5b505050506040513d601f19601f8201168201806040525081019061062591906117fd565b610664576040517f08c379a000000000000000000000000000000000000000000000000000000000815260040161065b90611876565b60405180910390fd5b7f09ab241b20d83f346e9f8c568dce5b80bf52ff7d87038a8a9d7cc932c8828e8433826040516106959291906117a8565b60405180910390a150565b60036020528060005260406000206000915090505481565b7f000000000000000000000000000000000000000000000000000000000000000081565b60008054906101000a900473ffffffffffffffffffffffffffffffffffffffff1673ffffffffffffffffffffffffffffffffffffffff163373ffffffffffffffffffffffffffffffffffffffff161461076a576040517f08c379a000000000000000000000000000000000000000000000000000000000815260040161076190611908565b60405180910390fd5b600660009054906101000a900460ff166107b9576040517f08c379a00000000000000000000000000000000000000000000000000000000081526004016107b09061199a565b60405180910390fd5b6000600660006101000a81548160ff02191690831515021790555060007f000000000000000000000000000000000000000000000000000000000000000073ffffffffffffffffffffffffffffffffffffffff166370a08231306040518263ffffffff1660e01b815260040161082f9190611229565b60206040518083038186803b15801561084757600080fd5b505afa15801561085b573d6000803e3d6000fd5b505050506040513d601f19601f8201168201806040525081019061087f91906119cf565b90507f000000000000000000000000000000000000000000000000000000000000000073ffffffffffffffffffffffffffffffffffffffff1663a9059cbb600260009054906101000a900473ffffffffffffffffffffffffffffffffffffffff16836040518363ffffffff1660e01b81526004016108fe9291906117a8565b602060405180830381600087803b15801561091857600080fd5b505af115801561092c573d6000803e3d6000fd5b505050506040513d601f19601f8201168201806040525081019061095091906117fd565b61098f576040517f08c379a000000000000000000000000000000000000000000000000000000000815260040161098690611a6e565b60405180910390fd5b7f561202111b25bcb1aa272265360fe13b9d8d097b6a2b537d55d658b65ffe7d2860405160405180910390a150565b600660009054906101000a900460ff1681565b600660009054906101000a900460ff1615610a21576040517f08c379a0000000000000000000000000000000000000000000000000000000008152600401610a1890611b00565b60405180910390fd5b60008054906101000a900473ffffffffffffffffffffffffffffffffffffffff1673ffffffffffffffffffffffffffffffffffffffff163373ffffffffffffffffffffffffffffffffffffffff161480610ac85750600160009054906101000a900473ffffffffffffffffffffffffffffffffffffffff1673ffffffffffffffffffffffffffffffffffffffff163373ffffffffffffffffffffffffffffffffffffffff16145b610b07576040517f08c379a0000000000000000000000000000000000000000000000000000000008152600401610afe90611b92565b60405180910390fd5b8051825114610b4b576040517f08c379a0000000000000000000000000000000000000000000000000000000008152600401610b4290611c24565b60405180910390fd5b60005b8251811015610c4a576000838281518110610b6c57610b6b611c44565b5b602002602001015190506000838381518110610b8b57610b8a611c44565b5b60200260200101519050600360008373ffffffffffffffffffffffffffffffffffffffff1673ffffffffffffffffffffffffffffffffffffffff1681526020019081526020016000205481600454610be39190611ca2565b610bed9190611cf8565b60048190555080600360008473ffffffffffffffffffffffffffffffffffffffff1673ffffffffffffffffffffffffffffffffffffffff16815260200190815260200160002081905550505080610c4390611d2c565b9050610b4e565b506005546004541115610c92576040517f08c379a0000000000000000000000000000000000000000000000000000000008152600401610c8990611de7565b60405180910390fd5b5050565b600260009054906101000a900473ffffffffffffffffffffffffffffffffffffffff1681565b60008054906101000a900473ffffffffffffffffffffffffffffffffffffffff1681565b60008054906101000a900473ffffffffffffffffffffffffffffffffffffffff1673ffffffffffffffffffffffffffffffffffffffff163373ffffffffffffffffffffffffffffffffffffffff1614610d6e576040517f08c379a0000000000000000000000000000000000000000000000000000000008152600401610d6590611e79565b60405180910390fd5b80600260006101000a81548173ffffffffffffffffffffffffffffffffffffffff021916908373ffffffffffffffffffffffffffffffffffffffff16021790555050565b60008054906101000a900473ffffffffffffffffffffffffffffffffffffffff1673ffffffffffffffffffffffffffffffffffffffff163373ffffffffffffffffffffffffffffffffffffffff1614610e40576040517f08c379a0000000000000000000000000000000000000000000000000000000008152600401610e3790611f0b565b60405180910390fd5b600660009054906101000a900460ff1615610e90576040517f08c379a0000000000000000000000000000000000000000000000000000000008152600401610e8790611f9d565b60405180910390fd5b600454811015610ed5576040517f08c379a0000000000000000000000000000000000000000000000000000000008152600401610ecc9061202f565b60405180910390fd5b8060058190555050565b6005547f000000000000000000000000000000000000000000000000000000000000000073ffffffffffffffffffffffffffffffffffffffff166370a08231306040518263ffffffff1660e01b8152600401610f3b9190611229565b60206040518083038186803b158015610f5357600080fd5b505afa158015610f67573d6000803e3d6000fd5b505050506040513d601f19601f82011682018060405250810190610f8b91906119cf565b1015610fcc576040517f08c379a0000000000000000000000000000000000000000000000000000000008152600401610fc3906120c1565b60405180910390fd5b60008054906101000a900473ffffffffffffffffffffffffffffffffffffffff1673ffffffffffffffffffffffffffffffffffffffff163373ffffffffffffffffffffffffffffffffffffffff161461105a576040517f08c379a000000000000000000000000000000000000000000000000000000000815260040161105190612153565b60405180910390fd5b6001600660006101000a81548160ff0219169083151502179055507f5182f287eefb78b325ac5fb307d80fe349a989fc97d7ba1da545bd83c6da0e7760405160405180910390a1565b60008054906101000a900473ffffffffffffffffffffffffffffffffffffffff1673ffffffffffffffffffffffffffffffffffffffff163373ffffffffffffffffffffffffffffffffffffffff1614611131576040517f08c379a0000000000000000000000000000000000000000000000000000000008152600401611128906121e5565b60405180910390fd5b80600160006101000a81548173ffffffffffffffffffffffffffffffffffffffff021916908373ffffffffffffffffffffffffffffffffffffffff16021790555050565b60055481565b6000604051905090565b600080fd5b600080fd5b600073ffffffffffffffffffffffffffffffffffffffff82169050919050565b60006111ba8261118f565b9050919050565b6111ca816111af565b81146111d557600080fd5b50565b6000813590506111e7816111c1565b92915050565b60006020828403121561120357611202611185565b5b6000611211848285016111d8565b91505092915050565b611223816111af565b82525050565b600060208201905061123e600083018461121a565b92915050565b6000819050919050565b61125781611244565b82525050565b6000602082019050611272600083018461124e565b92915050565b60008115159050919050565b61128d81611278565b82525050565b60006020820190506112a86000830184611284565b92915050565b600080fd5b6000601f19601f8301169050919050565b7f4e487b7100000000000000000000000000000000000000000000000000000000600052604160045260246000fd5b6112fc826112b3565b810181811067ffffffffffffffff8211171561131b5761131a6112c4565b5b80604052505050565b600061132e61117b565b905061133a82826112f3565b919050565b600067ffffffffffffffff82111561135a576113596112c4565b5b602082029050602081019050919050565b600080fd5b600061138361137e8461133f565b611324565b905080838252602082019050602084028301858111156113a6576113a561136b565b5b835b818110156113cf57806113bb88826111d8565b8452602084019350506020810190506113a8565b5050509392505050565b600082601f8301126113ee576113ed6112ae565b5b81356113fe848260208601611370565b91505092915050565b600067ffffffffffffffff821115611422576114216112c4565b5b602082029050602081019050919050565b61143c81611244565b811461144757600080fd5b50565b60008135905061145981611433565b92915050565b600061147261146d84611407565b611324565b905080838252602082019050602084028301858111156114955761149461136b565b5b835b818110156114be57806114aa888261144a565b845260208401935050602081019050611497565b5050509392505050565b600082601f8301126114dd576114dc6112ae565b5b81356114ed84826020860161145f565b91505092915050565b6000806040838503121561150d5761150c611185565b5b600083013567ffffffffffffffff81111561152b5761152a61118a565b5b611537858286016113d9565b925050602083013567ffffffffffffffff8111156115585761155761118a565b5b611564858286016114c8565b9150509250929050565b60006020828403121561158457611583611185565b5b60006115928482850161144a565b91505092915050565b600082825260208201905092915050565b7f41697264726f703a3a7365744f776e65723a20696e76616c6964206e6577206f60008201527f776e657200000000000000000000000000000000000000000000000000000000602082015250565b600061160860248361159b565b9150611613826115ac565b604082019050919050565b60006020820190508181036000830152611637816115fb565b9050919050565b7f41697264726f703a3a7365744f776e65723a20756e617574686f72697a656400600082015250565b6000611674601f8361159b565b915061167f8261163e565b602082019050919050565b600060208201905081810360008301526116a381611667565b9050919050565b7f41697264726f703a3a636c61696d3a20436c61696d696e67206973206e6f742060008201527f616c6c6f77656400000000000000000000000000000000000000000000000000602082015250565b600061170660278361159b565b9150611711826116aa565b604082019050919050565b60006020820190508181036000830152611735816116f9565b9050919050565b7f41697264726f703a3a636c61696d3a204e6f20504e4720746f20636c61696d00600082015250565b6000611772601f8361159b565b915061177d8261173c565b602082019050919050565b600060208201905081810360008301526117a181611765565b9050919050565b60006040820190506117bd600083018561121a565b6117ca602083018461124e565b9392505050565b6117da81611278565b81146117e557600080fd5b50565b6000815190506117f7816117d1565b92915050565b60006020828403121561181357611812611185565b5b6000611821848285016117e8565b91505092915050565b7f41697264726f703a3a636c61696d3a205472616e73666572206661696c656400600082015250565b6000611860601f8361159b565b915061186b8261182a565b602082019050919050565b6000602082019050818103600083015261188f81611853565b9050919050565b7f41697264726f703a3a656e64436c61696d696e673a20756e617574686f72697a60008201527f6564000000000000000000000000000000000000000000000000000000000000602082015250565b60006118f260228361159b565b91506118fd82611896565b604082019050919050565b60006020820190508181036000830152611921816118e5565b9050919050565b7f41697264726f703a3a656e64436c61696d696e673a20436c61696d696e67206e60008201527f6f74207374617274656400000000000000000000000000000000000000000000602082015250565b6000611984602a8361159b565b915061198f82611928565b604082019050919050565b600060208201905081810360008301526119b381611977565b9050919050565b6000815190506119c981611433565b92915050565b6000602082840312156119e5576119e4611185565b5b60006119f3848285016119ba565b91505092915050565b7f41697264726f703a3a656e64436c61696d696e673a205472616e73666572206660008201527f61696c6564000000000000000000000000000000000000000000000000000000602082015250565b6000611a5860258361159b565b9150611a63826119fc565b604082019050919050565b60006020820190508181036000830152611a8781611a4b565b9050919050565b7f41697264726f703a3a77686974656c6973744164647265737365733a20636c6160008201527f696d696e6720696e2073657373696f6e00000000000000000000000000000000602082015250565b6000611aea60308361159b565b9150611af582611a8e565b604082019050919050565b60006020820190508181036000830152611b1981611add565b9050919050565b7f41697264726f703a3a77686974656c6973744164647265737365733a20756e6160008201527f7574686f72697a65640000000000000000000000000000000000000000000000602082015250565b6000611b7c60298361159b565b9150611b8782611b20565b604082019050919050565b60006020820190508181036000830152611bab81611b6f565b9050919050565b7f41697264726f703a3a77686974656c6973744164647265737365733a20696e6360008201527f6f7272656374206172726179206c656e67746800000000000000000000000000602082015250565b6000611c0e60338361159b565b9150611c1982611bb2565b604082019050919050565b60006020820190508181036000830152611c3d81611c01565b9050919050565b7f4e487b7100000000000000000000000000000000000000000000000000000000600052603260045260246000fd5b7f4e487b7100000000000000000000000000000000000000000000000000000000600052601160045260246000fd5b6000611cad82611244565b9150611cb883611244565b9250827fffffffffffffffffffffffffffffffffffffffffffffffffffffffffffffffff03821115611ced57611cec611c73565b5b828201905092915050565b6000611d0382611244565b9150611d0e83611244565b925082821015611d2157611d20611c73565b5b828203905092915050565b6000611d3782611244565b91507fffffffffffffffffffffffffffffffffffffffffffffffffffffffffffffffff821415611d6a57611d69611c73565b5b600182019050919050565b7f41697264726f703a3a77686974656c6973744164647265737365733a2045786360008201527f6565647320504e4720616c6c6f636174696f6e00000000000000000000000000602082015250565b6000611dd160338361159b565b9150611ddc82611d75565b604082019050919050565b60006020820190508181036000830152611e0081611dc4565b9050919050565b7f41697264726f703a3a73657452656d61696e64657244657374696e6174696f6e60008201527f3a20756e617574686f72697a6564000000000000000000000000000000000000602082015250565b6000611e63602e8361159b565b9150611e6e82611e07565b604082019050919050565b60006020820190508181036000830152611e9281611e56565b9050919050565b7f41697264726f703a3a73657441697264726f70537570706c793a20756e61757460008201527f686f72697a656400000000000000000000000000000000000000000000000000602082015250565b6000611ef560278361159b565b9150611f0082611e99565b604082019050919050565b60006020820190508181036000830152611f2481611ee8565b9050919050565b7f41697264726f703a3a73657441697264726f70537570706c793a20636c61696d60008201527f696e6720696e2073657373696f6e000000000000000000000000000000000000602082015250565b6000611f87602e8361159b565b9150611f9282611f2b565b604082019050919050565b60006020820190508181036000830152611fb681611f7a565b9050919050565b7f41697264726f703a3a73657441697264726f70537570706c793a20737570706c60008201527f79206c657373207468616e20746f74616c20616c6c6f63617465640000000000602082015250565b6000612019603b8361159b565b915061202482611fbd565b604082019050919050565b600060208201905081810360008301526120488161200c565b9050919050565b7f41697264726f703a3a616c6c6f77436c61696d696e673a20696e636f7272656360008201527f7420504e4720737570706c790000000000000000000000000000000000000000602082015250565b60006120ab602c8361159b565b91506120b68261204f565b604082019050919050565b600060208201905081810360008301526120da8161209e565b9050919050565b7f41697264726f703a3a616c6c6f77436c61696d696e673a20756e617574686f7260008201527f697a656400000000000000000000000000000000000000000000000000000000602082015250565b600061213d60248361159b565b9150612148826120e1565b604082019050919050565b6000602082019050818103600083015261216c81612130565b9050919050565b7f41697264726f703a3a73657457686974656c69737465723a20756e617574686f60008201527f72697a6564000000000000000000000000000000000000000000000000000000602082015250565b60006121cf60258361159b565b91506121da82612173565b604082019050919050565b600060208201905081810360008301526121fe816121c2565b905091905056fea26469706673582212202f86aec3710ee633bf7611af3af398f83c2576f7874416c6b834d8dc04412ecf64736f6c63430008090033",
  "linkReferences": {},
  "deployedLinkReferences": {}
}