{
  "_format": "hh-sol-artifact-1",
  "contractName": "MiniChefV2",
  "sourceName": "contracts/mini-chef/MiniChefV2.sol",
  "abi": [
    {
      "inputs": [
        {
          "internalType": "address",
          "name": "_rewardToken",
          "type": "address"
        },
        {
          "internalType": "address",
          "name": "_firstOwner",
          "type": "address"
        }
      ],
      "stateMutability": "nonpayable",
      "type": "constructor"
    },
    {
      "anonymous": false,
      "inputs": [
        {
          "indexed": true,
          "internalType": "address",
          "name": "user",
          "type": "address"
        },
        {
          "indexed": true,
          "internalType": "uint256",
          "name": "pid",
          "type": "uint256"
        },
        {
          "indexed": false,
          "internalType": "uint256",
          "name": "amount",
          "type": "uint256"
        },
        {
          "indexed": true,
          "internalType": "address",
          "name": "to",
          "type": "address"
        }
      ],
      "name": "Deposit",
      "type": "event"
    },
    {
      "anonymous": false,
      "inputs": [
        {
          "indexed": true,
          "internalType": "address",
          "name": "user",
          "type": "address"
        },
        {
          "indexed": true,
          "internalType": "uint256",
          "name": "pid",
          "type": "uint256"
        },
        {
          "indexed": false,
          "internalType": "uint256",
          "name": "amount",
          "type": "uint256"
        },
        {
          "indexed": true,
          "internalType": "address",
          "name": "to",
          "type": "address"
        }
      ],
      "name": "EmergencyWithdraw",
      "type": "event"
    },
    {
      "anonymous": false,
      "inputs": [
        {
          "indexed": false,
          "internalType": "address",
          "name": "funder",
          "type": "address"
        }
      ],
      "name": "FunderAdded",
      "type": "event"
    },
    {
      "anonymous": false,
      "inputs": [
        {
          "indexed": false,
          "internalType": "address",
          "name": "funder",
          "type": "address"
        }
      ],
      "name": "FunderRemoved",
      "type": "event"
    },
    {
      "anonymous": false,
      "inputs": [
        {
          "indexed": true,
          "internalType": "address",
          "name": "user",
          "type": "address"
        },
        {
          "indexed": true,
          "internalType": "uint256",
          "name": "pid",
          "type": "uint256"
        },
        {
          "indexed": false,
          "internalType": "uint256",
          "name": "amount",
          "type": "uint256"
        }
      ],
      "name": "Harvest",
      "type": "event"
    },
    {
      "anonymous": false,
      "inputs": [
        {
          "indexed": false,
          "internalType": "uint256",
          "name": "rewardPerSecond",
          "type": "uint256"
        }
      ],
      "name": "LogRewardPerSecond",
      "type": "event"
    },
    {
      "anonymous": false,
      "inputs": [
        {
          "indexed": false,
          "internalType": "uint256",
          "name": "rewardsExpiration",
          "type": "uint256"
        }
      ],
      "name": "LogRewardsExpiration",
      "type": "event"
    },
    {
      "anonymous": false,
      "inputs": [
        {
          "indexed": false,
          "internalType": "uint256",
          "name": "pid",
          "type": "uint256"
        }
      ],
      "name": "Migrate",
      "type": "event"
    },
    {
      "anonymous": false,
      "inputs": [],
      "name": "MigratorDisabled",
      "type": "event"
    },
    {
      "anonymous": false,
      "inputs": [
        {
          "indexed": false,
          "internalType": "address",
          "name": "migrator",
          "type": "address"
        }
      ],
      "name": "MigratorSet",
      "type": "event"
    },
    {
      "anonymous": false,
      "inputs": [
        {
          "indexed": true,
          "internalType": "address",
          "name": "previousOwner",
          "type": "address"
        },
        {
          "indexed": true,
          "internalType": "address",
          "name": "newOwner",
          "type": "address"
        }
      ],
      "name": "OwnershipTransferred",
      "type": "event"
    },
    {
      "anonymous": false,
      "inputs": [
        {
          "indexed": true,
          "internalType": "uint256",
          "name": "pid",
          "type": "uint256"
        },
        {
          "indexed": false,
          "internalType": "uint256",
          "name": "allocPoint",
          "type": "uint256"
        },
        {
          "indexed": true,
          "internalType": "contract IERC20",
          "name": "lpToken",
          "type": "address"
        },
        {
          "indexed": true,
          "internalType": "contract IRewarder",
          "name": "rewarder",
          "type": "address"
        }
      ],
      "name": "PoolAdded",
      "type": "event"
    },
    {
      "anonymous": false,
      "inputs": [
        {
          "indexed": true,
          "internalType": "uint256",
          "name": "pid",
          "type": "uint256"
        },
        {
          "indexed": false,
          "internalType": "uint256",
          "name": "allocPoint",
          "type": "uint256"
        },
        {
          "indexed": true,
          "internalType": "contract IRewarder",
          "name": "rewarder",
          "type": "address"
        },
        {
          "indexed": false,
          "internalType": "bool",
          "name": "overwrite",
          "type": "bool"
        }
      ],
      "name": "PoolSet",
      "type": "event"
    },
    {
      "anonymous": false,
      "inputs": [
        {
          "indexed": true,
          "internalType": "uint256",
          "name": "pid",
          "type": "uint256"
        },
        {
          "indexed": false,
          "internalType": "uint64",
          "name": "lastRewardTime",
          "type": "uint64"
        },
        {
          "indexed": false,
          "internalType": "uint256",
          "name": "lpSupply",
          "type": "uint256"
        },
        {
          "indexed": false,
          "internalType": "uint256",
          "name": "accRewardPerShare",
          "type": "uint256"
        }
      ],
      "name": "PoolUpdate",
      "type": "event"
    },
    {
      "anonymous": false,
      "inputs": [
        {
          "indexed": true,
          "internalType": "address",
          "name": "user",
          "type": "address"
        },
        {
          "indexed": true,
          "internalType": "uint256",
          "name": "pid",
          "type": "uint256"
        },
        {
          "indexed": false,
          "internalType": "uint256",
          "name": "amount",
          "type": "uint256"
        },
        {
          "indexed": true,
          "internalType": "address",
          "name": "to",
          "type": "address"
        }
      ],
      "name": "Withdraw",
      "type": "event"
    },
    {
      "inputs": [],
      "name": "REWARD",
      "outputs": [
        {
          "internalType": "contract IERC20",
          "name": "",
          "type": "address"
        }
      ],
      "stateMutability": "view",
      "type": "function"
    },
    {
      "inputs": [
        {
          "internalType": "address",
          "name": "_funder",
          "type": "address"
        }
      ],
      "name": "addFunder",
      "outputs": [],
      "stateMutability": "nonpayable",
      "type": "function"
    },
    {
      "inputs": [
        {
          "internalType": "uint256",
          "name": "_allocPoint",
          "type": "uint256"
        },
        {
          "internalType": "contract IERC20",
          "name": "_lpToken",
          "type": "address"
        },
        {
          "internalType": "contract IRewarder",
          "name": "_rewarder",
          "type": "address"
        }
      ],
      "name": "addPool",
      "outputs": [],
      "stateMutability": "nonpayable",
      "type": "function"
    },
    {
      "inputs": [
        {
          "internalType": "uint256[]",
          "name": "_allocPoints",
          "type": "uint256[]"
        },
        {
          "internalType": "contract IERC20[]",
          "name": "_lpTokens",
          "type": "address[]"
        },
        {
          "internalType": "contract IRewarder[]",
          "name": "_rewarders",
          "type": "address[]"
        }
      ],
      "name": "addPools",
      "outputs": [],
      "stateMutability": "nonpayable",
      "type": "function"
    },
    {
      "inputs": [
        {
          "internalType": "address",
          "name": "",
          "type": "address"
        }
      ],
      "name": "addedTokens",
      "outputs": [
        {
          "internalType": "bool",
          "name": "",
          "type": "bool"
        }
      ],
      "stateMutability": "view",
      "type": "function"
    },
    {
      "inputs": [
        {
          "internalType": "uint256",
          "name": "pid",
          "type": "uint256"
        },
        {
          "internalType": "uint256",
          "name": "amount",
          "type": "uint256"
        },
        {
          "internalType": "address",
          "name": "to",
          "type": "address"
        }
      ],
      "name": "deposit",
      "outputs": [],
      "stateMutability": "nonpayable",
      "type": "function"
    },
    {
      "inputs": [
        {
          "internalType": "uint256",
          "name": "pid",
          "type": "uint256"
        },
        {
          "internalType": "uint256",
          "name": "amount",
          "type": "uint256"
        },
        {
          "internalType": "address",
          "name": "to",
          "type": "address"
        },
        {
          "internalType": "uint256",
          "name": "deadline",
          "type": "uint256"
        },
        {
          "internalType": "uint8",
          "name": "v",
          "type": "uint8"
        },
        {
          "internalType": "bytes32",
          "name": "r",
          "type": "bytes32"
        },
        {
          "internalType": "bytes32",
          "name": "s",
          "type": "bytes32"
        }
      ],
      "name": "depositWithPermit",
      "outputs": [],
      "stateMutability": "nonpayable",
      "type": "function"
    },
    {
      "inputs": [],
      "name": "disableMigrator",
      "outputs": [],
      "stateMutability": "nonpayable",
      "type": "function"
    },
    {
      "inputs": [
        {
          "internalType": "uint256",
          "name": "pid",
          "type": "uint256"
        },
        {
          "internalType": "address",
          "name": "to",
          "type": "address"
        }
      ],
      "name": "emergencyWithdraw",
      "outputs": [],
      "stateMutability": "nonpayable",
      "type": "function"
    },
    {
      "inputs": [
        {
          "internalType": "uint256",
          "name": "extension",
          "type": "uint256"
        },
        {
          "internalType": "uint256",
          "name": "maxFunding",
          "type": "uint256"
        }
      ],
      "name": "extendRewardsViaDuration",
      "outputs": [],
      "stateMutability": "nonpayable",
      "type": "function"
    },
    {
      "inputs": [
        {
          "internalType": "uint256",
          "name": "funding",
          "type": "uint256"
        },
        {
          "internalType": "uint256",
          "name": "minExtension",
          "type": "uint256"
        }
      ],
      "name": "extendRewardsViaFunding",
      "outputs": [],
      "stateMutability": "nonpayable",
      "type": "function"
    },
    {
      "inputs": [
        {
          "internalType": "uint256",
          "name": "funding",
          "type": "uint256"
        },
        {
          "internalType": "uint256",
          "name": "duration",
          "type": "uint256"
        }
      ],
      "name": "fundRewards",
      "outputs": [],
      "stateMutability": "nonpayable",
      "type": "function"
    },
    {
      "inputs": [
        {
          "internalType": "uint256",
          "name": "pid",
          "type": "uint256"
        },
        {
          "internalType": "address",
          "name": "to",
          "type": "address"
        }
      ],
      "name": "harvest",
      "outputs": [],
      "stateMutability": "nonpayable",
      "type": "function"
    },
    {
      "inputs": [
        {
          "internalType": "address",
          "name": "_funder",
          "type": "address"
        }
      ],
      "name": "isFunder",
      "outputs": [
        {
          "internalType": "bool",
          "name": "allowed",
          "type": "bool"
        }
      ],
      "stateMutability": "view",
      "type": "function"
    },
    {
      "inputs": [
        {
          "internalType": "uint256",
          "name": "",
          "type": "uint256"
        }
      ],
      "name": "lpToken",
      "outputs": [
        {
          "internalType": "contract IERC20",
          "name": "",
          "type": "address"
        }
      ],
      "stateMutability": "view",
      "type": "function"
    },
    {
      "inputs": [],
      "name": "lpTokens",
      "outputs": [
        {
          "internalType": "contract IERC20[]",
          "name": "",
          "type": "address[]"
        }
      ],
      "stateMutability": "view",
      "type": "function"
    },
    {
      "inputs": [],
      "name": "massUpdateAllPools",
      "outputs": [],
      "stateMutability": "nonpayable",
      "type": "function"
    },
    {
      "inputs": [
        {
          "internalType": "uint256[]",
          "name": "pids",
          "type": "uint256[]"
        }
      ],
      "name": "massUpdatePools",
      "outputs": [],
      "stateMutability": "nonpayable",
      "type": "function"
    },
    {
      "inputs": [
        {
          "internalType": "uint256",
          "name": "_pid",
          "type": "uint256"
        }
      ],
      "name": "migrate",
      "outputs": [],
      "stateMutability": "nonpayable",
      "type": "function"
    },
    {
      "inputs": [],
      "name": "migrationDisabled",
      "outputs": [
        {
          "internalType": "bool",
          "name": "",
          "type": "bool"
        }
      ],
      "stateMutability": "view",
      "type": "function"
    },
    {
      "inputs": [],
      "name": "migrator",
      "outputs": [
        {
          "internalType": "contract IMigratorChef",
          "name": "",
          "type": "address"
        }
      ],
      "stateMutability": "view",
      "type": "function"
    },
    {
      "inputs": [],
      "name": "owner",
      "outputs": [
        {
          "internalType": "address",
          "name": "",
          "type": "address"
        }
      ],
      "stateMutability": "view",
      "type": "function"
    },
    {
      "inputs": [
        {
          "internalType": "uint256",
          "name": "_pid",
          "type": "uint256"
        },
        {
          "internalType": "address",
          "name": "_user",
          "type": "address"
        }
      ],
      "name": "pendingReward",
      "outputs": [
        {
          "internalType": "uint256",
          "name": "pending",
          "type": "uint256"
        }
      ],
      "stateMutability": "view",
      "type": "function"
    },
    {
      "inputs": [
        {
          "internalType": "uint256",
          "name": "",
          "type": "uint256"
        }
      ],
      "name": "poolInfo",
      "outputs": [
        {
          "internalType": "uint128",
          "name": "accRewardPerShare",
          "type": "uint128"
        },
        {
          "internalType": "uint64",
          "name": "lastRewardTime",
          "type": "uint64"
        },
        {
          "internalType": "uint64",
          "name": "allocPoint",
          "type": "uint64"
        }
      ],
      "stateMutability": "view",
      "type": "function"
    },
    {
      "inputs": [],
      "name": "poolInfos",
      "outputs": [
        {
          "components": [
            {
              "internalType": "uint128",
              "name": "accRewardPerShare",
              "type": "uint128"
            },
            {
              "internalType": "uint64",
              "name": "lastRewardTime",
              "type": "uint64"
            },
            {
              "internalType": "uint64",
              "name": "allocPoint",
              "type": "uint64"
            }
          ],
          "internalType": "struct MiniChefV2.PoolInfo[]",
          "name": "",
          "type": "tuple[]"
        }
      ],
      "stateMutability": "view",
      "type": "function"
    },
    {
      "inputs": [],
      "name": "poolLength",
      "outputs": [
        {
          "internalType": "uint256",
          "name": "pools",
          "type": "uint256"
        }
      ],
      "stateMutability": "view",
      "type": "function"
    },
    {
      "inputs": [
        {
          "internalType": "address",
          "name": "_funder",
          "type": "address"
        }
      ],
      "name": "removeFunder",
      "outputs": [],
      "stateMutability": "nonpayable",
      "type": "function"
    },
    {
      "inputs": [],
      "name": "renounceOwnership",
      "outputs": [],
      "stateMutability": "nonpayable",
      "type": "function"
    },
    {
      "inputs": [
        {
          "internalType": "uint256",
          "name": "duration",
          "type": "uint256"
        }
      ],
      "name": "resetRewardsDuration",
      "outputs": [],
      "stateMutability": "nonpayable",
      "type": "function"
    },
    {
      "inputs": [],
      "name": "rewardPerSecond",
      "outputs": [
        {
          "internalType": "uint256",
          "name": "",
          "type": "uint256"
        }
      ],
      "stateMutability": "view",
      "type": "function"
    },
    {
      "inputs": [
        {
          "internalType": "uint256",
          "name": "",
          "type": "uint256"
        }
      ],
      "name": "rewarder",
      "outputs": [
        {
          "internalType": "contract IRewarder",
          "name": "",
          "type": "address"
        }
      ],
      "stateMutability": "view",
      "type": "function"
    },
    {
      "inputs": [],
      "name": "rewardsExpiration",
      "outputs": [
        {
          "internalType": "uint256",
          "name": "",
          "type": "uint256"
        }
      ],
      "stateMutability": "view",
      "type": "function"
    },
    {
      "inputs": [
        {
          "internalType": "contract IMigratorChef",
          "name": "_migrator",
          "type": "address"
        }
      ],
      "name": "setMigrator",
      "outputs": [],
      "stateMutability": "nonpayable",
      "type": "function"
    },
    {
      "inputs": [
        {
          "internalType": "uint256",
          "name": "_pid",
          "type": "uint256"
        },
        {
          "internalType": "uint256",
          "name": "_allocPoint",
          "type": "uint256"
        },
        {
          "internalType": "contract IRewarder",
          "name": "_rewarder",
          "type": "address"
        },
        {
          "internalType": "bool",
          "name": "overwrite",
          "type": "bool"
        }
      ],
      "name": "setPool",
      "outputs": [],
      "stateMutability": "nonpayable",
      "type": "function"
    },
    {
      "inputs": [
        {
          "internalType": "uint256[]",
          "name": "pids",
          "type": "uint256[]"
        },
        {
          "internalType": "uint256[]",
          "name": "allocPoints",
          "type": "uint256[]"
        },
        {
          "internalType": "contract IRewarder[]",
          "name": "rewarders",
          "type": "address[]"
        },
        {
          "internalType": "bool[]",
          "name": "overwrites",
          "type": "bool[]"
        }
      ],
      "name": "setPools",
      "outputs": [],
      "stateMutability": "nonpayable",
      "type": "function"
    },
    {
      "inputs": [],
      "name": "totalAllocPoint",
      "outputs": [
        {
          "internalType": "uint256",
          "name": "",
          "type": "uint256"
        }
      ],
      "stateMutability": "view",
      "type": "function"
    },
    {
      "inputs": [
        {
          "internalType": "address",
          "name": "newOwner",
          "type": "address"
        }
      ],
      "name": "transferOwnership",
      "outputs": [],
      "stateMutability": "nonpayable",
      "type": "function"
    },
    {
      "inputs": [
        {
          "internalType": "uint256",
          "name": "pid",
          "type": "uint256"
        }
      ],
      "name": "updatePool",
      "outputs": [
        {
          "components": [
            {
              "internalType": "uint128",
              "name": "accRewardPerShare",
              "type": "uint128"
            },
            {
              "internalType": "uint64",
              "name": "lastRewardTime",
              "type": "uint64"
            },
            {
              "internalType": "uint64",
              "name": "allocPoint",
              "type": "uint64"
            }
          ],
          "internalType": "struct MiniChefV2.PoolInfo",
          "name": "pool",
          "type": "tuple"
        }
      ],
      "stateMutability": "nonpayable",
      "type": "function"
    },
    {
      "inputs": [
        {
          "internalType": "uint256",
          "name": "",
          "type": "uint256"
        },
        {
          "internalType": "address",
          "name": "",
          "type": "address"
        }
      ],
      "name": "userInfo",
      "outputs": [
        {
          "internalType": "uint256",
          "name": "amount",
          "type": "uint256"
        },
        {
          "internalType": "int256",
          "name": "rewardDebt",
          "type": "int256"
        }
      ],
      "stateMutability": "view",
      "type": "function"
    },
    {
      "inputs": [
        {
          "internalType": "uint256",
          "name": "pid",
          "type": "uint256"
        },
        {
          "internalType": "uint256",
          "name": "amount",
          "type": "uint256"
        },
        {
          "internalType": "address",
          "name": "to",
          "type": "address"
        }
      ],
      "name": "withdraw",
      "outputs": [],
      "stateMutability": "nonpayable",
      "type": "function"
    },
    {
      "inputs": [
        {
          "internalType": "uint256",
          "name": "pid",
          "type": "uint256"
        },
        {
          "internalType": "uint256",
          "name": "amount",
          "type": "uint256"
        },
        {
          "internalType": "address",
          "name": "to",
          "type": "address"
        }
      ],
      "name": "withdrawAndHarvest",
      "outputs": [],
      "stateMutability": "nonpayable",
      "type": "function"
    }
  ],
  "bytecode": "0x60a06040523480156200001157600080fd5b506040516200660d3803806200660d8339818101604052810190620000379190620003d3565b600062000049620001e460201b60201c565b9050806000806101000a81548173ffffffffffffffffffffffffffffffffffffffff021916908373ffffffffffffffffffffffffffffffffffffffff1602179055508073ffffffffffffffffffffffffffffffffffffffff16600073ffffffffffffffffffffffffffffffffffffffff167f8be0079c531659141344cd1fd0a4f28419497f9722a3daafe3b4186f6b6457e060405160405180910390a350600073ffffffffffffffffffffffffffffffffffffffff168273ffffffffffffffffffffffffffffffffffffffff1614158015620001525750600073ffffffffffffffffffffffffffffffffffffffff168173ffffffffffffffffffffffffffffffffffffffff1614155b62000194576040517f08c379a00000000000000000000000000000000000000000000000000000000081526004016200018b9062000548565b60405180910390fd5b8173ffffffffffffffffffffffffffffffffffffffff1660808173ffffffffffffffffffffffffffffffffffffffff1660601b81525050620001dc81620001ec60201b60201c565b5050620005eb565b600033905090565b620001fc620001e460201b60201c565b73ffffffffffffffffffffffffffffffffffffffff1660008054906101000a900473ffffffffffffffffffffffffffffffffffffffff1673ffffffffffffffffffffffffffffffffffffffff16146200028c576040517f08c379a000000000000000000000000000000000000000000000000000000000815260040162000283906200056a565b60405180910390fd5b600073ffffffffffffffffffffffffffffffffffffffff168173ffffffffffffffffffffffffffffffffffffffff161415620002ff576040517f08c379a0000000000000000000000000000000000000000000000000000000008152600401620002f69062000526565b60405180910390fd5b8073ffffffffffffffffffffffffffffffffffffffff1660008054906101000a900473ffffffffffffffffffffffffffffffffffffffff1673ffffffffffffffffffffffffffffffffffffffff167f8be0079c531659141344cd1fd0a4f28419497f9722a3daafe3b4186f6b6457e060405160405180910390a3806000806101000a81548173ffffffffffffffffffffffffffffffffffffffff021916908373ffffffffffffffffffffffffffffffffffffffff16021790555050565b600081519050620003cd81620005d1565b92915050565b60008060408385031215620003e757600080fd5b6000620003f785828601620003bc565b92505060206200040a85828601620003bc565b9150509250929050565b6000620004236026836200058c565b91507f4f776e61626c653a206e6577206f776e657220697320746865207a65726f206160008301527f64647265737300000000000000000000000000000000000000000000000000006020830152604082019050919050565b60006200048b602e836200058c565b91507f4d696e694368656656323a3a43616e6e6f7420636f6e7374727563742077697460008301527f68207a65726f20616464726573730000000000000000000000000000000000006020830152604082019050919050565b6000620004f36020836200058c565b91507f4f776e61626c653a2063616c6c6572206973206e6f7420746865206f776e65726000830152602082019050919050565b60006020820190508181036000830152620005418162000414565b9050919050565b6000602082019050818103600083015262000563816200047c565b9050919050565b600060208201905081810360008301526200058581620004e4565b9050919050565b600082825260208201905092915050565b6000620005aa82620005b1565b9050919050565b600073ffffffffffffffffffffffffffffffffffffffff82169050919050565b620005dc816200059d565b8114620005e857600080fd5b50565b60805160601c615feb6200062260003980610b675280610da552806112e25280612b39528061308252806131e45250615feb6000f3fe608060405234801561001057600080fd5b50600436106102535760003560e01c8063715018a61161014657806398969e82116100c3578063cab34c0811610087578063cab34c08146106bd578063d1abb907146106db578063dcd18dd4146106f7578063f2fde38b14610713578063f624d2c51461072f578063f6d676be1461074b57610253565b806398969e8214610619578063b763e7c414610649578063b76f4aeb14610665578063c1bcb49314610683578063c346253d1461068d57610253565b80638da5cb5b1161010a5780638da5cb5b146105745780638dbdbe6d146105925780638f10369a146105ae578063933f084f146105cc57806393f1a40b146105e857610253565b8063715018a6146104d057806378ed5d1f146104da5780637973aa7b1461050a57806379d12ffb146105265780637cd07e471461055657610253565b806323cf3118116101d4578063454b060811610198578063454b06081461042e5780634b87e90f1461044a57806351eb05a61461046657806357a5b58c1461049657806361f8e66f146104b257610253565b806323cf3118146103a057806328662551146103bc5780632f940c70146103d857806334c0b46b146103f45780633ef6db911461041257610253565b806318fccc761161021b57806318fccc761461030057806319610b2b1461031c5780631bbe9d8c146103385780631ea48870146103545780632273ee6e1461038457610253565b8063081e3eda146102585780630ad58d2f146102765780630c812af3146102925780631526fe27146102b057806317caf6f1146102e2575b600080fd5b610260610755565b60405161026d9190615aff565b60405180910390f35b610290600480360381019061028b9190614a1e565b610762565b005b61029a6109f6565b6040516102a79190615741565b60405180910390f35b6102ca60048036038101906102c59190614905565b610a09565b6040516102d993929190615ac8565b60405180910390f35b6102ea610a80565b6040516102f79190615aff565b60405180910390f35b61031a60048036038101906103159190614957565b610a86565b005b610336600480360381019061033191906149e2565b610cec565b005b610352600480360381019061034d9190614628565b610e28565b005b61036e60048036038101906103699190614628565b610f4f565b60405161037b9190615741565b60405180910390f35b61039e60048036038101906103999190614a6d565b610fa5565b005b6103ba60048036038101906103b591906148b3565b611067565b005b6103d660048036038101906103d191906149e2565b6111c7565b005b6103f260048036038101906103ed9190614957565b6114c1565b005b6103fc611600565b60405161040991906156fd565b60405180910390f35b61042c6004803603810190610427919061473a565b61168e565b005b61044860048036038101906104439190614905565b61182f565b005b610464600480360381019061045f9190614905565b611d2d565b005b610480600480360381019061047b9190614905565b611ef3565b60405161048d9190615aad565b60405180910390f35b6104b060048036038101906104ab9190614651565b612319565b005b6104ba612359565b6040516104c7919061571f565b60405180910390f35b6104d8612462565b005b6104f460048036038101906104ef9190614905565b6125b5565b604051610501919061575c565b60405180910390f35b610524600480360381019061051f9190614696565b6125f1565b005b610540600480360381019061053b9190614628565b61276c565b60405161054d9190615741565b60405180910390f35b61055e61278c565b60405161056b9190615777565b60405180910390f35b61057c6127b2565b6040516105899190615613565b60405180910390f35b6105ac60048036038101906105a79190614a1e565b6127db565b005b6105b6612a71565b6040516105c39190615aff565b60405180910390f35b6105e660048036038101906105e191906149e2565b612a77565b005b61060260048036038101906105fd9190614957565b612bbc565b604051610610929190615c3c565b60405180910390f35b610633600480360381019061062e9190614957565b612bed565b6040516106409190615aff565b60405180910390f35b610663600480360381019061065e9190614b0b565b612f61565b005b61066d613010565b60405161067a9190615aff565b60405180910390f35b61068b613016565b005b6106a760048036038101906106a29190614905565b613044565b6040516106b49190615792565b60405180910390f35b6106c5613080565b6040516106d2919061575c565b60405180910390f35b6106f560048036038101906106f09190614a1e565b6130a4565b005b610711600480360381019061070c9190614628565b613431565b005b61072d60048036038101906107289190614628565b613558565b005b61074960048036038101906107449190614993565b61371a565b005b6107536137c7565b005b6000600280549050905090565b61076a6143d2565b61077384611ef3565b905060006005600086815260200190815260200160002060003373ffffffffffffffffffffffffffffffffffffffff1673ffffffffffffffffffffffffffffffffffffffff168152602001908152602001600020905061081664e8d4a510006107fb84600001516fffffffffffffffffffffffffffffffff16876138a490919063ffffffff16565b8161080257fe5b04826001015461390690919063ffffffff16565b816001018190555061083584826000015461397e90919063ffffffff16565b816000018190555060006004868154811061084c57fe5b9060005260206000200160009054906101000a900473ffffffffffffffffffffffffffffffffffffffff169050600073ffffffffffffffffffffffffffffffffffffffff168173ffffffffffffffffffffffffffffffffffffffff1614610926578073ffffffffffffffffffffffffffffffffffffffff166344af0fa7873387600087600001546040518663ffffffff1660e01b81526004016108f3959493929190615b1a565b600060405180830381600087803b15801561090d57600080fd5b505af1158015610921573d6000803e3d6000fd5b505050505b61098884866003898154811061093857fe5b9060005260206000200160009054906101000a900473ffffffffffffffffffffffffffffffffffffffff1673ffffffffffffffffffffffffffffffffffffffff166139ce9092919063ffffffff16565b8373ffffffffffffffffffffffffffffffffffffffff16863373ffffffffffffffffffffffffffffffffffffffff167f8166bf25f8a2b7ed3c85049207da4358d16edbed977d23fa2ee6f0dde3ec2132886040516109e69190615aff565b60405180910390a4505050505050565b600160149054906101000a900460ff1681565b60028181548110610a1657fe5b906000526020600020016000915090508060000160009054906101000a90046fffffffffffffffffffffffffffffffff16908060000160109054906101000a900467ffffffffffffffff16908060000160189054906101000a900467ffffffffffffffff16905083565b60085481565b610a8e6143d2565b610a9783611ef3565b905060006005600085815260200190815260200160002060003373ffffffffffffffffffffffffffffffffffffffff1673ffffffffffffffffffffffffffffffffffffffff1681526020019081526020016000209050600064e8d4a51000610b2284600001516fffffffffffffffffffffffffffffffff1684600001546138a490919063ffffffff16565b81610b2957fe5b0490506000610b4d610b4884600101548461390690919063ffffffff16565b613b05565b905081836001018190555060008114610bac57610bab85827f000000000000000000000000000000000000000000000000000000000000000073ffffffffffffffffffffffffffffffffffffffff166139ce9092919063ffffffff16565b5b600060048781548110610bbb57fe5b9060005260206000200160009054906101000a900473ffffffffffffffffffffffffffffffffffffffff169050600073ffffffffffffffffffffffffffffffffffffffff168173ffffffffffffffffffffffffffffffffffffffff1614610c94578073ffffffffffffffffffffffffffffffffffffffff166344af0fa78833898689600001546040518663ffffffff1660e01b8152600401610c61959493929190615b6d565b600060405180830381600087803b158015610c7b57600080fd5b505af1158015610c8f573d6000803e3d6000fd5b505050505b863373ffffffffffffffffffffffffffffffffffffffff167f71bab65ced2e5750775a0613be067df48ef06cf92a496ebf7663ae066092495484604051610cdb9190615aff565b60405180910390a350505050505050565b60008211610d2f576040517f08c379a0000000000000000000000000000000000000000000000000000000008152600401610d26906158ed565b60405180910390fd5b60006009548381610d3c57fe5b04905081811015610d82576040517f08c379a0000000000000000000000000000000000000000000000000000000008152600401610d79906157ed565b60405180910390fd5b610d9781600a54613b5290919063ffffffff16565b600a81905550610dea3330857f000000000000000000000000000000000000000000000000000000000000000073ffffffffffffffffffffffffffffffffffffffff16613ba2909392919063ffffffff16565b7f8f596a35f0cdefc7e1e1e80e73eced8bfdb8ca9e519ca4042ad0963f19bc239e600a54604051610e1b9190615aff565b60405180910390a1505050565b610e30613cdc565b73ffffffffffffffffffffffffffffffffffffffff1660008054906101000a900473ffffffffffffffffffffffffffffffffffffffff1673ffffffffffffffffffffffffffffffffffffffff1614610ebd576040517f08c379a0000000000000000000000000000000000000000000000000000000008152600401610eb49061596d565b60405180910390fd5b6001600760008373ffffffffffffffffffffffffffffffffffffffff1673ffffffffffffffffffffffffffffffffffffffff16815260200190815260200160002060006101000a81548160ff0219169083151502179055507f0c48d651d88968f843204baf13aa11cd1a590e611c6dcadc7ed4daab1f98462a81604051610f449190615613565b60405180910390a150565b6000600760008373ffffffffffffffffffffffffffffffffffffffff1673ffffffffffffffffffffffffffffffffffffffff16815260200190815260200160002060009054906101000a900460ff169050919050565b60038781548110610fb257fe5b9060005260206000200160009054906101000a900473ffffffffffffffffffffffffffffffffffffffff1673ffffffffffffffffffffffffffffffffffffffff1663d505accf333089888888886040518863ffffffff1660e01b8152600401611021979695949392919061562e565b600060405180830381600087803b15801561103b57600080fd5b505af115801561104f573d6000803e3d6000fd5b5050505061105e8787876127db565b50505050505050565b61106f613cdc565b73ffffffffffffffffffffffffffffffffffffffff1660008054906101000a900473ffffffffffffffffffffffffffffffffffffffff1673ffffffffffffffffffffffffffffffffffffffff16146110fc576040517f08c379a00000000000000000000000000000000000000000000000000000000081526004016110f39061596d565b60405180910390fd5b600160149054906101000a900460ff161561114c576040517f08c379a0000000000000000000000000000000000000000000000000000000008152600401611143906159ed565b60405180910390fd5b80600160006101000a81548173ffffffffffffffffffffffffffffffffffffffff021916908373ffffffffffffffffffffffffffffffffffffffff1602179055507f3ba4758949febc607e14523620298f8b5995b1848492ad7aa083372ac886ae07816040516111bc9190615613565b60405180910390a150565b6111cf6127b2565b73ffffffffffffffffffffffffffffffffffffffff163373ffffffffffffffffffffffffffffffffffffffff161480611258575060011515600760003373ffffffffffffffffffffffffffffffffffffffff1673ffffffffffffffffffffffffffffffffffffffff16815260200190815260200160002060009054906101000a900460ff161515145b611297576040517f08c379a000000000000000000000000000000000000000000000000000000000815260040161128e90615a4d565b60405180910390fd5b600082116112da576040517f08c379a00000000000000000000000000000000000000000000000000000000081526004016112d1906157cd565b60405180910390fd5b6113273330847f000000000000000000000000000000000000000000000000000000000000000073ffffffffffffffffffffffffffffffffffffffff16613ba2909392919063ffffffff16565b600a5442106113a95760008111611373576040517f08c379a000000000000000000000000000000000000000000000000000000000815260040161136a90615a8d565b60405180910390fd5b61137b613016565b61138e8142613b5290919063ffffffff16565b600a8190555080828161139d57fe5b0460098190555061144b565b60006113c042600a5461397e90919063ffffffff16565b905060006113d9600954836138a490919063ffffffff16565b905060006113f284600a54613b5290919063ffffffff16565b90506000611409428361397e90919063ffffffff16565b61141c8785613b5290919063ffffffff16565b8161142357fe5b049050600954811461143857611437613016565b5b81600a8190555080600981905550505050505b7fde89cb17ac7f58f94792b3e91e086ed85403819c24ceea882491f960ccb1a27860095460405161147c9190615aff565b60405180910390a17f8f596a35f0cdefc7e1e1e80e73eced8bfdb8ca9e519ca4042ad0963f19bc239e600a546040516114b59190615aff565b60405180910390a15050565b60006005600084815260200190815260200160002060003373ffffffffffffffffffffffffffffffffffffffff1673ffffffffffffffffffffffffffffffffffffffff1681526020019081526020016000209050600081600001549050600082600001819055506000826001018190555061159483826003878154811061154457fe5b9060005260206000200160009054906101000a900473ffffffffffffffffffffffffffffffffffffffff1673ffffffffffffffffffffffffffffffffffffffff166139ce9092919063ffffffff16565b8273ffffffffffffffffffffffffffffffffffffffff16843373ffffffffffffffffffffffffffffffffffffffff167f2cac5e20e1541d836381527a43f651851e302817b71dc8e810284e69210c1c6b846040516115f29190615aff565b60405180910390a450505050565b6060600380548060200260200160405190810160405280929190818152602001828054801561168457602002820191906000526020600020905b8160009054906101000a900473ffffffffffffffffffffffffffffffffffffffff1673ffffffffffffffffffffffffffffffffffffffff168152602001906001019080831161163a575b5050505050905090565b611696613cdc565b73ffffffffffffffffffffffffffffffffffffffff1660008054906101000a900473ffffffffffffffffffffffffffffffffffffffff1673ffffffffffffffffffffffffffffffffffffffff1614611723576040517f08c379a000000000000000000000000000000000000000000000000000000000815260040161171a9061596d565b60405180910390fd5b858590508888905014801561173d57508383905086869050145b801561174e57508181905084849050145b61178d576040517f08c379a00000000000000000000000000000000000000000000000000000000081526004016117849061598d565b60405180910390fd5b611795613016565b600088889050905060005b81811015611823576118188a8a838181106117b757fe5b905060200201358989848181106117ca57fe5b905060200201358888858181106117dd57fe5b90506020020160208101906117f291906148dc565b8787868181106117fe57fe5b9050602002016020810190611813919061480f565b613ce4565b8060010190506117a0565b50505050505050505050565b611837613cdc565b73ffffffffffffffffffffffffffffffffffffffff1660008054906101000a900473ffffffffffffffffffffffffffffffffffffffff1673ffffffffffffffffffffffffffffffffffffffff16146118c4576040517f08c379a00000000000000000000000000000000000000000000000000000000081526004016118bb9061596d565b60405180910390fd5b600160149054906101000a900460ff1615611914576040517f08c379a000000000000000000000000000000000000000000000000000000000815260040161190b906159ed565b60405180910390fd5b600073ffffffffffffffffffffffffffffffffffffffff16600160009054906101000a900473ffffffffffffffffffffffffffffffffffffffff1673ffffffffffffffffffffffffffffffffffffffff1614156119a6576040517f08c379a000000000000000000000000000000000000000000000000000000000815260040161199d906158cd565b60405180910390fd5b6000600382815481106119b557fe5b9060005260206000200160009054906101000a900473ffffffffffffffffffffffffffffffffffffffff16905060008173ffffffffffffffffffffffffffffffffffffffff166370a08231306040518263ffffffff1660e01b8152600401611a1d9190615613565b60206040518083038186803b158015611a3557600080fd5b505afa158015611a49573d6000803e3d6000fd5b505050506040513d601f19601f82011682018060405250810190611a6d919061492e565b90508173ffffffffffffffffffffffffffffffffffffffff1663095ea7b3600160009054906101000a900473ffffffffffffffffffffffffffffffffffffffff16836040518363ffffffff1660e01b8152600401611acc9291906156d4565b602060405180830381600087803b158015611ae657600080fd5b505af1158015611afa573d6000803e3d6000fd5b505050506040513d601f19601f82011682018060405250810190611b1e9190614838565b506000600160009054906101000a900473ffffffffffffffffffffffffffffffffffffffff1673ffffffffffffffffffffffffffffffffffffffff1663ce5494bb846040518263ffffffff1660e01b8152600401611b7c919061575c565b602060405180830381600087803b158015611b9657600080fd5b505af1158015611baa573d6000803e3d6000fd5b505050506040513d601f19601f82011682018060405250810190611bce919061488a565b90508073ffffffffffffffffffffffffffffffffffffffff166370a08231306040518263ffffffff1660e01b8152600401611c099190615613565b60206040518083038186803b158015611c2157600080fd5b505afa158015611c35573d6000803e3d6000fd5b505050506040513d601f19601f82011682018060405250810190611c59919061492e565b8214611c9a576040517f08c379a0000000000000000000000000000000000000000000000000000000008152600401611c919061586d565b60405180910390fd5b8060038581548110611ca857fe5b9060005260206000200160006101000a81548173ffffffffffffffffffffffffffffffffffffffff021916908373ffffffffffffffffffffffffffffffffffffffff1602179055507fd5837b673ffaac69230366d3f7eb7cb2ba2b9fd8f2d4e9d0f5e92d3756b1d54684604051611d1f9190615aff565b60405180910390a150505050565b611d35613cdc565b73ffffffffffffffffffffffffffffffffffffffff1660008054906101000a900473ffffffffffffffffffffffffffffffffffffffff1673ffffffffffffffffffffffffffffffffffffffff1614611dc2576040517f08c379a0000000000000000000000000000000000000000000000000000000008152600401611db99061596d565b60405180910390fd5b60008111611e05576040517f08c379a0000000000000000000000000000000000000000000000000000000008152600401611dfc90615a8d565b60405180910390fd5b611e0d613016565b6000611e2442600a5461397e90919063ffffffff16565b90506000611e3d600954836138a490919063ffffffff16565b9050611e528342613b5290919063ffffffff16565b600a81905550611e6d42600a5461397e90919063ffffffff16565b8181611e7557fe5b046009819055507fde89cb17ac7f58f94792b3e91e086ed85403819c24ceea882491f960ccb1a278600954604051611ead9190615aff565b60405180910390a17f8f596a35f0cdefc7e1e1e80e73eced8bfdb8ca9e519ca4042ad0963f19bc239e600a54604051611ee69190615aff565b60405180910390a1505050565b611efb6143d2565b60028281548110611f0857fe5b906000526020600020016040518060600160405290816000820160009054906101000a90046fffffffffffffffffffffffffffffffff166fffffffffffffffffffffffffffffffff166fffffffffffffffffffffffffffffffff1681526020016000820160109054906101000a900467ffffffffffffffff1667ffffffffffffffff1667ffffffffffffffff1681526020016000820160189054906101000a900467ffffffffffffffff1667ffffffffffffffff1667ffffffffffffffff16815250509050806020015167ffffffffffffffff1642111561231457600060038381548110611ff257fe5b9060005260206000200160009054906101000a900473ffffffffffffffffffffffffffffffffffffffff1673ffffffffffffffffffffffffffffffffffffffff166370a08231306040518263ffffffff1660e01b81526004016120559190615613565b60206040518083038186803b15801561206d57600080fd5b505afa158015612081573d6000803e3d6000fd5b505050506040513d601f19601f820116820180604052508101906120a5919061492e565b905060008111156121ee576000600a5442111561210357826020015167ffffffffffffffff16600a54116120da5760006120fe565b6120fd836020015167ffffffffffffffff16600a5461397e90919063ffffffff16565b5b612125565b612124836020015167ffffffffffffffff164261397e90919063ffffffff16565b5b90506000600854612161856040015167ffffffffffffffff16612153600954866138a490919063ffffffff16565b6138a490919063ffffffff16565b8161216857fe5b0490506121bc6121978461218a64e8d4a51000856138a490919063ffffffff16565b8161219157fe5b04613e89565b85600001516fffffffffffffffffffffffffffffffff16613f0890919063ffffffff16565b84600001906fffffffffffffffffffffffffffffffff1690816fffffffffffffffffffffffffffffffff168152505050505b6121f742613f7c565b826020019067ffffffffffffffff16908167ffffffffffffffff1681525050816002848154811061222457fe5b9060005260206000200160008201518160000160006101000a8154816fffffffffffffffffffffffffffffffff02191690836fffffffffffffffffffffffffffffffff16021790555060208201518160000160106101000a81548167ffffffffffffffff021916908367ffffffffffffffff16021790555060408201518160000160186101000a81548167ffffffffffffffff021916908367ffffffffffffffff160217905550905050827fb22162dac390356a083e49a03154a93d123f935f80aac3763ba0fa470c8fbe5e836020015183856000015160405161230a93929190615c65565b60405180910390a2505b919050565b600082829050905060005b818110156123535761234784848381811061233b57fe5b90506020020135611ef3565b50806001019050612324565b50505050565b60606002805480602002602001604051908101604052809291908181526020016000905b82821015612459578382906000526020600020016040518060600160405290816000820160009054906101000a90046fffffffffffffffffffffffffffffffff166fffffffffffffffffffffffffffffffff166fffffffffffffffffffffffffffffffff1681526020016000820160109054906101000a900467ffffffffffffffff1667ffffffffffffffff1667ffffffffffffffff1681526020016000820160189054906101000a900467ffffffffffffffff1667ffffffffffffffff1667ffffffffffffffff16815250508152602001906001019061237d565b50505050905090565b61246a613cdc565b73ffffffffffffffffffffffffffffffffffffffff1660008054906101000a900473ffffffffffffffffffffffffffffffffffffffff1673ffffffffffffffffffffffffffffffffffffffff16146124f7576040517f08c379a00000000000000000000000000000000000000000000000000000000081526004016124ee9061596d565b60405180910390fd5b600073ffffffffffffffffffffffffffffffffffffffff1660008054906101000a900473ffffffffffffffffffffffffffffffffffffffff1673ffffffffffffffffffffffffffffffffffffffff167f8be0079c531659141344cd1fd0a4f28419497f9722a3daafe3b4186f6b6457e060405160405180910390a360008060006101000a81548173ffffffffffffffffffffffffffffffffffffffff021916908373ffffffffffffffffffffffffffffffffffffffff160217905550565b600381815481106125c257fe5b906000526020600020016000915054906101000a900473ffffffffffffffffffffffffffffffffffffffff1681565b6125f9613cdc565b73ffffffffffffffffffffffffffffffffffffffff1660008054906101000a900473ffffffffffffffffffffffffffffffffffffffff1673ffffffffffffffffffffffffffffffffffffffff1614612686576040517f08c379a000000000000000000000000000000000000000000000000000000000815260040161267d9061596d565b60405180910390fd5b83839050868690501480156126a057508181905084849050145b6126df576040517f08c379a00000000000000000000000000000000000000000000000000000000081526004016126d69061598d565b60405180910390fd5b6126e7613016565b600086869050905060005b818110156127625761275788888381811061270957fe5b9050602002013587878481811061271c57fe5b90506020020160208101906127319190614861565b86868581811061273d57fe5b905060200201602081019061275291906148dc565b613ff3565b8060010190506126f2565b5050505050505050565b60066020528060005260406000206000915054906101000a900460ff1681565b600160009054906101000a900473ffffffffffffffffffffffffffffffffffffffff1681565b60008060009054906101000a900473ffffffffffffffffffffffffffffffffffffffff16905090565b6127e36143d2565b6127ec84611ef3565b905060006005600086815260200190815260200160002060008473ffffffffffffffffffffffffffffffffffffffff1673ffffffffffffffffffffffffffffffffffffffff1681526020019081526020016000209050612859848260000154613b5290919063ffffffff16565b81600001819055506128ae64e8d4a5100061289384600001516fffffffffffffffffffffffffffffffff16876138a490919063ffffffff16565b8161289a57fe5b04826001015461435a90919063ffffffff16565b81600101819055506000600486815481106128c557fe5b9060005260206000200160009054906101000a900473ffffffffffffffffffffffffffffffffffffffff169050600073ffffffffffffffffffffffffffffffffffffffff168173ffffffffffffffffffffffffffffffffffffffff161461299f578073ffffffffffffffffffffffffffffffffffffffff166344af0fa7878687600087600001546040518663ffffffff1660e01b815260040161296c959493929190615bc0565b600060405180830381600087803b15801561298657600080fd5b505af115801561299a573d6000803e3d6000fd5b505050505b612a0333308760038a815481106129b257fe5b9060005260206000200160009054906101000a900473ffffffffffffffffffffffffffffffffffffffff1673ffffffffffffffffffffffffffffffffffffffff16613ba2909392919063ffffffff16565b8373ffffffffffffffffffffffffffffffffffffffff16863373ffffffffffffffffffffffffffffffffffffffff167f02d7e648dd130fc184d383e55bb126ac4c9c60e8f94bf05acdf557ba2d540b4788604051612a619190615aff565b60405180910390a4505050505050565b60095481565b60008211612aba576040517f08c379a0000000000000000000000000000000000000000000000000000000008152600401612ab19061582d565b60405180910390fd5b6000612ad1836009546138a490919063ffffffff16565b905081811115612b16576040517f08c379a0000000000000000000000000000000000000000000000000000000008152600401612b0d9061588d565b60405180910390fd5b612b2b83600a54613b5290919063ffffffff16565b600a81905550612b7e3330837f000000000000000000000000000000000000000000000000000000000000000073ffffffffffffffffffffffffffffffffffffffff16613ba2909392919063ffffffff16565b7f8f596a35f0cdefc7e1e1e80e73eced8bfdb8ca9e519ca4042ad0963f19bc239e600a54604051612baf9190615aff565b60405180910390a1505050565b6005602052816000526040600020602052806000526040600020600091509150508060000154908060010154905082565b6000612bf76143d2565b60028481548110612c0457fe5b906000526020600020016040518060600160405290816000820160009054906101000a90046fffffffffffffffffffffffffffffffff166fffffffffffffffffffffffffffffffff166fffffffffffffffffffffffffffffffff1681526020016000820160109054906101000a900467ffffffffffffffff1667ffffffffffffffff1667ffffffffffffffff1681526020016000820160189054906101000a900467ffffffffffffffff1667ffffffffffffffff1667ffffffffffffffff1681525050905060006005600086815260200190815260200160002060008573ffffffffffffffffffffffffffffffffffffffff1673ffffffffffffffffffffffffffffffffffffffff1681526020019081526020016000209050600082600001516fffffffffffffffffffffffffffffffff169050600060038781548110612d4757fe5b9060005260206000200160009054906101000a900473ffffffffffffffffffffffffffffffffffffffff1673ffffffffffffffffffffffffffffffffffffffff166370a08231306040518263ffffffff1660e01b8152600401612daa9190615613565b60206040518083038186803b158015612dc257600080fd5b505afa158015612dd6573d6000803e3d6000fd5b505050506040513d601f19601f82011682018060405250810190612dfa919061492e565b9050836020015167ffffffffffffffff1642118015612e1a575060008114155b15612f12576000600a54421115612e7257846020015167ffffffffffffffff16600a5411612e49576000612e6d565b612e6c856020015167ffffffffffffffff16600a5461397e90919063ffffffff16565b5b612e94565b612e93856020015167ffffffffffffffff164261397e90919063ffffffff16565b5b90506000600854612ed0876040015167ffffffffffffffff16612ec2600954866138a490919063ffffffff16565b6138a490919063ffffffff16565b81612ed757fe5b049050612f0d83612ef664e8d4a51000846138a490919063ffffffff16565b81612efd57fe5b0485613b5290919063ffffffff16565b935050505b612f55612f50846001015464e8d4a51000612f3a8688600001546138a490919063ffffffff16565b81612f4157fe5b0461390690919063ffffffff16565b613b05565b94505050505092915050565b612f69613cdc565b73ffffffffffffffffffffffffffffffffffffffff1660008054906101000a900473ffffffffffffffffffffffffffffffffffffffff1673ffffffffffffffffffffffffffffffffffffffff1614612ff6576040517f08c379a0000000000000000000000000000000000000000000000000000000008152600401612fed9061596d565b60405180910390fd5b612ffe613016565b61300a84848484613ce4565b50505050565b600a5481565b6000600280549050905060005b818110156130405761303481611ef3565b50806001019050613023565b5050565b6004818154811061305157fe5b906000526020600020016000915054906101000a900473ffffffffffffffffffffffffffffffffffffffff1681565b7f000000000000000000000000000000000000000000000000000000000000000081565b6130ac6143d2565b6130b584611ef3565b905060006005600086815260200190815260200160002060003373ffffffffffffffffffffffffffffffffffffffff1673ffffffffffffffffffffffffffffffffffffffff1681526020019081526020016000209050600064e8d4a5100061314084600001516fffffffffffffffffffffffffffffffff1684600001546138a490919063ffffffff16565b8161314757fe5b049050600061316b61316684600101548461390690919063ffffffff16565b613b05565b90506131b664e8d4a5100061319f86600001516fffffffffffffffffffffffffffffffff16896138a490919063ffffffff16565b816131a657fe5b048361390690919063ffffffff16565b83600101819055506131d586846000015461397e90919063ffffffff16565b836000018190555061322885827f000000000000000000000000000000000000000000000000000000000000000073ffffffffffffffffffffffffffffffffffffffff166139ce9092919063ffffffff16565b60006004888154811061323757fe5b9060005260206000200160009054906101000a900473ffffffffffffffffffffffffffffffffffffffff169050600073ffffffffffffffffffffffffffffffffffffffff168173ffffffffffffffffffffffffffffffffffffffff1614613310578073ffffffffffffffffffffffffffffffffffffffff166344af0fa78933898689600001546040518663ffffffff1660e01b81526004016132dd959493929190615b6d565b600060405180830381600087803b1580156132f757600080fd5b505af115801561330b573d6000803e3d6000fd5b505050505b613372868860038b8154811061332257fe5b9060005260206000200160009054906101000a900473ffffffffffffffffffffffffffffffffffffffff1673ffffffffffffffffffffffffffffffffffffffff166139ce9092919063ffffffff16565b8573ffffffffffffffffffffffffffffffffffffffff16883373ffffffffffffffffffffffffffffffffffffffff167f8166bf25f8a2b7ed3c85049207da4358d16edbed977d23fa2ee6f0dde3ec21328a6040516133d09190615aff565b60405180910390a4873373ffffffffffffffffffffffffffffffffffffffff167f71bab65ced2e5750775a0613be067df48ef06cf92a496ebf7663ae06609249548460405161341f9190615aff565b60405180910390a35050505050505050565b613439613cdc565b73ffffffffffffffffffffffffffffffffffffffff1660008054906101000a900473ffffffffffffffffffffffffffffffffffffffff1673ffffffffffffffffffffffffffffffffffffffff16146134c6576040517f08c379a00000000000000000000000000000000000000000000000000000000081526004016134bd9061596d565b60405180910390fd5b6000600760008373ffffffffffffffffffffffffffffffffffffffff1673ffffffffffffffffffffffffffffffffffffffff16815260200190815260200160002060006101000a81548160ff0219169083151502179055507f423b2da7eebe1997af6d3d8f0c00fd04de1d323a87cd69152dad613731eb23258160405161354d9190615613565b60405180910390a150565b613560613cdc565b73ffffffffffffffffffffffffffffffffffffffff1660008054906101000a900473ffffffffffffffffffffffffffffffffffffffff1673ffffffffffffffffffffffffffffffffffffffff16146135ed576040517f08c379a00000000000000000000000000000000000000000000000000000000081526004016135e49061596d565b60405180910390fd5b600073ffffffffffffffffffffffffffffffffffffffff168173ffffffffffffffffffffffffffffffffffffffff16141561365d576040517f08c379a00000000000000000000000000000000000000000000000000000000081526004016136549061584d565b60405180910390fd5b8073ffffffffffffffffffffffffffffffffffffffff1660008054906101000a900473ffffffffffffffffffffffffffffffffffffffff1673ffffffffffffffffffffffffffffffffffffffff167f8be0079c531659141344cd1fd0a4f28419497f9722a3daafe3b4186f6b6457e060405160405180910390a3806000806101000a81548173ffffffffffffffffffffffffffffffffffffffff021916908373ffffffffffffffffffffffffffffffffffffffff16021790555050565b613722613cdc565b73ffffffffffffffffffffffffffffffffffffffff1660008054906101000a900473ffffffffffffffffffffffffffffffffffffffff1673ffffffffffffffffffffffffffffffffffffffff16146137af576040517f08c379a00000000000000000000000000000000000000000000000000000000081526004016137a69061596d565b60405180910390fd5b6137b7613016565b6137c2838383613ff3565b505050565b6137cf613cdc565b73ffffffffffffffffffffffffffffffffffffffff1660008054906101000a900473ffffffffffffffffffffffffffffffffffffffff1673ffffffffffffffffffffffffffffffffffffffff161461385c576040517f08c379a00000000000000000000000000000000000000000000000000000000081526004016138539061596d565b60405180910390fd5b60018060146101000a81548160ff0219169083151502179055507ff460fd6afbbd82e0c22f24030b32f63befe14935b39a79bb3520220b21a0ed9460405160405180910390a1565b6000808214806138c157508282838502925082816138be57fe5b04145b613900576040517f08c379a00000000000000000000000000000000000000000000000000000000081526004016138f790615a6d565b60405180910390fd5b92915050565b60008082840390506000831215801561391f5750838113155b80613935575060008312801561393457508381135b5b613974576040517f08c379a000000000000000000000000000000000000000000000000000000000815260040161396b90615a0d565b60405180910390fd5b8091505092915050565b60008282840391508111156139c8576040517f08c379a00000000000000000000000000000000000000000000000000000000081526004016139bf906157ad565b60405180910390fd5b92915050565b600060608473ffffffffffffffffffffffffffffffffffffffff1663a9059cbb8585604051602401613a019291906156d4565b6040516020818303038152906040529060e01b6020820180517bffffffffffffffffffffffffffffffffffffffffffffffffffffffff8381831617835250505050604051613a4f91906155fc565b6000604051808303816000865af19150503d8060008114613a8c576040519150601f19603f3d011682016040523d82523d6000602084013e613a91565b606091505b5091509150818015613abf5750600081511480613abe575080806020019051810190613abd9190614838565b5b5b613afe576040517f08c379a0000000000000000000000000000000000000000000000000000000008152600401613af59061580d565b60405180910390fd5b5050505050565b600080821215613b4a576040517f08c379a0000000000000000000000000000000000000000000000000000000008152600401613b419061592d565b60405180910390fd5b819050919050565b6000818284019150811015613b9c576040517f08c379a0000000000000000000000000000000000000000000000000000000008152600401613b939061594d565b60405180910390fd5b92915050565b600060608573ffffffffffffffffffffffffffffffffffffffff166323b872dd868686604051602401613bd79392919061569d565b6040516020818303038152906040529060e01b6020820180517bffffffffffffffffffffffffffffffffffffffffffffffffffffffff8381831617835250505050604051613c2591906155fc565b6000604051808303816000865af19150503d8060008114613c62576040519150601f19603f3d011682016040523d82523d6000602084013e613c67565b606091505b5091509150818015613c955750600081511480613c94575080806020019051810190613c939190614838565b5b5b613cd4576040517f08c379a0000000000000000000000000000000000000000000000000000000008152600401613ccb90615a2d565b60405180910390fd5b505050505050565b600033905090565b613d4383613d3560028781548110613cf857fe5b9060005260206000200160000160189054906101000a900467ffffffffffffffff1667ffffffffffffffff1660085461397e90919063ffffffff16565b613b5290919063ffffffff16565b600881905550613d5283613f7c565b60028581548110613d5f57fe5b9060005260206000200160000160186101000a81548167ffffffffffffffff021916908367ffffffffffffffff1602179055508015613def578160048581548110613da657fe5b9060005260206000200160006101000a81548173ffffffffffffffffffffffffffffffffffffffff021916908373ffffffffffffffffffffffffffffffffffffffff1602179055505b80613e315760048481548110613e0157fe5b9060005260206000200160009054906101000a900473ffffffffffffffffffffffffffffffffffffffff16613e33565b815b73ffffffffffffffffffffffffffffffffffffffff16847f5766994790e89c27d9799092c4a6b179974a5b61a62663156d03d799cc8c01b88584604051613e7b929190615c13565b60405180910390a350505050565b60007fffffffffffffffffffffffffffffffffffffffffffffffffffffffffffffffff6fffffffffffffffffffffffffffffffff16821115613f00576040517f08c379a0000000000000000000000000000000000000000000000000000000008152600401613ef79061590d565b60405180910390fd5b819050919050565b6000816fffffffffffffffffffffffffffffffff168284019150816fffffffffffffffffffffffffffffffff161015613f76576040517f08c379a0000000000000000000000000000000000000000000000000000000008152600401613f6d9061594d565b60405180910390fd5b92915050565b60007fffffffffffffffffffffffffffffffffffffffffffffffffffffffffffffffff67ffffffffffffffff16821115613feb576040517f08c379a0000000000000000000000000000000000000000000000000000000008152600401613fe2906159cd565b60405180910390fd5b819050919050565b60001515600660008473ffffffffffffffffffffffffffffffffffffffff1673ffffffffffffffffffffffffffffffffffffffff16815260200190815260200160002060009054906101000a900460ff16151514614086576040517f08c379a000000000000000000000000000000000000000000000000000000000815260040161407d906159ad565b60405180910390fd5b61409b83600854613b5290919063ffffffff16565b6008819055506003829080600181540180825580915050600190039060005260206000200160009091909190916101000a81548173ffffffffffffffffffffffffffffffffffffffff021916908373ffffffffffffffffffffffffffffffffffffffff1602179055506004819080600181540180825580915050600190039060005260206000200160009091909190916101000a81548173ffffffffffffffffffffffffffffffffffffffff021916908373ffffffffffffffffffffffffffffffffffffffff1602179055506002604051806060016040528060006fffffffffffffffffffffffffffffffff16815260200161419642613f7c565b67ffffffffffffffff1681526020016141ae86613f7c565b67ffffffffffffffff168152509080600181540180825580915050600190039060005260206000200160009091909190915060008201518160000160006101000a8154816fffffffffffffffffffffffffffffffff02191690836fffffffffffffffffffffffffffffffff16021790555060208201518160000160106101000a81548167ffffffffffffffff021916908367ffffffffffffffff16021790555060408201518160000160186101000a81548167ffffffffffffffff021916908367ffffffffffffffff16021790555050506001600660008473ffffffffffffffffffffffffffffffffffffffff1673ffffffffffffffffffffffffffffffffffffffff16815260200190815260200160002060006101000a81548160ff0219169083151502179055508073ffffffffffffffffffffffffffffffffffffffff168273ffffffffffffffffffffffffffffffffffffffff1661431e600160038054905061397e90919063ffffffff16565b7fe72dff05c5a9817b99753fffdec6b7800cc743c2f4b1fbc3eeb93983712a2a468660405161434d9190615aff565b60405180910390a4505050565b6000808284019050600083121580156143735750838112155b80614389575060008312801561438857508381125b5b6143c8576040517f08c379a00000000000000000000000000000000000000000000000000000000081526004016143bf906158ad565b60405180910390fd5b8091505092915050565b604051806060016040528060006fffffffffffffffffffffffffffffffff168152602001600067ffffffffffffffff168152602001600067ffffffffffffffff1681525090565b60008135905061442881615efd565b92915050565b60008083601f84011261444057600080fd5b8235905067ffffffffffffffff81111561445957600080fd5b60208301915083602082028301111561447157600080fd5b9250929050565b60008083601f84011261448a57600080fd5b8235905067ffffffffffffffff8111156144a357600080fd5b6020830191508360208202830111156144bb57600080fd5b9250929050565b60008083601f8401126144d457600080fd5b8235905067ffffffffffffffff8111156144ed57600080fd5b60208301915083602082028301111561450557600080fd5b9250929050565b60008083601f84011261451e57600080fd5b8235905067ffffffffffffffff81111561453757600080fd5b60208301915083602082028301111561454f57600080fd5b9250929050565b60008135905061456581615f14565b92915050565b60008151905061457a81615f14565b92915050565b60008135905061458f81615f2b565b92915050565b6000813590506145a481615f42565b92915050565b6000815190506145b981615f42565b92915050565b6000813590506145ce81615f59565b92915050565b6000813590506145e381615f70565b92915050565b6000813590506145f881615f87565b92915050565b60008151905061460d81615f87565b92915050565b60008135905061462281615f9e565b92915050565b60006020828403121561463a57600080fd5b600061464884828501614419565b91505092915050565b6000806020838503121561466457600080fd5b600083013567ffffffffffffffff81111561467e57600080fd5b61468a8582860161450c565b92509250509250929050565b600080600080600080606087890312156146af57600080fd5b600087013567ffffffffffffffff8111156146c957600080fd5b6146d589828a0161450c565b9650965050602087013567ffffffffffffffff8111156146f457600080fd5b61470089828a01614478565b9450945050604087013567ffffffffffffffff81111561471f57600080fd5b61472b89828a016144c2565b92509250509295509295509295565b6000806000806000806000806080898b03121561475657600080fd5b600089013567ffffffffffffffff81111561477057600080fd5b61477c8b828c0161450c565b9850985050602089013567ffffffffffffffff81111561479b57600080fd5b6147a78b828c0161450c565b9650965050604089013567ffffffffffffffff8111156147c657600080fd5b6147d28b828c016144c2565b9450945050606089013567ffffffffffffffff8111156147f157600080fd5b6147fd8b828c0161442e565b92509250509295985092959890939650565b60006020828403121561482157600080fd5b600061482f84828501614556565b91505092915050565b60006020828403121561484a57600080fd5b60006148588482850161456b565b91505092915050565b60006020828403121561487357600080fd5b600061488184828501614595565b91505092915050565b60006020828403121561489c57600080fd5b60006148aa848285016145aa565b91505092915050565b6000602082840312156148c557600080fd5b60006148d3848285016145bf565b91505092915050565b6000602082840312156148ee57600080fd5b60006148fc848285016145d4565b91505092915050565b60006020828403121561491757600080fd5b6000614925848285016145e9565b91505092915050565b60006020828403121561494057600080fd5b600061494e848285016145fe565b91505092915050565b6000806040838503121561496a57600080fd5b6000614978858286016145e9565b925050602061498985828601614419565b9150509250929050565b6000806000606084860312156149a857600080fd5b60006149b6868287016145e9565b93505060206149c786828701614595565b92505060406149d8868287016145d4565b9150509250925092565b600080604083850312156149f557600080fd5b6000614a03858286016145e9565b9250506020614a14858286016145e9565b9150509250929050565b600080600060608486031215614a3357600080fd5b6000614a41868287016145e9565b9350506020614a52868287016145e9565b9250506040614a6386828701614419565b9150509250925092565b600080600080600080600060e0888a031215614a8857600080fd5b6000614a968a828b016145e9565b9750506020614aa78a828b016145e9565b9650506040614ab88a828b01614419565b9550506060614ac98a828b016145e9565b9450506080614ada8a828b01614613565b93505060a0614aeb8a828b01614580565b92505060c0614afc8a828b01614580565b91505092959891949750929550565b60008060008060808587031215614b2157600080fd5b6000614b2f878288016145e9565b9450506020614b40878288016145e9565b9350506040614b51878288016145d4565b9250506060614b6287828801614556565b91505092959194509250565b6000614b7a8383614cc7565b60208301905092915050565b6000614b92838361550f565b60608301905092915050565b614ba781615e04565b82525050565b614bb681615d35565b82525050565b6000614bc782615cbc565b614bd18185615cf7565b9350614bdc83615c9c565b8060005b83811015614c0d578151614bf48882614b6e565b9750614bff83615cdd565b925050600181019050614be0565b5085935050505092915050565b6000614c2582615cc7565b614c2f8185615d08565b9350614c3a83615cac565b8060005b83811015614c6b578151614c528882614b86565b9750614c5d83615cea565b925050600181019050614c3e565b5085935050505092915050565b614c8181615d47565b82525050565b614c9081615d53565b82525050565b6000614ca182615cd2565b614cab8185615d19565b9350614cbb818560208601615eca565b80840191505092915050565b614cd081615e16565b82525050565b614cdf81615e16565b82525050565b614cee81615e3a565b82525050565b614cfd81615e5e565b82525050565b614d0c81615d93565b82525050565b614d1b81615e82565b82525050565b6000614d2e601583615d24565b91507f426f72696e674d6174683a20556e646572666c6f7700000000000000000000006000830152602082019050919050565b6000614d6e602283615d24565b91507f4d696e694368656656323a2066756e64696e672063616e6e6f74206265207a6560008301527f726f0000000000000000000000000000000000000000000000000000000000006020830152604082019050919050565b6000614dd4602883615d24565b91507f4d696e694368656656323a20696e73756666696369656e7420657874656e736960008301527f6f6e206c696d69740000000000000000000000000000000000000000000000006020830152604082019050919050565b6000614e3a601c83615d24565b91507f426f72696e6745524332303a205472616e73666572206661696c6564000000006000830152602082019050919050565b6000614e7a602d83615d24565b91507f4d696e694368656656323a20657874656e73696f6e206475726174696f6e206360008301527f616e6e6f74206265207a65726f000000000000000000000000000000000000006020830152604082019050919050565b6000614ee0602683615d24565b91507f4f776e61626c653a206e6577206f776e657220697320746865207a65726f206160008301527f64647265737300000000000000000000000000000000000000000000000000006020830152604082019050919050565b6000614f46602783615d24565b91507f4d696e694368656656323a206d696772617465642062616c616e6365206d757360008301527f74206d61746368000000000000000000000000000000000000000000000000006020830152604082019050919050565b6000614fac602683615d24565b91507f4d696e694368656656323a20696e73756666696369656e742066756e64696e6760008301527f206c696d697400000000000000000000000000000000000000000000000000006020830152604082019050919050565b6000615012602183615d24565b91507f5369676e6564536166654d6174683a206164646974696f6e206f766572666c6f60008301527f77000000000000000000000000000000000000000000000000000000000000006020830152604082019050919050565b6000615078601b83615d24565b91507f4d696e694368656656323a206e6f206d69677261746f722073657400000000006000830152602082019050919050565b60006150b8602983615d24565b91507f4d696e694368656656323a2066756e64696e6720616d6f756e742063616e6e6f60008301527f74206265207a65726f00000000000000000000000000000000000000000000006020830152604082019050919050565b600061511e601c83615d24565b91507f426f72696e674d6174683a2075696e74313238204f766572666c6f77000000006000830152602082019050919050565b600061515e602083615d24565b91507f53616665436173743a2076616c7565206d75737420626520706f7369746976656000830152602082019050919050565b600061519e601883615d24565b91507f426f72696e674d6174683a20416464204f766572666c6f7700000000000000006000830152602082019050919050565b60006151de602083615d24565b91507f4f776e61626c653a2063616c6c6572206973206e6f7420746865206f776e65726000830152602082019050919050565b600061521e602583615d24565b91507f4d696e694368656656323a20696e76616c696420706172616d65746572206c6560008301527f6e677468730000000000000000000000000000000000000000000000000000006020830152604082019050919050565b6000615284601383615d24565b91507f546f6b656e20616c7265616479206164646564000000000000000000000000006000830152602082019050919050565b60006152c4601b83615d24565b91507f426f72696e674d6174683a2075696e743634204f766572666c6f7700000000006000830152602082019050919050565b6000615304602783615d24565b91507f4d696e694368656656323a206d6967726174696f6e20686173206265656e206460008301527f697361626c6564000000000000000000000000000000000000000000000000006020830152604082019050919050565b600061536a602483615d24565b91507f5369676e6564536166654d6174683a207375627472616374696f6e206f76657260008301527f666c6f77000000000000000000000000000000000000000000000000000000006020830152604082019050919050565b60006153d0602083615d24565b91507f426f72696e6745524332303a205472616e7366657246726f6d206661696c65646000830152602082019050919050565b6000615410602283615d24565b91507f4d696e694368656656323a2063616c6c6572206973206e6f7420612066756e6460008301527f65720000000000000000000000000000000000000000000000000000000000006020830152604082019050919050565b6000615476601883615d24565b91507f426f72696e674d6174683a204d756c204f766572666c6f7700000000000000006000830152602082019050919050565b60006154b6602a83615d24565b91507f4d696e694368656656323a20726577617264206475726174696f6e2063616e6e60008301527f6f74206265207a65726f000000000000000000000000000000000000000000006020830152604082019050919050565b6060820160008201516155256000850182615593565b50602082015161553860208501826155cf565b50604082015161554b60408501826155cf565b50505050565b6060820160008201516155676000850182615593565b50602082015161557a60208501826155cf565b50604082015161558d60408501826155cf565b50505050565b61559c81615d9d565b82525050565b6155ab81615d9d565b82525050565b6155ba81615e94565b82525050565b6155c981615dd9565b82525050565b6155d881615de3565b82525050565b6155e781615de3565b82525050565b6155f681615df7565b82525050565b60006156088284614c96565b915081905092915050565b60006020820190506156286000830184614bad565b92915050565b600060e082019050615643600083018a614b9e565b6156506020830189614bad565b61565d60408301886155c0565b61566a60608301876155c0565b61567760808301866155ed565b61568460a0830185614c87565b61569160c0830184614c87565b98975050505050505050565b60006060820190506156b26000830186614bad565b6156bf6020830185614bad565b6156cc60408301846155c0565b949350505050565b60006040820190506156e96000830185614bad565b6156f660208301846155c0565b9392505050565b600060208201905081810360008301526157178184614bbc565b905092915050565b600060208201905081810360008301526157398184614c1a565b905092915050565b60006020820190506157566000830184614c78565b92915050565b60006020820190506157716000830184614cd6565b92915050565b600060208201905061578c6000830184614ce5565b92915050565b60006020820190506157a76000830184614cf4565b92915050565b600060208201905081810360008301526157c681614d21565b9050919050565b600060208201905081810360008301526157e681614d61565b9050919050565b6000602082019050818103600083015261580681614dc7565b9050919050565b6000602082019050818103600083015261582681614e2d565b9050919050565b6000602082019050818103600083015261584681614e6d565b9050919050565b6000602082019050818103600083015261586681614ed3565b9050919050565b6000602082019050818103600083015261588681614f39565b9050919050565b600060208201905081810360008301526158a681614f9f565b9050919050565b600060208201905081810360008301526158c681615005565b9050919050565b600060208201905081810360008301526158e68161506b565b9050919050565b60006020820190508181036000830152615906816150ab565b9050919050565b6000602082019050818103600083015261592681615111565b9050919050565b6000602082019050818103600083015261594681615151565b9050919050565b6000602082019050818103600083015261596681615191565b9050919050565b60006020820190508181036000830152615986816151d1565b9050919050565b600060208201905081810360008301526159a681615211565b9050919050565b600060208201905081810360008301526159c681615277565b9050919050565b600060208201905081810360008301526159e6816152b7565b9050919050565b60006020820190508181036000830152615a06816152f7565b9050919050565b60006020820190508181036000830152615a268161535d565b9050919050565b60006020820190508181036000830152615a46816153c3565b9050919050565b60006020820190508181036000830152615a6681615403565b9050919050565b60006020820190508181036000830152615a8681615469565b9050919050565b60006020820190508181036000830152615aa6816154a9565b9050919050565b6000606082019050615ac26000830184615551565b92915050565b6000606082019050615add60008301866155a2565b615aea60208301856155de565b615af760408301846155de565b949350505050565b6000602082019050615b1460008301846155c0565b92915050565b600060a082019050615b2f60008301886155c0565b615b3c6020830187614b9e565b615b496040830186614bad565b615b566060830185614d12565b615b6360808301846155c0565b9695505050505050565b600060a082019050615b8260008301886155c0565b615b8f6020830187614b9e565b615b9c6040830186614bad565b615ba960608301856155c0565b615bb660808301846155c0565b9695505050505050565b600060a082019050615bd560008301886155c0565b615be26020830187614bad565b615bef6040830186614bad565b615bfc6060830185614d12565b615c0960808301846155c0565b9695505050505050565b6000604082019050615c2860008301856155c0565b615c356020830184614c78565b9392505050565b6000604082019050615c5160008301856155c0565b615c5e6020830184614d03565b9392505050565b6000606082019050615c7a60008301866155de565b615c8760208301856155c0565b615c9460408301846155b1565b949350505050565b6000819050602082019050919050565b6000819050602082019050919050565b600081519050919050565b600081519050919050565b600081519050919050565b6000602082019050919050565b6000602082019050919050565b600082825260208201905092915050565b600082825260208201905092915050565b600081905092915050565b600082825260208201905092915050565b6000615d4082615db9565b9050919050565b60008115159050919050565b6000819050919050565b6000615d6882615d35565b9050919050565b6000615d7a82615d35565b9050919050565b6000615d8c82615d35565b9050919050565b6000819050919050565b60006fffffffffffffffffffffffffffffffff82169050919050565b600073ffffffffffffffffffffffffffffffffffffffff82169050919050565b6000819050919050565b600067ffffffffffffffff82169050919050565b600060ff82169050919050565b6000615e0f82615ea6565b9050919050565b6000615e2182615e28565b9050919050565b6000615e3382615db9565b9050919050565b6000615e4582615e4c565b9050919050565b6000615e5782615db9565b9050919050565b6000615e6982615e70565b9050919050565b6000615e7b82615db9565b9050919050565b6000615e8d82615dd9565b9050919050565b6000615e9f82615d9d565b9050919050565b6000615eb182615eb8565b9050919050565b6000615ec382615db9565b9050919050565b60005b83811015615ee8578082015181840152602081019050615ecd565b83811115615ef7576000848401525b50505050565b615f0681615d35565b8114615f1157600080fd5b50565b615f1d81615d47565b8114615f2857600080fd5b50565b615f3481615d53565b8114615f3f57600080fd5b50565b615f4b81615d5d565b8114615f5657600080fd5b50565b615f6281615d6f565b8114615f6d57600080fd5b50565b615f7981615d81565b8114615f8457600080fd5b50565b615f9081615dd9565b8114615f9b57600080fd5b50565b615fa781615df7565b8114615fb257600080fd5b5056fea264697066735822122010c4fcde9b806669baf59bd0012ee0c0326f0e21af82c0bc3d05bdde9d5bd2e864736f6c634300060c0033",
  "linkReferences": {},
  "deployedLinkReferences": {}
}