{
  "_format": "hh-sol-artifact-1",
  "contractName": "Claimable",
  "sourceName": "contracts/Claimable.sol",
  "abi": [
    {
      "anonymous": false,
      "inputs": [
        {
          "indexed": true,
          "internalType": "address",
          "name": "previousOwner",
          "type": "address"
        },
        {
          "indexed": true,
          "internalType": "address",
          "name": "newOwner",
          "type": "address"
        }
      ],
      "name": "OwnershipTransferred",
      "type": "event"
    },
    {
      "inputs": [],
      "name": "claimOwnership",
      "outputs": [],
      "stateMutability": "nonpayable",
      "type": "function"
    },
    {
      "inputs": [],
      "name": "owner",
      "outputs": [
        {
          "internalType": "address",
          "name": "",
          "type": "address"
        }
      ],
      "stateMutability": "view",
      "type": "function"
    },
    {
      "inputs": [],
      "name": "renounceOwnership",
      "outputs": [],
      "stateMutability": "nonpayable",
      "type": "function"
    },
    {
      "inputs": [
        {
          "internalType": "address",
          "name": "newOwner",
          "type": "address"
        }
      ],
      "name": "transferOwnership",
      "outputs": [],
      "stateMutability": "nonpayable",
      "type": "function"
    }
  ],
  "bytecode": "0x608060405234801561001057600080fd5b5061002d61002261003260201b60201c565b61003a60201b60201c565b6100fe565b600033905090565b60008060009054906101000a900473ffffffffffffffffffffffffffffffffffffffff169050816000806101000a81548173ffffffffffffffffffffffffffffffffffffffff021916908373ffffffffffffffffffffffffffffffffffffffff1602179055508173ffffffffffffffffffffffffffffffffffffffff168173ffffffffffffffffffffffffffffffffffffffff167f8be0079c531659141344cd1fd0a4f28419497f9722a3daafe3b4186f6b6457e060405160405180910390a35050565b6105798061010d6000396000f3fe608060405234801561001057600080fd5b506004361061004c5760003560e01c80634e71e0c814610051578063715018a61461005b5780638da5cb5b14610065578063f2fde38b14610083575b600080fd5b61005961009f565b005b610063610163565b005b61006d6101eb565b60405161007a91906103e1565b60405180910390f35b61009d6004803603810190610098919061042d565b610214565b005b600160009054906101000a900473ffffffffffffffffffffffffffffffffffffffff1673ffffffffffffffffffffffffffffffffffffffff166100e06102d4565b73ffffffffffffffffffffffffffffffffffffffff1614610136576040517f08c379a000000000000000000000000000000000000000000000000000000000815260040161012d906104b7565b60405180910390fd5b610161600160009054906101000a900473ffffffffffffffffffffffffffffffffffffffff166102dc565b565b61016b6102d4565b73ffffffffffffffffffffffffffffffffffffffff166101896101eb565b73ffffffffffffffffffffffffffffffffffffffff16146101df576040517f08c379a00000000000000000000000000000000000000000000000000000000081526004016101d690610523565b60405180910390fd5b6101e960006102dc565b565b60008060009054906101000a900473ffffffffffffffffffffffffffffffffffffffff16905090565b61021c6102d4565b73ffffffffffffffffffffffffffffffffffffffff1661023a6101eb565b73ffffffffffffffffffffffffffffffffffffffff1614610290576040517f08c379a000000000000000000000000000000000000000000000000000000000815260040161028790610523565b60405180910390fd5b80600160006101000a81548173ffffffffffffffffffffffffffffffffffffffff021916908373ffffffffffffffffffffffffffffffffffffffff16021790555050565b600033905090565b60008060009054906101000a900473ffffffffffffffffffffffffffffffffffffffff169050816000806101000a81548173ffffffffffffffffffffffffffffffffffffffff021916908373ffffffffffffffffffffffffffffffffffffffff1602179055508173ffffffffffffffffffffffffffffffffffffffff168173ffffffffffffffffffffffffffffffffffffffff167f8be0079c531659141344cd1fd0a4f28419497f9722a3daafe3b4186f6b6457e060405160405180910390a35050565b600073ffffffffffffffffffffffffffffffffffffffff82169050919050565b60006103cb826103a0565b9050919050565b6103db816103c0565b82525050565b60006020820190506103f660008301846103d2565b92915050565b600080fd5b61040a816103c0565b811461041557600080fd5b50565b60008135905061042781610401565b92915050565b600060208284031215610443576104426103fc565b5b600061045184828501610418565b91505092915050565b600082825260208201905092915050565b7f436c61696d61626c653a206e6f742070656e64696e67206f776e657200000000600082015250565b60006104a1601c8361045a565b91506104ac8261046b565b602082019050919050565b600060208201905081810360008301526104d081610494565b9050919050565b7f4f776e61626c653a2063616c6c6572206973206e6f7420746865206f776e6572600082015250565b600061050d60208361045a565b9150610518826104d7565b602082019050919050565b6000602082019050818103600083015261053c81610500565b905091905056fea26469706673582212209799f85ed30f1c7abc8383c57670e98075da05eafe08268686e957a3e31fd34064736f6c63430008090033",
  "linkReferences": {},
  "deployedLinkReferences": {}
}